:100000000C94C30B0C94FC0B0C94FC0B0C94FC0B8D
:100010000C94FC0B0C94F33D0C94FC0B0C94FC0B1B
:100020000C94FC0B0C94FC0B0C94FC0B0C94FC0B34
:100030000C94FC0B0C9447920C94FC0B0C94FC0B52
:100040000C94FC0B0C94FC0B0C94FC0B0C94FC0B14
:100050000C94FC0B0C94FC0B0C94FC0B0C94FC0B04
:100060000C94FC0B0C94F9DC0C94FC0B0C9425DD2B
:100070000C94FC0B0C94FC0B0C94FC0B0C94FC0BE4
:100080000C94CA8E0C94FC0B0C94FC0B0C94FC0B83
:100090000C945EDD0C94FC0B0C9496DD0C94FC0B24
:1000A0000C94FC0B0C94FC0B0C941D920C94FC0B0C
:1000B0000C94FC0B0C94FC0B0C94FC0B0C94FC0BA4
:1000C0000C94FC0B0C94FC0B0C94FC0B0C94FC0B94
:1000D0000C94FC0B0C94FC0B0C94FC0B0C94FC0B84
:1000E0000C94FC0B123B583B5B3B3D3B683B1D3C7F
:1000F0001D3C3D3BB03B1D3CBF3BC43BD93BDE3BC5
:10010000723B7B3B893B3D3BAB3B1D3C253B6D3B09
:10011000E33BF13BF83B1D3C1D3CFC3BC2A3C5A3AC
:10012000C8A3CBA3CEA3D1A3D4A3D7A3DAA3DDA323
:10013000E0A3E3A3E6A3E9A3ECA3EFA3F2A3F5A353
:10014000F8A3FBA300A4B0A8B3A8B6A8B9A8BCA8FC
:10015000BFA8C2A8C5A8C8A8CBA8CEA8D1A8D4A813
:10016000D7A8DAA8DDA8E0A8FAD0FCD0FED001D14B
:100170000BD10ED111D114D117D11AD11DD120D14B
:1001800023D126D129D12CD12FD132D135D138D17B
:100190003BD15468696E672D4F2D4D6174696300C2
:1001A00024F404D9201BC40C5C0E9804C4095F021B
:1001B00065077101F405F900FB04B30048048700EA
:1001C000C10369005803550003034500BE023A000D
:1001D0008402310053022A00290225000402200073
:1001E000E4011C00C8011900AF01170098011400B8
:1001F00084011300710110006101100051010E0013
:1002000043010D0036010B002B010B0020010B00F8
:10021000150109000C01090003010800FB0008009A
:10022000F3000800EB000700E4000600DE00060013
:10023000D8000600D2000600CC000500C70005006B
:10024000C2000500BD000400B9000400B5000400B0
:10025000B1000400AD000400A9000400A5000300E3
:10026000A20003009F0004009B000300980003000D
:100270009500020093000300900003008D0002002F
:100280008B00030088000200860002008400030047
:10029000810002007F0002007D0002007B0002005E
:1002A000790002007700010076000200740002006D
:1002B00072000100710002006F0002006D00010079
:1002C0006C0002006A000100690002006700010082
:1002D0006600010065000100640002006200010088
:1002E00061000100600001005F0002005D0001008C
:1002F0005C0001005B0001005A0001005900010090
:10030000580001005700010056000100550001008F
:10031000540001005300000053000100520001008E
:1003200051000100500001004F0001004E0000008C
:100330004E0001004D0001004C0001004B00000088
:100340004B0001004A000100490001004800000084
:10035000480001004700010046000000460001007F
:10036000450000004500010044000100430000007A
:100370004300010042000000420001004100000073
:1003800041000100400001003F0000003F0001006B
:100390003E0000003E0001003D0000003D00010065
:1003A0003C0000003C0000003C0001003B0000005D
:1003B0003B0001003A0000003A0001003900000053
:1003C000390001003800000038000000380001004A
:1003D0003700000037000100360000003600000042
:1003E0003600010035000000350000003500010036
:1003F000340000003400000034000100330000002D
:100400003300000033000100320000003200000021
:100410003200010031000000310000003100010015
:100420003000000030000000300001002F0000000C
:100430002F0000002F0000002F0001002E00000000
:100440002E0000002E0001002D0000002D000000F5
:100450002D0000002D0001002C0000002C000000E9
:100460002C0000002C0001002B0000002B000000DD
:100470002B0000002B0001002A0000002A000000D1
:100480002A0000002A0001002900000029000000C5
:1004900029000000290000002900010028000000B8
:1004A00028000000280000002800000028000100AB
:1004B00027000000270000002700000027000000A0
:1004C0002700010026000000260000002600000092
:1004D0002600000026000100250000002500000085
:1004E0002500000025000000250000002500010077
:1004F000240000002400000024000000240000006C
:10050000240001002300000023000000230000005D
:10051000230000002300000023000000230001004E
:100520002200000022000000220000002200000043
:100530002200000022000100210000002100000034
:100540002100000021000000210000002100000027
:100550002100010020000000200000002000000019
:10056000200000002000000020000000200000000B
:10057000200001001F0000001F0000001F000000FD
:100580001F0000001F0000001F0000001F000100EE
:100590001E0000001E0000001E0000001E000000E3
:1005A00024F4D43050C38E20C2A24017828B701125
:1005B000127A910D816CD90AA861E108C7586607C3
:1005C000615143061E4B5D05C145A7041A41110444
:1005D000093D9803713931034036DB0265339102DE
:1005E000D4305402802E1D02632CEE01752AC50101
:1005F000B028A001102781018F2564012B244B0115
:10060000E0223401AC211F018D200D01801FFC0070
:10061000841EED00971DDF00B81CD200E61BC6004B
:10062000201BBC00641AB200B219A8000A19A0006D
:100630006A189900D117910040178B00B5168400F5
:1006400031167E00B31579003A157300C7146F0098
:1006500058146A00EE1366008813630025135E00C9
:10066000C7125B006C12570015125400C1115100E3
:1006700070114F0021114B00D61049008D1047001A
:100680004610440002104200C00F4000800F3E00A0
:10069000420F3C00060F3B00CB0E3800930E370094
:1006A0005C0E3500270E3400F30D3200C10D310011
:1006B000900D3000600D2E00320D2D00050D2C0028
:1006C000D90C2B00AE0C2900850C29005C0C2700EE
:1006D000350C27000E0C2600E80B2400C40B240068
:1006E000A00B23007D0B23005A0B2100390B2100A6
:1006F000180B2000F80A1F00D90A1E00BB0A1E00B2
:100700009D0A1D00800A1D00630A1C00470A1B0089
:100710002C0A1B00110A1A00F7091A00DD0919003A
:10072000C4091900AB091900920917007B091800C8
:10073000630917004C091600360916002009160037
:100740000A091500F5081500E0081400CC0814008B
:10075000B8081400A4081400900813007D081200C3
:100760006B081300580812004608120034081100E4
:10077000230811001208110001081100F0071000F1
:10078000E0071000D0071000C0071000B0070F00EE
:10079000A107100091070E0083070F0074070F00D8
:1007A00065070E0057070E0049070E003B070D00B6
:1007B0002E070E0020070D0013070D0006070D0081
:1007C000F9060C00ED060D00E0060C00D4060C0046
:1007D000C8060C00BC060C00B0060C00A4060B00FA
:1007E00099060C008D060B0082060B0077060B00A5
:1007F0006C060B0061060A0057060B004C060A0047
:1008000042060A0038060A002E060A0024060A00DC
:100810001A060A001006090007060A00FD0509006D
:10082000F4050900EB050900E2050900D9050900F6
:10083000D0050900C7050900BE050900B505080077
:10084000AD050800A50509009C05080094050800F1
:100850008C050800840508007C0508007405080064
:100860006C050700650508005D05070056050800D2
:100870004E0507004705070040050800380507003A
:10088000310507002A050700230507001C0506009F
:10089000160507000F0507000805060002050700FA
:1008A000FB040600F5040700EE040600E804060059
:1008B000E2040700DB040600D5040600CF040600AE
:1008C000C9040600C3040600BD040600B704060000
:1008D000B1040500AC040600A6040600A00405004F
:1008E0009B04060095040500900406008A04050098
:1008F00085040500800406007A04050075040500DF
:10090000700405006B040500660405006104050021
:100910005C04050057040500520405004D04050061
:1009200048040500430405003E0404003A040500A1
:1009300035040500300404002C04050027040400DD
:10094000230405001E0404001A0404001604050014
:10095000110404000D04040009040500040404004B
:1009600000040400FC030400F8030400F403040082
:10097000F0030400EC030400E8030400E4030400B3
:10098000E0030400DC030400D8030400D4030400E3
:10099000D0030400CC030400C8030300C503030014
:1009A00020205361696C66697368204657202020B7
:1009B00000202D2D2D2D2D2D2D2D2D2D2D2D2D2DA1
:1009C00020005468696E6720333230383420342E6A
:1009D000302000205265766973696F6E3A205F5F40
:1009E0005F5F2000582F5920446972656374696FF6
:1009F0006E3A004D6F64656C2056696577005573DB
:100A000065722056696577004A6F67206D6F64656F
:100A10003A20002E316D6D00316D6D00436F6E74A4
:100A20002E2E002020592020202020202020202091
:100A3000205A2B00202020592B202020202020204D
:100A400020205A2B005820562058202020202028D3
:100A50006D6F64652900582D20562020582B2020CA
:100A6000286D6F6465290020205920202020202037
:100A700020202020205A2D00202020592D20202009
:100A80002020202020205A2D00457874727564653E
:100A90003A200028736574206D6D2F732920202063
:100AA00046776400202873746F7029202020202846
:100AB00064757229002D2D2D2F2D2D2D43202020E2
:100AC0002020526576002020202020202000534541
:100AD0004353004578747275646572207370656560
:100AE000643A00206D6D2F732000546F6F6C3020BE
:100AF000746F6F20636F6C64210043616E63656C7B
:100B0000004F76657272696465004D6F6F64204CAA
:100B100069676874206E6F740070726573656E74B7
:100B2000212100536565205468696E676976657296
:100B30007365002020207468696E673A313533345C
:100B400037004D6F6F643A200055702F446E2F456B
:100B50006E7420746F2053657400202020202020A4
:100B6000202020200028736574205247422900521B
:100B700065643A00477265656E3A00426C75653A85
:100B80000055702F446E2F456E7420746F2053658E
:100B90007400436F6D706C657465643A202020307A
:100BA0002520006572726F722100546F6F6C2020D7
:100BB000202D2D2D2F2D2D2D01004265642020206C
:100BC000202D2D2D2F2D2D2D0100456C617073656D
:100BD000643A202020306830306D0054696D654CD7
:100BE0006566743A2020306830306D007365637339
:100BF000002020206E6F6E65005A506F733A2020DF
:100C0000202020202020202020006D6D0046696CCF
:100C1000616D656E743A302E30306D202000436F68
:100C200070793A2020202020202020202020002021
:100C30006F6620004163633A20202020202020207E
:100C400020202020004D6F74686572626F617264AD
:100C50003A205F2E5F00202020457874727564650D
:100C6000723A205F2E5F00202020526576697369FA
:100C70006F6E3A5F5F5F00467265655372616D3AF1
:100C80002000506C656173652043686F6F73653A2F
:100C90000041626F7274205072696E7420202000CF
:100CA0005072696E7420416E6F7468657200506195
:100CB000757365206174205A506F73200050617500
:100CC0007365202020202020202020005061757393
:100CD00065204E6F20486561742000436F6E746913
:100CE0006E7565204275696C64004D6F6E69746F36
:100CF00072004275696C642066726F6D2053440007
:100D00004A6F670050726568656174004578747257
:100D100075646500486F6D652041786973004164B2
:100D200076616E6365204142500053746570706552
:100D30007273004D6F6F64204C6967687400427570
:100D40007A7A6572004275696C64205365747469BF
:100D50006E67730050726F66696C657300457874D6
:100D600072756465722046616E0043616C696272DF
:100D700061746500486F6D65204F666673657473B6
:100D80000046696C616D656E742055736564005032
:100D90006F736974696F6E005465737420456E6477
:100DA0002053746F707300486F6D696E67205261D5
:100DB0007465730056657273696F6E004565707275
:100DC0006F6D0055702F446E2F456E7420746F2028
:100DD00053657400436F6F6C200048656174200098
:100DE0004265640053657420546F6F6C3020546505
:100DF0006D7000536574204265642054656D700009
:100E0000546F6F6C3000546F6F6C30205461726798
:100E10002054656D703A00426564205461726765C4
:100E2000742054656D703A00486F6D652041786993
:100E3000733A20002020592020202020202020202C
:100E40002020205A0058202020582028656E6473E6
:100E5000746F70732900202059202020202020202A
:100E600020202020205A0044697361626C6500458F
:100E70006E61626C650053746570706572204D6FB1
:100E8000746F72733A00005465737420456E642069
:100E900053746F70733A2000584D696E3A4E20209B
:100EA0002020584D61783A4E00594D696E3A4E20D7
:100EB000202020594D61783A4E005A4D696E3A4EC5
:100EC000202020205A4D61783A4E0059004E0045AE
:100ED0006E746572696E672070617573652E2E0081
:100EE000526574726163742066696C616D656E74BD
:100EF00000436C656172696E67206275696C642E6F
:100F00002E005061757365642800202020592B2025
:100F100020202020202020205A2B00582D205265F0
:100F20007620582B2020284677642900202020593D
:100F30002D2020202020202020205A2D00486561CF
:100F400074696E672E2E2E202020202020004C65F4
:100F50006176696E672070617573652E2E20005072
:100F600061757365206174205A506F733A00557033
:100F70002F446E2F456E7420746F20536574006D7E
:100F80006D20202000416476616E636520414250EF
:100F90003A00686F6C64206B65792E2E2E0020203D
:100FA000202020202020202020286677642900434C
:100FB000616C6962726174653A204D6F76652000DC
:100FC0006275696C6420706C6174666F726D007517
:100FD0006E74696C206E6F7A7A6C652E2E2E0020EE
:100FE00020202020202020202028636F6E742900DC
:100FF0006C69657320696E2063656E7465722C0080
:101000007475726E20746872656164656400726FD5
:101010006420756E74696C2E2E2E006E6F7A7A6C59
:1010200065206A75737400746F75636865732E004C
:10103000486F6D696E67205A2E2E2E00486F6D69BD
:101040006E6720592E2E2E00486F6D696E672058EE
:101050002E2E2E00212043616C69627261746564DA
:10106000202100526567656E657261746520676353
:101070006F64650020202020202020202028726519
:10108000736574290058204F66667365743A005979
:10109000204F66667365743A005A204F6666736522
:1010A000743A0055702F446E2F456E7420746F2073
:1010B000536574006D6D00526570656174204275F2
:1010C0007A7A65723A0028303D42757A7A657220E4
:1010D0004F6666290055702F446E2F456E7420743C
:1010E0006F20536574002074696D65732000457826
:1010F0007472756465722046616E3A0000526573C1
:10110000657420546F205A65726F3F004E6F00590E
:101110006573004C69666574696D65204F646F2E58
:101120003A0054726970204F646F6D657465723A4D
:1011300000287472697029202020287265736574F4
:101140002900286C6966652920202028726573654E
:101150007429004F766572726964652054656D70FC
:101160000041425020436F70696573202853442921
:1011700000446974746F205072696E74004578740D
:10118000727564657220486F6C6400416363656CBE
:101190002E204F6E2F4F666600416363656C2E20D4
:1011A00053657474696E67730041425020436F70D9
:1011B00069657320285344293A0055702F446E2FD7
:1011C000456E7420746F20536574004F766572729B
:1011D0006964652047436F64650054656D7065728E
:1011E00061747572653A00416363656C6572617420
:1011F0006564005072696E74696E673A004F666686
:10120000004F6E00457874727564657200486F6CAB
:10121000643A004F6666004F6E00446974746F2034
:101220005072696E74696E673A000050726F666939
:101230006C653F00526573746F726500446973702A
:101240006C617920436F6E666967004368616E6701
:1012500065204E616D65005361766520546F2050A6
:10126000726F66696C650050726F66696C65204EBE
:10127000616D653A0055702F446E2F456E74207471
:101280006F20536574002000584F66663A2000595D
:101290004F66663A20005A4F66663A200048425030
:1012A0002054656D703A20202000546F6F6C302000
:1012B00054656D703A20004578747264724D4D2FFC
:1012C000733A2000583A00593A005A3A00413A001D
:1012D0006D6D004661696C656420746F206F706588
:1012E0006E0066696C652E20204E616D6520746FFE
:1012F0006F006C6F6E673F00436F6E74696E75654B
:101300000058204D617820416363656C3A00592094
:101310004D617820416363656C3A005A204D6178D5
:1013200020416363656C3A005269676874204D61BF
:101330007820416363656C3A004C656674204D61AA
:101340007820416363656C3A004D617820416363A6
:10135000656C3A004D617820416363656C20457887
:101360007464723A004A4B4E20416476616E636544
:10137000204B3A004A4B4E20416476616E636520F3
:101380004B323A0045787464722E44657072696D10
:1013900065523A0045787464722E44657072696DC6
:1013A000654C3A00536C6F77646F776E456E61627F
:1013B0006C65643A004D617853706565644368619B
:1013C0006E6765583A004D6178537065656443688F
:1013D000616E6765593A004D617853706565644385
:1013E00068616E67655A3A004D617853706565644F
:1013F0004368616E6765523A004D61785370656568
:10140000644368616E67654C3A0055702F446E2FD7
:10141000456E7420746F20536574002020202000D6
:10142000456E6473746F707350726573656E743A51
:101430000055702F446E2F456E7420746F205365D5
:10144000740020005820486F6D6520466565647201
:101450006174653A005920486F6D65204665656482
:10146000726174653A005A20486F6D652046656563
:1014700064726174653A0055702F446E2F456E7426
:1014800020746F20536574006D6D2F6D696E2000A0
:1014900054686973206D656E752063616E006D61BF
:1014A0006B6520796F757220626F7400696E6F7062
:1014B000657261626C652E00507265737320592BE2
:1014C00020746F20636F6E7400536176696E672EAF
:1014D0002E2E005772697465204661696C6564211F
:1014E000004572726F723A0046696C6520657869D2
:1014F0007374732100526573746F72696E672E2E58
:101500002E0052656164204661696C656421004566
:101510004550524F4D206D617920626500636F72B6
:10152000727570740046696C65206E6F7420666F0A
:10153000756E64210045726173696E672E2E2E00F0
:101540002A205072657373200078206D6F726521B8
:1015500000202020202020202020202020202020AB
:101560002000454550524F4D202D3E2053440053FE
:1015700044202D3E20454550524F4D004572617329
:101580006520454550524F4D00554E4B4E4F574EDE
:1015900000000000FFFFFFFF000000FF000000FF51
:1015A00000FFFFFF00FFFFFF00A020F0FFA500FFEE
:1015B000C3A5FFB291CDFFD2D2D0FFB4B4FFFFD00C
:1015C000CD708A90BEBEBED3D3D319197000BFFFB1
:1015D00055892F228B22FFD700FF69B4F0F0E64235
:1015E0006F742053746174757300437573746F6DF9
:1015F00020524742004F6666005768697465005282
:10160000656400477265656E00426C7565004379DC
:10161000616E004D6167656E74610059656C6C6F39
:101620007700507572706C65004F72616E6765006F
:10163000416C6D6F6E640050656163682050756623
:1016400066004D696E7420437265616D00416C697E
:10165000636520426C7565004C6176656E646572E9
:10166000004D6973747920526F736500536C617417
:101670006520477261790047726179004C6967683B
:10168000742047726179004D69646E676874426CBA
:10169000750044656570536B79426C75004F6C69D9
:1016A0007665477265656E00466F72737447726542
:1016B000656E00476F6C6400486F742050696E6BF4
:1016C000004C696E656E0057524742005247420017
:1016D0005768697465466C6173680052656420469A
:1016E0006C61736800477265656E466C6173680073
:1016F000426C756520466C617368004379616E20A9
:10170000466C617368004D676E7461466C61736806
:101710000059656C6C20466C61736800426C6163B3
:101720006B00487565204379636C65004D6F6F648D
:10173000204C696768740043616E646C6500576192
:10174000746572004F6C64204E656F6E0053656166
:10175000736F6E73005468756E64727374726D008B
:1017600053746F70204C6967687400532E204F2E9D
:1017700020532E0053328032263D7F773D7A4D93A1
:10178000999305D7DADDEAEEFBE185EC91E201C041
:101790008193EF3FF907E0F3D9F311241FBECFEF98
:1017A000D1E2DEBFCDBF18E0A0E0B2E0E8E5F7ECA3
:1017B00001E00BBF02C007900D92AA31B107D9F723
:1017C0001BE1AAE1B8E001C01D92AA3EB107E1F712
:1017D00017E1C6E8D7E100E006C022970109FE0143
:1017E0000BBF0E941AE3C437D10780E00807A9F7AE
:1017F0000E94BF3D0C94AAE30C940000A0E3B0E06B
:10180000E4E0FCE00C94E5E2298F3A8F4B8F5C8F8B
:101810006D8F7E8F8F8F98A3A98ABA8ACB8ADC8A34
:10182000ED8AFE8A0F8B188F098D1A8D2B8D3C8DBA
:1018300009A31AA32BA33CA3680179018FEF9FEFA3
:10184000A0E0B0E0C822D922EA22FB2289012227A7
:10185000332709A71AA72BA73CA709891A892B891F
:101860003C890DA31EA32FA338A748015901882244
:101870009922AA22BB22290166247724C501B4013A
:10188000A70196010E9454E26DA77EA78FA798AB8F
:10189000C301B2010E9454E26B017C01C501B40195
:1018A00029A53AA54BA55CA50E9454E24B015C0119
:1018B000C301B2010E9454E2AB01BC01C80CD91CA7
:1018C000EA1CFB1C0DA51EA52FA538A9C901AA2736
:1018D000BB27C80ED91EEA1EFB1EC814D904EA0491
:1018E000FB0420F4405050406F4F7F4FC701AA27A0
:1018F000BB27840F951FA61FB71F8D839E83AF83C1
:10190000B8877601DD24CC244DA55EA56FA578A906
:1019100060707070C40ED51EE61EF71EC982DA8292
:10192000EB82FC821C2D0A818B804C808D878E81FE
:101930008E878F818F878885888B2D893E894F89F7
:10194000588D69A17AA18BA19CA10E9454E26B01E0
:101950007C012D8D3E8D4F8D58A16DA17EA18FA153
:1019600098A50E9454E2DC01CB01C80ED91EEA1EE4
:10197000FB1E8D859E85AF85B8898C0D9D1DAE1D86
:10198000BF1D8D879E87AF87B88B682F7E85212FDF
:10199000302F482D542D8F859889E096E0E10C94E6
:1019A00001E30F93CF93DF93CDB7DEB760970FB608
:1019B000F894DEBF0FBECDBF002309F456C02987BF
:1019C0003A874B875C876D877E878F87988B20E26D
:1019D000201B8D859E85AF85B889AC01BD0112168F
:1019E000B4F0770F440B542FBA014D835E836F839D
:1019F0007887332727FD3095309521953F4F04C0D8
:101A0000B595A795979587952A95D2F722C0002E70
:101A100004C075956795579547950A94D2F74D83FD
:101A20005E836F83788704C0880F991FAA1FBB1F2E
:101A30002A95D2F749855A856B857C8504C07695B1
:101A40006795579547950A95D2F7842B952BA62B2A
:101A5000B72B89839A83AB83BC8329813A814B81DD
:101A60005C816D817E818F81988560960FB6F89438
:101A7000DEBF0FBECDBFDF91CF910F910895A8E4D7
:101A8000B0E0E5E4FDE00C94E4E2F50129A33AA31B
:101A90004BA35CA36DA37EA38FA398A7A98EFA8FF7
:101AA000CB8EDC8EED8EFE8E0F8F18A38DA09EA0A8
:101AB000AFA0B8A4B7FE67C02195B1E0121608F038
:101AC000B0E03195A1E0131608F0A0E0B32EBB1AE8
:101AD000BB2D882483943B1508F08824A8294195C0
:101AE00031E0141608F030E0B42EBA1AAB2D882479
:101AF00083944B1508F088243829519541E0151638
:101B000008F040E0452E431A31E0541508F030E06B
:101B1000432B619531E0161608F030E0862E841ACA
:101B200041E0681508F040E0342B719541E017164C
:101B300008F040E0572F531B31E0751708F030E0F4
:101B4000432B819531E0181608F030E0682F641BB4
:101B5000462F61E0841708F060E0362B9195931BC7
:101B600029A3BAA3ABA34CA28DA25EA34FA398A7AF
:101B70008FEF9FEFAFEFBFEF25968CAF9DAFAEAF6E
:101B8000BFAF259706C025961CAE1DAE1EAE1FAE7C
:101B900025978D8D9E8DAF8DB8A1B7FF68C0259616
:101BA0002CAD3DAD4EAD5FAD259720953095409560
:101BB000509525962CAF3DAF4EAF5FAF2597E19581
:101BC00081E01E1608F080E0F19591E01F1608F004
:101BD00090E04F2F481B81E0F41708F080E0982B2D
:101BE000C19481E01C1408F080E06C2D691B91E029
:101BF000C61608F090E0892BD19491E01D1408F0EE
:101C000090E05D2D581B81E0D51608F080E0982B00
:101C1000E19481E01E1408F080E03E2D391B91E034
:101C2000E31608F090E0892BF19491E01F1408F07E
:101C300090E02F2D281B81E0F21608F080E0982B11
:101C4000019581E0101608F080E0702F791B972F26
:101C500071E0091708F070E0872B1195181BE98FC8
:101C60004A8F6B8F5C8F3D8F2E8F9F8F18A3798D3E
:101C70006A8D5B8D4C8D3D8D2E8D9F8D88A1E9A148
:101C8000E98BEAA1EA8BEBA1EB8BECA1EC8BEDA14C
:101C9000ED8BEEA1EE8BEFA1EF8BE8A5E88F7987B6
:101CA0006A875B874C873D872E879F87888B8984CF
:101CB0009A84AB84BC848D859E85AF85B889E9887C
:101CC000FA880B891C89EDAAFEAA0FAB18AFCD8844
:101CD000DE88EF88F88C0097A105B10509F0BFC335
:101CE000C814D904EA04FB0408F04EC100E08016D1
:101CF00000E0900601E0A00600E0B00660F41FEFEF
:101D000081169104A104B10409F098F480E090E0F8
:101D1000A0E0B0E017C020E0821620E0920620E0AC
:101D2000A20621E0B20650F480E190E0A0E0B0E02D
:101D300009C088E090E0A0E0B0E004C088E190E055
:101D4000A0E0B0E0B501A401082E04C07695679527
:101D5000579547950A94D2F7FA01EF58FD4F208125
:101D600040E250E060E070E0481B590B6A0B7B0BCF
:101D7000421B510961097109411551056105710540
:101D8000A1F1042E04C0880C991CAA1CBB1C0A9447
:101D9000D2F797018601042E04C0000F111F221FE5
:101DA000331F0A94D2F780E290E0841B950BCDA8F4
:101DB000DEA8EFA8F8AC04C0F694E794D794C794D3
:101DC0008A95D2F7C02AD12AE22AF32A0DA91EA9A0
:101DD0002FA938AD04C0000F111F221F331F4A95D1
:101DE000D2F70DAB1EAB2FAB38AF2501662477249D
:101DF000950184012070307009AB1AAB2BAB3CAB62
:101E0000C701B601A30192010E94A6E22DA73EA739
:101E10004FA758AB69A77AA78BA79CA7C701B601A4
:101E2000A30192010E94A6E2CA01B90129A93AA917
:101E30004BA95CA90E9454E2AB01BC0109A51AA5FB
:101E40002BA53CA57801DD24CC240DA91EA92FA922
:101E500038ADC901AA27BB27C82AD92AEA2AFB2AF2
:101E60000DA51EA52FA538A9C416D506E606F706AA
:101E700038F5015010402040304009A71AA72BA781
:101E80003CA7C80CD91CEA1CFB1CC814D904EA04E2
:101E9000FB04D0F0C416D506E606F706A8F40DA597
:101EA0001EA52FA538A9025010402040304009A798
:101EB0001AA72BA73CA7C80CD91CEA1CFB1C04C002
:101EC00009A71AA72BA73CA7C41AD50AE60AF70A3E
:101ED000C701B601A30192010E94A6E22DA73EA769
:101EE0004FA758AB69AF7AAF8BAF9CAFC701B601B4
:101EF000A30192010E94A6E2CA01B90129A93AA947
:101F00004BA95CA90E9454E26B017C0149AD5AAD1A
:101F10006BAD7CAD9A01112700274DA95EA96FA971
:101F200078AD60707070042B152B262B372B8DA588
:101F30009EA5AFA5B8A90C151D052E053F05C0F43B
:101F40000197A109B109080D191D2A1D3B1D08158E
:101F500019052A053B0560F00C151D052E053F05EA
:101F600038F48DA59EA5AFA5B8A90297A109B1091E
:101F700009A51AA52BA53CA57801DD24CC24C82AE7
:101F8000D92AEA2AFB2AB9C481149104A104B10414
:101F900051F461E070E080E090E0A50194010E94BE
:101FA000A6E249015A0110E0811610E0910611E005
:101FB000A10610E0B10660F42FEF82169104A1048F
:101FC000B10409F098F480E090E0A0E0B0E017C020
:101FD00030E0831630E0930630E0A30631E0B3062C
:101FE00050F480E190E0A0E0B0E009C088E090E02B
:101FF000A0E0B0E004C088E190E0A0E0B0E0B5016E
:10200000A401082E04C076956795579547950A94C4
:10201000D2F7FA01EF58FD4F2081AC01BD01420F0C
:10202000511D611D711D80E290E0A0E0B0E0841BB5
:10203000950BA60BB70B51F4C818D908EA08FB0892
:10204000F1E04F2E512C612C712C28C1082E04C0B8
:10205000880C991CAA1CBB1C0A94D2F79701860114
:10206000042E04C036952795179507950A94D2F744
:1020700009AB1AAB2BAB3CAB97018601082E04C011
:10208000000F111F221F331F0A94D2F70DA71EA79E
:102090002FA738ABEDA8FEA80FA918AD04C0169560
:1020A0000795F794E7944A95D2F7B801A7010DA5D3
:1020B0001EA52FA538A9042B152B262B372B0DA7D2
:1020C0001EA72FA738ABEDA8FEA80FA918AD04C016
:1020D000EE0CFF1C001F111F8A95D2F7EDAAFEAA75
:1020E0000FAB18AF25016624772495018401207079
:1020F000307009AF1AAF2BAF3CAF69A97AA98BA991
:102100009CA9A30192010E94A6E229A73AA74BA786
:102110005CA76B017C0169A97AA98BA99CA9A30181
:1021200092010E94A6E2CA01B90129AD3AAD4BADB8
:102130005CAD0E9454E2AB01BC017601DD24CC24ED
:102140000DA51EA52FA538A9C901AA27BB27C82AF6
:10215000D92AEA2AFB2A09A51AA52BA53CA5C4164B
:10216000D506E606F70638F501501040204030400D
:1021700009AB1AAB2BAB3CABC80CD91CEA1CFB1C43
:10218000C814D904EA04FB04D0F0C416D506E60648
:10219000F706A8F409A51AA52BA53CA502501040E6
:1021A0002040304009AB1AAB2BAB3CABC80CD91C60
:1021B000EA1CFB1C04C009AB1AAB2BAB3CABC41A2A
:1021C000D50AE60AF70AC701B601A30192010E94E7
:1021D000A6E229A73AA74BA75CA721966CAF7DAFD3
:1021E0008EAF9FAF2197C701B601A30192010E9454
:1021F000A6E2CA01B90129AD3AAD4BAD5CAD0E9472
:1022000054E28B019C0121964CAD5DAD6EAD7FAD6E
:102210002197DA01992788274DA55EA56FA578A992
:1022200060707070842B952BA62BB72B49A55AA5EF
:102230006BA57CA580179107A207B307F0F4415066
:10224000504060407040880D991DAA1DBB1D881527
:102250009905AA05BB0588F080179107A207B30767
:1022600060F449A55AA56BA57CA54250504060403A
:102270007040880D991DAA1DBB1D6C017D01C01AFF
:10228000D10AE20AF30A09A91AA92BA93CA9380123
:1022900055244424442A552A662A772A8501222770
:1022A00033270DA71EA72FA738AB950184012070F7
:1022B000307009AF1AAF2BAF3CAFC701B6012DA5E7
:1022C0003EA54FA558A90E94A6E229A73AA74BA769
:1022D0005CA769AB7AAB8BAB9CABC701B6012DA5F4
:1022E0003EA54FA558A90E94A6E2CA01B90129AD91
:1022F0003AAD4BAD5CAD0E9454E2AB01BC0109A903
:102300001AA92BA93CA97801DD24CC240DA91EA96A
:102310002FA938ADC901AA27BB27C82AD92AEA2A7A
:10232000FB2A09A51AA52BA53CA5C416D506E606C9
:10233000F70638F5015010402040304009AB1AAB89
:102340002BAB3CABC80CD91CEA1CFB1CC814D90431
:10235000EA04FB04D0F0C416D506E606F706A8F496
:1023600009A51AA52BA53CA50250104020403040DD
:1023700009AB1AAB2BAB3CABC80CD91CEA1CFB1C41
:1023800004C009AB1AAB2BAB3CABC41AD50AE60AA6
:10239000F70AC701B6012DA53EA54FA558A90E9471
:1023A000A6E229A73AA74BA75CA721966CAF7DAF01
:1023B0008EAF9FAF2197C701B6012DA53EA54FA5B2
:1023C00058A90E94A6E2CA01B90129AD3AAD4BADA8
:1023D0005CAD0E9454E28B019C0121964CAD5DAD39
:1023E0006EAD7FAD2197DA01992788274DA95EA9A7
:1023F0006FA978AD60707070842B952BA62BB72BCE
:1024000049A55AA56BA57CA580179107A207B3071C
:10241000D0F44150504060407040880D991DAA1D75
:10242000BB1D88159905AA05BB0568F080179107A3
:10243000A207B30740F449A55AA56BA57CA5425055
:1024400050406040704009A91AA92BA93CA9780105
:10245000DD24CC24C42AD52AE62AF72A51C2C8167C
:10246000D906EA06FB0608F438C2803010E091076E
:1024700011E0A10710E0B10758F48F3F9105A105C5
:10248000B10509F090F400E010E020E030E016C063
:10249000803020E0920720E0A20721E0B20750F44C
:1024A00000E110E020E030E009C008E010E020E0AA
:1024B00030E004C008E110E020E030E0AC01BD01F4
:1024C000002E04C076956795579547950A94D2F7E4
:1024D000FA01EF58FD4F4081040F111D211D311DE0
:1024E00040E250E060E070E0401B510B620B730B68
:1024F000A1F48C159D05AE05BF0508F4F5C1EDA846
:10250000FEA80FA918AD442455243201E814F9049B
:102510000A051B0508F0EBC1E3C1342E2C013D0177
:1025200004C0440C551C661C771C4A95D2F7D50193
:10253000C401002E04C0B695A795979587950A9477
:10254000D2F7482A592A6A2A7B2AA5019401032C2A
:1025500004C0220F331F441F551F0A94D2F729AF1E
:102560003AAF4BAF5CAFB701A601002E04C0769521
:102570006795579547950A94D2F749AB5AAB6BAB21
:102580007CABC701B601032C04C0660F771F881F00
:10259000991F0A94D2F76DA77EA78FA798AB8DA934
:1025A0009EA9AFA9B8AD04C0B695A7959795879594
:1025B0000A95D2F74DA55EA56FA578A9482B592B92
:1025C0006A2B7B2B4DA75EA76FA778AB4301AA248C
:1025D000BB24930182012070307021960CAF1DAF97
:1025E0002EAF3FAF219769A97AA98BA99CA9A50114
:1025F00094010E94A6E229A73AA74BA75CA76B010A
:102600007C0169A97AA98BA99CA9A50194010E94C2
:10261000A6E2CA01B90121962CAD3DAD4EAD5FAD2C
:1026200021970E9454E2DC01CB017601DD24CC2409
:102630000DA51EA52FA538A9A90166277727C42AAD
:10264000D52AE62AF72A09A51AA52BA53CA5C8165E
:10265000D906EA06FB0638F501501040204030400C
:1026600009AB1AAB2BAB3CABC40CD51CE61CF71C5E
:10267000C414D504E604F704D0F0C816D906EA0657
:10268000FB06A8F409A51AA52BA53CA502501040ED
:102690002040304009AB1AAB2BAB3CABC40CD51C73
:1026A000E61CF71C04C009AB1AAB2BAB3CABC81A39
:1026B000D90AEA0AFB0AC701B601A50194010E94E2
:1026C000A6E229A73AA74BA75CA729966CAF7DAFD6
:1026D0008EAF9FAF2997C701B601A50194010E9453
:1026E000A6E2CA01B90121962CAD3DAD4EAD5FAD5C
:1026F00021970E9454E24B015C0129964CAD5DADDF
:102700006EAD7FAD29979A01112700278DA59EA553
:10271000AFA5B8A9A070B070082B192B2A2B3B2BA2
:1027200089A59AA5ABA5BCA5081519052A053B05E1
:10273000E0F40197A109B109040D151D261D371DEF
:10274000041515052605370580F0081519052A0515
:102750003B0558F489A59AA5ABA5BCA50297A1098C
:10276000B109040D151D261D371DB901A801481911
:1027700059096A097B094DA75EA76FA778AB09A91C
:102780001AA92BA93CA97801DD24CC24C82AD92A6E
:10279000EA2AFB2AFFEF8F2EFFEF9F2EA12CB12CF0
:1027A0008C209D20AE20BF2087012227332709A738
:1027B0001AA72BA73CA749AC5AAC6BAC7CAC2FEF4B
:1027C0003FEF40E050E0422253226422752229ADBF
:1027D0003AAD4BAD5CAD8A012227332709AB1AAB6A
:1027E0002BAB3CABC501B401A30192010E9454E2A2
:1027F00069AF7AAF8BAF9CAFC501B40129A93AA9E3
:102800004BA95CA90E9454E24B015C0169A57AA521
:102810008BA59CA5A30192010E9454E22B013C01CF
:1028200069A57AA58BA59CA529A93AA94BA95CA95C
:102830000E9454E2AB01BC01840C951CA61CB71C81
:1028400009AD1AAD2BAD3CADC901AA27BB27880E37
:10285000991EAA1EBB1E84149504A604B70420F476
:10286000405050406F4F7F4FC501AA27BB27840FB0
:10287000951FA61FB71F0DA51EA52FA538A90817C0
:1028800019072A073B0718F180179107A207B3071A
:10289000A1F554019924882489AD9AADABADBCADA6
:1028A000A070B070880E991EAA1EBB1E4DA95EA90D
:1028B0006FA978AD032C04C0440F551F661F771F06
:1028C0000A94D2F7481559056A057B05B0F40894B7
:1028D000C108D108E108F10810C044245524320190
:1028E000CC24DD2476010CC044245524320181E03F
:1028F000C82ED12CE12CF12C03C0442455243201E4
:10290000FE01319688E0DF011D928A95E9F7C982C0
:10291000DA82EB82FC824D825E826F8278862C2D79
:102920003A814B815C81642D7E818F8198852596CB
:10293000ECACFDAC0EAD1FAD2597E114F104010523
:10294000110509F456C02195E1E0121608F0E0E007
:102950003195F1E0131608F0F0E0032F0E1BE1E0D3
:10296000301708F0E0E0FE2B4195E1E0141608F086
:10297000E0E0142F1F1B31E0411708F030E0E32B9B
:102980005195F1E0151608F0F0E0B52FBE1B31E0CF
:102990005B1708F030E0F32B6195E1E0161608F0C4
:1029A000E0E0462E4F1A31E0641508F030E0E32BEA
:1029B0007195F1E0171608F0F0E0A72FAE1B31E09B
:1029C0007A1708F030E0F32B8195E1E0181608F053
:1029D000E0E0F82EFF1AFF2D31E08F1508F030E00F
:1029E000E32B9195302F412F5B2F642D7A2F8F2F62
:1029F0009E1BC85BDF4FE1E10C9400E3F89420914B
:102A0000AA083091AB088091A8089091A908821B70
:102A1000930B78940895809172030895882329F088
:102A20006093660880E490E002C080E890E09093B4
:102A3000A2088093A10808952091A1083091A208CE
:102A40002115310529F081E027FF03C080E00895BA
:102A500080E008958091A1089091A208089581E0F6
:102A60002091A1083091A2082230310508F480E0BD
:102A70000895FC01A2EBBAE024E10D9001922150EF
:102A8000E1F70895CF93DF93CDB7DEB764970FB624
:102A9000F894DEBF0FBECDBFDC01CB0180938F0861
:102AA00090939008A0939108B0939208CE0101965C
:102AB0000E94C36DCE01019662E070E00E94703EFC
:102AC00040918F0850919008609191087091920800
:102AD000FC0180819181A281B38184179507A607AB
:102AE000B7071CF010928E0803C081E080938E0817
:102AF00064960FB6F894DEBF0FBECDBFDF91CF91C5
:102B000008950F931F9300918F08109190082091C2
:102B1000910830919208B801C9011F910F91089551
:102B2000CF92DF92EF92FF920F931F93CF93DF9399
:102B3000C0917203CC2309F478C0C53609F475C07E
:102B4000D0916108CD1709F470C06091620870914E
:102B50006308809164089091650820E030E040E0CF
:102B600050E00E9489DF882309F45FC0DD2309F467
:102B70005CC0C0905D08D0905E08E0905F08F09067
:102B80006008C701B60120E030E040E050E00E945C
:102B900089DF882309F449C06C2F70E06D1B71092F
:102BA000882777FD8095982F0E9466E09B01AC01F5
:102BB000C701B6010E948DDF6B017C016C2F70E0B4
:102BC00080E090E00E9464E09B01AC0160E070E076
:102BD00088EC92E40E9411DF9B01AC01C701B601B1
:102BE0000E94A8E1C62E072FD82FC92F9E01862F3D
:102BF000902FA32FB22FBC01CD0120E030E040E0A8
:102C000050E00E9489DF87FF04C0CC2400E0D0E0C0
:102C1000C0E09E018C2D902FA32FBC2FBC01CD01B5
:102C20000E942FE08B019C0104C000E010E020E036
:102C300030E0B801C901DF91CF911F910F91FF9052
:102C4000EF90DF90CF9008952091AA083091AB08C3
:102C500081E02115310509F080E00895482F809129
:102C6000AA089091AB086091A8087091A9088617EE
:102C70009707E8F42091AA083091AB088091AC083E
:102C80009091AD08820F931F0E947FE2E091AE0801
:102C9000F091AF08E80FF91F40838091AA08909146
:102CA000AB0801969093AB088093AA08089581E041
:102CB000E8EAF8E080870895CF9385E68093720371
:102CC00080E090E0A0E0B0E0809362089093630819
:102CD000A0936408B093650810926108C1E0C093A6
:102CE000710380935D0890935E08A0935F08B09392
:102CF000600860E070E080E090E00E944215109271
:102D00008E081092AB081092AA081092AD0810928B
:102D1000AC081092B0081092B1081092A30810925B
:102D2000A4081092A5081092A6081092A20810926A
:102D3000A10810929D0810929E0810929F08109270
:102D4000A00810921A081092860810928708109214
:102D500088081092890810928A0810928B081092A5
:102D60008C0810928D08EEE7F8E010927E08118230
:102D700012821382148215821682178210927608AC
:102D800010927708109278081092790810927A08B9
:102D900010927B0810927C0810927D08EEE6F8E015
:102DA00010926E081182128213821482158216828A
:102DB00017821092CA0A1092CB0A1092CC0A109273
:102DC000CD0A1092C60A1092C70A1092C80A109231
:102DD000C90A8EEA91E061E00E947297823079F42C
:102DE0008CED91E060E00E947297882341F0C093DF
:102DF0005C0810925B0810925A08CF9108951092C7
:102E00005C08F7CF6091A3087091A4088091A50891
:102E10009091A60808951092A3081092A408109209
:102E2000A5081092A60808956F927F928F929F92A4
:102E3000AF92BF92CF92DF92EF92FF920F931F93C8
:102E4000CF93DF93CDB7DEB764970FB6F894DEBFAC
:102E50000FBECDBF182F882321F081E080936D082D
:102E600005C080916D08882309F4BFC0CE0101968A
:102E70000E94C36DCE01019663E070E00E94783E2F
:102E80003C01FC0180809180A280B380113029F048
:102E9000CC24CA94DC2C760105C091E0C92ED12C3B
:102EA000E12CF12C60E070E080E090E443E00E94CF
:102EB000076C9B01AC01C701B6010E9454E2DC0122
:102EC000CB01880D991DAA1DBB1DF3018083918341
:102ED000A283B383CE01019664E070E00E94783E45
:102EE0003C01FC0180809180A280B380113029F0E8
:102EF000CC24CA94DC2C760105C081E0C82ED12CEC
:102F0000E12CF12C60E070E080E090E444E00E946D
:102F1000076C9B01AC01C701B6010E9454E2DC01C1
:102F2000CB01880D991DAA1DBB1DF30180839183E0
:102F3000A283B3838EE991E04CE251E060E070E05F
:102F40000E94D4970E9464E020E030E040E251E427
:102F50000E948DDF2091AA143091AB144091AC14E3
:102F60005091AD140E94A8E19B01AC0160E074E2B5
:102F700084E799E40E948DDF0E942FE0162F072F2F
:102F8000882E692E80915C08882339F18091A708EA
:102F9000882361F4CE01019664E070E00E94783EDF
:102FA0006C01CE01019663E070E00BC0CE0101968A
:102FB00063E070E00E94783E6C01CE01019664E00F
:102FC00070E00E94783EFC0180819181A281B381F2
:102FD000F60180839183A283B383CE010196412FB2
:102FE000502F682D762D0E94FC6E64960FB6F894D3
:102FF000DEBF0FBECDBFDF91CF911F910F91FF902C
:10300000EF90DF90CF90BF90AF909F908F907F9088
:103010006F9008952F923F924F925F926F927F929E
:103020008F929F92AF92BF92CF92DF92EF92FF92D8
:103030000F931F93CF93DF93CDB7DEB7C855D04022
:103040000FB6F894DEBF0FBECDBF182FCE01899604
:103050000E943B3ECE0145960E943B3E112309F45F
:1030600040C0E8E3F4E183E09081992309F4F6C1DC
:10307000DF0111979C91992309F4F0C18150B99611
:10308000882391F7DE015596E2EBFAE084E10190A6
:103090000D928150E1F7CE01459662E070E00E940A
:1030A000783E4C01C0908F14D0909014E090911411
:1030B000F090921482E00E94BC6B20E030E040EA85
:1030C00050E40E94A8E10E942FE0DC01CB01C81A65
:1030D000D90AEA0AFB0AF401C082D182E282F382B1
:1030E0006FC0DE015596E2EBFAE084E101900D92AB
:1030F0008150E1F7CE01CD960E94C36DDE01999615
:10310000FE01FD9684E101900D928150E1F7CE0120
:10311000899660E070E00E94783EFC01408051801A
:1031200062807380CE01899661E070E00E94783EF3
:10313000FC010081118122813381CE01899662E0F8
:1031400070E068962FAF689769963FAF69970E94C5
:10315000783EFC01C080D180E280F380CE014596AC
:1031600063E070E00E94783EFC0180809180A28044
:10317000B380CE01459664E070E00E94783E00D0B6
:1031800000D0FC0180819181A281B381EDB7FEB7AF
:1031900081839283A383B483CE010196B301A201FC
:1031A00068962FAD689769963FAD69970E943C3E3F
:1031B0000F900F900F900F90CE0101960E94366DE8
:1031C0006091851470918614809187149091881471
:1031D0002091811430918214409183145091841471
:1031E0000E94A8E10E942FE064966FAF64976596F5
:1031F0007FAF659766968FAF669767969FAF679725
:10320000CE01CD960E94C36DDE019996FE01FD961A
:1032100084E101900D928150E1F7CE01899660E042
:1032200070E00E94783EFC01C080D180E280F38093
:10323000CE01459660E070E00E94783EFC018081FE
:103240009181A281B381A7019601281B390B4A0BFA
:103250005B0BCA01B9010E9466E020912F143091E6
:10326000301440913114509132140E948DDF862E1B
:10327000172F482EB92ECE01899661E070E00E948A
:10328000783EFC01C080D180E280F380CE0145967B
:1032900061E070E00E94783EFC0180819181A28112
:1032A000B381A7019601281B390B4A0B5B0BCA019E
:1032B000B9010E9466E02091581430915914409150
:1032C0005A1450915B140E948DDF362E272E629681
:1032D0008FAF629763969FAF6397CE01899662E046
:1032E00070E00E94783EFC01C080D180E280F380D3
:1032F000CE01459662E070E00E94783EFC0180813C
:103300009181A281B381A7019601281B390B4A0B39
:103310005B0BCA01B9010E9466E0209181143091D3
:10332000821440918314509184140E948DDF062FE3
:10333000C72EF82EE92E882D912FA42DBB2DBC0170
:10334000CD01912EA42CA50194010E94A8E12B018E
:103350003C01A10162963FAD629763962FAD6397E2
:10336000852F942FA32FB22FBC01CD01852E942E33
:10337000A32EB22EA50194010E94A8E19B01AC01ED
:10338000C301B2010E9412DF4B015C019701802F43
:103390009C2DA32FB22FBC01CD01A7011C2D252FE1
:1033A000342FA90198010E94A8E19B01AC01C5013D
:1033B000B4010E9412DF0E940FE27B018C01809118
:1033C0005C08882339F18091A708882361F4CE0135
:1033D000459664E070E00E94783E6C01CE0145960F
:1033E00063E070E00BC0CE01459663E070E00E94A0
:1033F000783E6C01CE01459664E070E00E94783E14
:10340000FC0180819181A281B381F6018083918347
:10341000A283B38360918514709186148091871480
:103420009091881420E030E040E852E40E94A8E146
:103430000E942FE04B015C01CE01459664964FAD92
:10344000649765965FAD659766966FAD669767966C
:103450007FAD679720E064010E94C670C85ADF4FB5
:103460000FB6F894DEBF0FBECDBFDF91CF911F9195
:103470000F91FF90EF90DF90CF90BF90AF909F9013
:103480008F907F906F905F904F903F902F90089516
:103490001F93CF93DF93E82FF0E023E0EE0FFF1FA1
:1034A0002A95E1F7E258F74F20813181428153811B
:1034B000648175818681978197FF56C02195E1E0EF
:1034C000121608F0E0E03195F1E0131608F0F0E094
:1034D000132F1E1BE1E0311708F0E0E0FE2B4195B1
:1034E000E1E0141608F0E0E0D42FDF1B31E04D17C7
:1034F00008F030E0E32B5195F1E0151608F0F0E00C
:10350000C52FCE1B31E05C1708F030E0F32B61953E
:10351000E1E0161608F0E0E0B62FBF1B31E06B17B4
:1035200008F030E0E32B7195F1E0171608F0F0E0B9
:10353000A72FAE1B31E07A1708F030E0F32B81950E
:10354000E1E0181608F0E0E0382F3F1BF32F31E0E0
:103550008F1708F030E0E32B9195312F4D2F5C2F22
:103560006B2F7A2F8F2F9E1BDF91CF911F91089584
:103570007F928F929F92AF92BF92CF92DF92EF9203
:10358000FF920F931F93CF93DF93E82E0E94481A68
:10359000D22EC32EB42EA52E962E872E782EF92E3F
:1035A000191694F0992309F0A0C0882369F47723B1
:1035B00059F4662349F4552339F4442329F4332379
:1035C00019F4222309F491C0EE2019F4C3EBD0E0E2
:1035D00002C0C4EDD1E0CE0100E010E020E030E018
:1035E00040E050E060E070E00E947B97022F0D0DFC
:1035F00011E0021708F010E0C30E21E0C31608F036
:1036000020E01C0D31E01C1508F030E0232BB40E37
:1036100031E0B41608F030E02B0D41E02B1508F036
:1036200040E0342BA50E41E0A51608F040E03A0D2D
:1036300051E03A1508F050E0452B960E51E09616F1
:1036400008F050E0490D61E0491508F060E0562BA4
:10365000870E61E0871608F060E0580D71E058159C
:1036600008F070E0672B780E71E0781608F070E0D3
:10367000670D81E0671508F080E0782BF90E7F0D6B
:10368000CE010E940698EE2DF0E0A3E0EE0FFF1FA2
:10369000AA95E1F7DF01A259B74FE258F74F8081B1
:1036A0008C93818111968C931197828112968C93C1
:1036B0001297838113968C931397848114968C931D
:1036C0001497858115968C931597868116968C9301
:1036D0001697878117968C93179710821182128202
:1036E00013821482158216821782DF91CF911F9167
:1036F0000F91FF90EF90DF90CF90BF90AF909F9091
:103700008F907F90089580E00E94B81A81E00E9417
:10371000B81A08951F93CF93DF93E82FF0E0B3E03A
:10372000EE0FFF1FBA95E1F7E259F74F2081318183
:1037300042815381648175818681978197FF56C04C
:103740002195E1E0121608F0E0E03195F1E0131662
:1037500008F0F0E0132F1E1BE1E0311708F0E0E065
:10376000FE2B4195E1E0141608F0E0E0D42FDF1BBA
:1037700031E04D1708F030E0E32B5195F1E01516DC
:1037800008F0F0E0C52FCE1B31E05C1708F030E008
:10379000F32B6195E1E0161608F0E0E0B62FBF1BB1
:1037A00031E06B1708F030E0E32B7195F1E017166C
:1037B00008F0F0E0A72FAE1B31E07A1708F030E0F8
:1037C000F32B8195E1E0181608F0E0E0382F3F1B5D
:1037D000F32F31E08F1708F030E0E32B9195312F74
:1037E0004D2F5C2F6B2F7A2F8F2F9E1BDF91CF9148
:1037F0001F9108950F931F93CF93DF93CDB7DEB73B
:10380000A6970FB6F894DEBF0FBECDBFCE010196CE
:103810000E942CD980915C088823C9F081E09091A6
:10382000A708913009F480E064E240E050E09E0196
:103830002F5F3F4F00E010E00E949234882339F060
:10384000CE01019661E00E9414D980FF15C08091DD
:10385000A70864E240E050E09E012F5F3F4F00E088
:1038600010E00E949234882339F0CE01019661E085
:103870000E9414D991E080FF90E0892FA6960FB6A0
:10388000F894DEBF0FBECDBFDF91CF911F910F9196
:1038900008950F931F93CF93DF93CDB7DEB7A6970D
:1038A0000FB6F894DEBF0FBECDBFCE0101960E94C9
:1038B0002CD980E063E240E050E09E012F5F3F4F53
:1038C00000E010E00E949234882341F0CE0101967E
:1038D00061E00E9414D991E0882309F490E0892FD7
:1038E000A6960FB6F894DEBF0FBECDBFDF91CF9185
:1038F0001F910F91089510929708109298081092B6
:10390000990810929A0810929308109294081092B5
:103910009508109296081092AB081092AA0810927F
:10392000AD081092AC081092B0081092B1080E9435
:10393000B3400E94831B10926E0810926F08109281
:103940007008109271081092720810927308109209
:10395000740810927508E6E7F8E010927608118274
:1039600012821382148215821682178208950F9391
:103970001F93CF93DF93CDB7DEB7A6970FB6F8941A
:10398000DEBF0FBECDBFCE0101960E942CD9109292
:1039900068081092670880E060E240E050E09E0115
:1039A0002F5F3F4F00E010E00E949234882349F0DF
:1039B000CE01019661E00E9419D990936808809326
:1039C000670810926A08109269088EEA91E061E037
:1039D0000E9472978230B1F481E060E240E050E0F2
:1039E0009E012F5F3F4F00E010E00E949234882339
:1039F00049F0CE01019661E00E9419D990936A08BE
:103A00008093690810926C0810926B0880E061E264
:103A100040E050E09E012F5F3F4F00E010E00E9429
:103A20009234CE01019661E00E9419D990936C08FE
:103A300080936B08A6960FB6F894DEBF0FBECDBF7D
:103A4000DF91CF911F910F9108950F931F93CF9303
:103A5000DF93CDB7DEB7A6970FB6F894DEBF0FBEE3
:103A6000CDBFCE0101960E942CD980E063E041E0F9
:103A700050E09E012F5F3F4F00E010E00E94923423
:103A80008EEA91E061E00E947297823049F481E011
:103A900063E041E050E09E012F5F3F4F0E9492346F
:103AA00080E06FE141E050E09E012F5F3F4F00E07A
:103AB00010E00E949234A6960FB6F894DEBF0FBEB7
:103AC000CDBFDF91CF911F910F9108950F931F9359
:103AD000CF93DF93CDB7DEB7A6970FB6F894DEBFCE
:103AE0000FBECDBFCE0101960E942CD90091670870
:103AF00010916808101611064CF480E063E041E074
:103B000050E09E012F5F3F4F0E9492348EEA91E079
:103B100061E00E947297823081F4009169081091EF
:103B20006A08101611064CF481E063E041E050E0B1
:103B30009E012F5F3F4F0E94923400916B081091BD
:103B40006C08101611064CF480E06FE141E050E083
:103B50009E012F5F3F4F0E949234A6960FB6F894B5
:103B6000DEBF0FBECDBFDF91CF911F910F910895A2
:103B70000F931F93CF93DF93CDB7DEB7A6970FB602
:103B8000F894DEBF0FBECDBFCE0101960E942CD9A6
:103B9000809167089091680818161906A4F480E0CF
:103BA00066E140E050E09E012F5F3F4F00E010E0F3
:103BB0000E949234882339F0CE01019661E00E9480
:103BC00014D98823F1F18EEA91E061E00E947297A6
:103BD0008230D9F48091690890916A081816190604
:103BE000A4F481E066E140E050E09E012F5F3F4F8A
:103BF00000E010E00E949234882339F0CE01019653
:103C000061E00E9414D98823E1F080916B089091C3
:103C10006C0818161906BCF480E063E240E050E03E
:103C20009E012F5F3F4F00E010E00E9492348823F6
:103C300051F0CE01019661E00E9414D991E08823F1
:103C400019F490E001C091E0892FA6960FB6F89480
:103C5000DEBF0FBECDBFDF91CF911F910F910895B1
:103C60000F931F93CF93DF93CDB7DEB7EA970FB6CD
:103C7000F894DEBF0FBECDBFCE0101960E942CD9B5
:103C80008091A1089091A2088534910509F494C00F
:103C900086349105C4F48234910509F43FC083341D
:103CA000910544F48034910559F18134910509F06E
:103CB000D7C029C08334910509F443C084349105E9
:103CC00009F0CEC049C08238910509F4A1C08338FB
:103CD00091054CF48038910509F479C0813891053B
:103CE00009F0BEC08CC08438910509F4A1C08438A5
:103CF00091050CF493C08538910509F0B1C09EC0C0
:103D000081E490E0A9C08091BD0B9091BC0B891B10
:103D10008F7009F0A5C082E490E09EC0CE01879626
:103D20000E94C36DA2EBBAE0FE01B79684E1019058
:103D30000D928150E1F781E00E94141783E490E036
:103D40008BC08091BD0B9091BC0B891B8F7009F0CB
:103D500087C084E490E080C081E00E940A1885E476
:103D600090E09093A2088093A1080E94EA388530E1
:103D7000910529F00E94EA388430910511F411E090
:103D800001C010E080916608882311F00E94B71CE2
:103D9000112331F480916608882311F00E94251DBB
:103DA00080E06CE041E050E09E012F5F3F4F00E07B
:103DB00010E00E94923454C08091BD0B9091BC0BD6
:103DC000891B8F7009F04CC081E090E045C0809164
:103DD0006608882311F00E94661D8091660888237A
:103DE00059F080E06CE041E050E09E012F5F3F4FD2
:103DF00001E010E00E94923481E890E02DC08091B3
:103E00006608882339F10E94B81D882349F122C031
:103E100080E00E940A1883E890E01EC08091BD0BEC
:103E20009091BC0B891B8F70D9F484E890E014C08A
:103E300080E00E94141785E890E00EC08091BD0BD1
:103E40009091BC0B891B8F7059F41092A2081092AC
:103E5000A10806C082E890E09093A2088093A10890
:103E6000EA960FB6F894DEBF0FBECDBFDF91CF91BB
:103E70001F910F9108952F923F924F925F926F92F0
:103E80007F928F929F92AF92BF92CF92DF92EF92EA
:103E9000FF920F931F93CF93DF93CDB7DEB7CC5430
:103EA000D0400FB6F894DEBF0FBECDBF80919B0807
:103EB00090919C08019690939C0880939B082FE01A
:103EC000803A920708F499C210929C0810929B08BD
:103ED000CE01429665E378E10E94C08ECE01429603
:103EE0000E9495D8882309F088C2CE0142960E948C
:103EF00090D82D969FAF8EAF2D978430910509F005
:103F000047C2409193085091940860919508709130
:103F100096088091970890919808A0919908B0917F
:103F20009A0880509543AC40B040481759076A073B
:103F30007B0708F062C22CC2CE01839661E00E942A
:103F400019D97C0180E060E240E050E09E012D5DE7
:103F50003F4F00E010E00E949234882339F0CE01F8
:103F6000839661E00E9419D91C0102C022243324E7
:103F700080E06EE140E050E09E012D5D3F4F00E0AB
:103F800010E00E949234882339F0CE01839661E0DC
:103F90000E9419D92C0102C04424552480E061E21A
:103FA00040E050E09E012D5D3F4F00E010E00E9498
:103FB0009234882351F0CE01839661E00E9419D992
:103FC0002B969FAF8EAF2B9704C02B961FAE1EAEC5
:103FD0002B97B70180E090E021143104C9F50E94CD
:103FE00064E020E030E040E452E40E9411DF20E091
:103FF00030E040E453E40E948DDF20E030E048EC04
:1040000052E40E94A8E14B016C01862F992DAC2D42
:10401000BD2DBC01CD0120E030E048EC52E40E940F
:10402000A4E1181634F488249924F8ECCF2EA2E4E5
:10403000DA2E882D992DAC2DBD2DBC01CD0120E0AF
:1040400030E040E050E00E9489DF87FD5BC06AC03D
:104050000E9464E020E030E040E951E40E9411DF7A
:104060006B017C01B10180E090E00E9464E020E0FF
:1040700030E040E951E40E9411DF9B01AC01C7012F
:10408000B6010E948DDF20E030E048EC52E40E944F
:10409000A8E14B016C01862F992DAC2DBD2DBC01E3
:1040A000CD0120E030E048EC52E40E94A4E1181673
:1040B00034F48824992478ECC72EE2E4DE2E882D8F
:1040C000992DAC2DBD2DBC01CD0120E030E040E0AC
:1040D00050E00E9489DF87FF04C088249924CC2403
:1040E000DD24AA20A1F4882D992DAC2DBD2DBC0175
:1040F000CD0120E030E048EC52E40E94A4E187FFCB
:104100000BC010C088249924CC24DD240BC0882443
:10411000992468ECC62E04C08824992456ECC52E38
:1041200042E4D42EB20180E090E02B962EAD3FAD5C
:104130002B9721153105B9F50E9464E020E030E0AD
:1041400040E452E40E9411DF20E030E040E952E414
:104150000E948DDF20E030E048EC52E40E94A8E1AC
:104160007B018C01862F9F2DA02FB12FBC01CD018B
:1041700020E030E048EC52E40E94A4E1181624F458
:10418000EE24FF2408EC12E48E2D9F2DA02FB12FDA
:10419000BC01CD0120E030E040E050E00E9489DF2A
:1041A00087FD5DC069C00E9464E020E030E040E926
:1041B00051E40E9411DF2B013C012B962EAD3FAD47
:1041C0002B97B90180E090E00E9464E020E030E0AD
:1041D00040E951E40E9411DF9B01AC01C301B2012F
:1041E0000E948DDF20E030E048EC52E40E94A8E11C
:1041F0007B018C01862F9F2DA02FB12FBC01CD01FB
:1042000020E030E048EC52E40E94A4E1181624F4C7
:10421000EE24FF2408EC12E48E2D9F2DA02FB12F49
:10422000BC01CD0120E030E040E050E00E9489DF99
:1042300087FF04C0EE24FF2400E010E0BB20A1F4BF
:104240008E2D9F2DA02FB12FBC01CD0120E030E09D
:1042500048EC52E40E94A4E187FF0AC00DC0EE249E
:10426000FF2400E010E008C0EE24FF2408EC03C0A7
:10427000EE24FF2406EC12E4582D492D3C2D2D2D63
:104280002114310409F09FC02B968EAD9FAD2B9762
:10429000009709F098C0882D992DAC2DBD2DBC013B
:1042A000CD0120E030E040E050E00E9489DF1816A8
:1042B0004CF536C08E2D9F2DA02FB12FBC01CD0106
:1042C00020E030E048EC52E40E94A4E187FD89C080
:1042D00040919308509194086091950870919608C8
:1042E0008091970890919808A0919908B0919A08A8
:1042F00080509543AC40B040481759076A077B0788
:10430000F0F46FC08E2D9F2DA02FB12FBC01CD01D9
:1043100020E030E040E050E00E9489DF18165CF4B5
:104320002D962EAD3FAD2D972130310521F033E094
:10433000A32EB12C07C021E0A22EB12C03C094E023
:10434000A92EB12C882D992DAC2DBD2DBC01CD01F0
:104350004E2C5F2C602E712EA30192010E94A4E1CD
:1043600087FD02C074018601CE01019665E378E104
:104370000E94C08ECE010196B501502F412F0E2D07
:104380001F2D252F342FA90198010E9443D835C035
:104390000E94FA1BA82E0E94491CB82ECE018396BB
:1043A0000E942CD980E062E040E050E09E012D5D4B
:1043B0003F4F00E010E00E949234882309F0BCCD0A
:1043C000EE24FF24BFCD852F942FA32FB22FBC0145
:1043D000CD0120E030E048EC52E40E94A4E187FFE8
:1043E00069CF2D968EAD9FAD2D978430910509F440
:1043F000A6CF82E0A82EB12CA5CFC45BDF4F0FB6AD
:10440000F894DEBF0FBECDBFDF91CF911F910F910A
:10441000FF90EF90DF90CF90BF90AF909F908F90E4
:104420007F906F905F904F903F902F900895CF9323
:10443000DF93FC0182819381009721F481E08187E1
:1044400080E019C08481958120813181B9010E9469
:104450007FE2C681D781C80FD91F848195810196DB
:10446000B9010E947FE295838483828193810197C1
:10447000938382838881DF91CF910895EF92FF9299
:104480001F93CF93DF9300D0CDB7DEB7B8EAEB2E02
:10449000B8E0FB2EC7010E941722682FC7016A836C
:1044A0000E941722782FC70179830E941722182FA4
:1044B000C7010E941722982F6A817981812F0F905E
:1044C0000F90DF91CF911F91FF90EF9008951F9370
:1044D000CF93DF93C8EAD8E0CE010E941722182FAD
:1044E000CE010E941722982F812FDF91CF911F912B
:1044F000089588EA98E00E9417220895CF92DF92EB
:10450000EF92FF920F931F93CF93DF93E82EC62F66
:104510000E948E77882309F408C10E948B776C0172
:104520000E9434D98091AC089091AD0801966091B9
:10453000A8087091A9080E947FE2E091AE08F0916E
:10454000AF08E80FF91FD081CF3F09F0DC2FC6017B
:104550006D2F0E947AD98091AC089091AD08029697
:104560006091A8087091A9080E947FE2E091AE08CE
:10457000F091AF08E80FF91FC081C6016C2F0E94AF
:104580007AD98091AC089091AD0803966091A80803
:104590007091A9080E947FE2E091AE08F091AF0807
:1045A000E80FF91FF080EE2099F08091A308909118
:1045B000A408A091A508B091A6080196A11DB11D5F
:1045C0008093A3089093A408A093A508B093A6088D
:1045D0008C2F8A50823080F0C43071F0C53061F089
:1045E000C83051F0C93041F0C63031F0C73021F049
:1045F000CE3011F0CF3089F4EE2029F492C00E9421
:1046000079220F5F04C000E0CF2DD0E02496802FE8
:1046100090E08C179D0798F384C0C33009F08FC0D9
:104620000E94D63F8823B9F48091AC089091AD08E0
:1046300004966091A8087091A9080E947FE2E09119
:10464000AE08F091AF08E80FF91F808191810097C3
:1046500011F40E94831B8091AC089091AD080496E0
:104660006091A8087091A9080E947FE20091AE08AD
:104670001091AF08080F191FF801808191810097F0
:1046800009F185EC90E060E00E9472978823D1F0F8
:10469000C33019F0CF3189F409C0DD2319F480E863
:1046A00090E002C081E890E06CED03C082E890E009
:1046B0006EE60E94729790E002C080E090E0F80100
:1046C00091838083C0E0D0E018C08091AC089091C5
:1046D000AD0804968C0F9D1F6091A8087091A908E1
:1046E0000E947FE2E091AE08F091AF08E80FF91F59
:1046F000C60160810E947AD92196CF1530F30E94BD
:10470000A177EE2029F40DC00E9479220F5F04C02A
:1047100000E0CF2DD0E02496802F90E08C179D07ED
:1047200098F30E949E7781E001C080E0DF91CF91F5
:104730001F910F91FF90EF90DF90CF900895CF31B0
:1047400009F689CF2F923F924F925F926F927F929C
:104750008F929F92AF92BF92CF92DF92EF92FF9291
:104760000F931F93CF93DF93CDB7DEB7C95FD040D0
:104770000FB6F894DEBF0FBECDBF80919708909121
:104780009808A0919908B0919A080196A11DB11DB1
:104790008093970890939808A0939908B0939A08EB
:1047A0000E943B1F0E94D63F882309F553C02091E9
:1047B000AA083091AB088091AC089091AD08820FA7
:1047C000931F0E947FE2E091AE08F091AF08E80FDE
:1047D000F91F40838091AA089091AB0801969093AD
:1047E000AB088093AA0804C01093B00801C011E080
:1047F0008091AA089091AB082091A8083091A9084F
:104800002817390739F10E943E40882319F1809119
:104810009D0890919E08A0919F08B091A0080196D4
:10482000A11DB11D80939D0890939E08A0939F08A1
:10483000B093A0080E944140482F8091AA0890910F
:10484000AB086091A8087091A9088617970708F42B
:10485000AECFCACF80918F0890919008A091910817
:10486000B09192080097A105B10529F180918E08B9
:10487000882309F5CE0189549F4F0E94C36DCE0154
:1048800089549F4F62E070E00E94703E40918F0813
:10489000509190086091910870919208FC0180817C
:1048A0009181A281B38184179507A607B7071CF4ED
:1048B00081E080938E0880918F0890919008A0915C
:1048C0009108B09192080097A105B10511F40C94DC
:1048D0000F3280918E08882311F40C940F320E94BD
:1048E0001C15882311F00C940F32CE018D559F4F6B
:1048F0000E94C36DCE018D559F4F62E070E00E9413
:10490000703E40918F08509190086091910870918D
:104910009208FC0180819181A281B381841795075F
:10492000A607B70714F40C940F3260E070E080E043
:1049300090E00E94421581E00E9408398AE890E0E8
:1049400063E00E947297282F85E398E164E043E0DA
:104950000E940E900C9439320E94301E0C94393211
:104960008130910511F40C94393280915A0890915C
:104970005B088330910581F40E94676C882341F0C5
:104980008CE398E00E9473DB882331F00E94CA73A5
:1049900010925B0810925A0880915A0890915B0817
:1049A0008130910541F40E94676C882321F41092B4
:1049B0005B0810925A0880915A0890915B088230E7
:1049C000910551F48BE498E00E9473DB882321F079
:1049D00010925B0810925A0880915A0890915B08D7
:1049E0008430910571F48DE298E00E9473DB882396
:1049F00021F40E94FA1B882321F010925B08109288
:104A00005A0880915A0890915B088530910571F49D
:104A10008DE298E00E9473DB882321F40E94491CF8
:104A2000882321F010925B0810925A0880915A084E
:104A300090915B088630910511F58EE198E00E9417
:104A400073DB882351F080911B0881FF14C085E33C
:104A500098E160E00E942A8F12C086E199E10E94ED
:104A6000C79A882361F080911B0882FF04C086E109
:104A700099E10E94E99A10925B0810925A0880917D
:104A80005A0890915B08009711F00C94F2318091D4
:104A9000AA089091AB08009711F40C94F231809120
:104AA000AC089091AD086091A8087091A9080E9487
:104AB0007FE2E091AE08F091AF08E80FF91F108196
:104AC0001B38A1F11E3811F40C941E321B3911F45D
:104AD0000C942732193811F40C941A32163811F448
:104AE0000C9430321C3811F40C941A321C3911F425
:104AF0000C941A32103911F40C941A32133811F440
:104B00000C941A32143811F40C941A32183811F427
:104B10000C941A32143911F40C941A320E947B55F9
:104B2000882311F00C941A320C9439328091AA081F
:104B30009091AB088931910510F40C94F2310E94E8
:104B4000792281E090E090935B0880935A080E945C
:104B50003E22C553DF4F688379838A839B83CB5C76
:104B6000D0400E943E22C153DF4F688379838A83FD
:104B70009B83CF5CD0400E943E22CD52DF4F6883A2
:104B800079838A839B83C35DD0400E943E224B0180
:104B90005C010E943E226B017C010E943E22C952B0
:104BA000DF4F688379838A839B83C75DD040809180
:104BB0005C08882349F08091A708882319F47501BF
:104BC000640102C0460157018091C60A9091C70A4C
:104BD000A091C80AB091C90AA5019401281B390BFC
:104BE0004A0B5B0BDA01C901192FFA2FEB2FBB0F10
:104BF000880B982FDC01782F682F582F90917E0812
:104C000030917F0840908008509081086090820821
:104C10007090830800918408B0918508920F41E05C
:104C2000921708F040E0310F21E0311708F020E042
:104C3000430FA1E0431708F0A0E02A2B4F0E31E00C
:104C40004F1608F030E0240DF1E0241508F0F0E0F4
:104C50003F2B5E0EF1E05E1608F0F0E0A32FA50DED
:104C600031E0A51508F030E0F32B670EE1E06716A0
:104C700008F0E0E0F60D31E0F61508F030E0E32B47
:104C8000760E31E0761608F030E0E70D61E0E715CA
:104C900008F060E0362B050F61E0051708F060E0D2
:104CA000300F51E0301708F050E0562B8B0F580FA3
:104CB00090937E0840937F0820938008A0938108FA
:104CC000F0938208E093830830938408509385081A
:104CD0008091CA0A9091CB0AA091CC0AB091CD0ADA
:104CE000A7019601281B390B4A0B5B0BDA01C9019E
:104CF000192FFA2FEB2FBB0F880B982FDC01782F81
:104D0000682F582F90918608309187084090880826
:104D10005090890860908A0870908B0800918C08E8
:104D2000B0918D08920F41E0921708F040E0310FEA
:104D300021E0311708F020E0430FA1E0431708F00D
:104D4000A0E02A2B4F0E31E04F1608F030E0240D82
:104D5000F1E0241508F0F0E03F2B5E0EF1E05E1666
:104D600008F0F0E0A32FA50D31E0A51508F030E024
:104D7000F32B670EE1E0671608F0E0E0F60D31E096
:104D8000F61508F030E0E32B760E31E0761608F0E9
:104D900030E0E70D61E0E71508F060E0362B050F25
:104DA00061E0051708F060E0300F51E0301708F0BF
:104DB00050E0562B8B0F580F90938608409387082E
:104DC00020938808A0938908F0938A08E0938B08C1
:104DD00030938C0850938D088092C60A9092C70A2F
:104DE000A092C80AB092C90AC092CA0AD092CB0A4D
:104DF000E092CC0AF092CD0A8091A3089091A40889
:104E0000A091A508B091A6080196A11DB11D80939F
:104E1000A3089093A408A093A508B093A60800D077
:104E200000D0ADB7BEB71196CD92DD92ED92FC9257
:104E30001497CE018D5A9F4FC553DF4F488159813A
:104E40006A817B81CB5CD040C153DF4F08811981DF
:104E50002A813B81CF5CD040CD52DF4FC880D980C2
:104E6000EA80FB80C35DD0400E943C3E0F900F90D3
:104E70000F900F90CE018D5A9F4FC952DF4F48813E
:104E800059816A817B81C75DD0400E94FC6E0C9481
:104E9000F2310E94792281E090E090935B08809348
:104EA0005A080E943E22C952DF4F688379838A8361
:104EB0009B83C75DD0400E943E22C352DF4F688370
:104EC00079838A839B83CD5DD0400E943E22CF515F
:104ED000DF4F688379838A839B83C15ED0400E94C1
:104EE0003E224B015C010E943E22062FD72E682EE7
:104EF000592E0E943E22CB51DF4F688379838A83EB
:104F00009B83C55ED0400E947922782E80915C08F8
:104F10008823D9F08091A708882339F4BFEE7B223B
:104F200073FE0AC0E0E17E2A07C0F7EF7F2274FE1D
:104F300008C028E0722A05C0082DD92C6A2C5B2CE9
:104F400004C0802E9D2CA62CB52C8D829E82AF8213
:104F5000B8860987DA866B865C86EEE7F8E0AE01F4
:104F60004B5F5F4FC153DF4F59834883CF5CD040C5
:104F700086EC9AE0C553DF4F99838883CB5CD040A1
:104F8000A3E0B0E0CD52DF4FB983A883C35DD0402A
:104F9000272D30E0C552DF4F39832883CB5DD040C9
:104FA000C151DF4F7882CF5ED040C051DF4F888241
:104FB000C05FD040CF50DF4F9882C15FD040CD500E
:104FC000DF4FA882C35FD0402B2C302E4D2CCC500D
:104FD000DF4F6882C45FD040C552DF4F888199811E
:104FE000CB5DD040CD52DF4F0880C35DD04002C0C2
:104FF000959587950A94E2F7C153DF4FA881B9814F
:10500000CF5CD04080FF7DC04D915D916D917C91D2
:10501000152FD62EC72EDB01CA01BB0F880B982F88
:10502000DC01B82EA82E982E782E8081E180028196
:10503000B381A481358126818780982F940FFF2426
:10504000F394981708F0FF241E0D81E01E1508F058
:1050500080E0F10EEE24E394F11608F0EE248E29A0
:10506000D00E11E0D01608F010E08D0D01E08D1586
:1050700008F000E0102BCB0E01E0CB1608F000E0AA
:105080001C0DB1E01C1508F0B0E00B2BBA0EB1E01E
:10509000BA1608F0B0E00B0DA1E00B1508F0A0E087
:1050A000BA2BA30EA1E0A31608F0A0E0BA0D31E0E0
:1050B000BA1508F030E0A32B920E31E0921608F0FA
:1050C00030E0A90D21E0A91508F020E0322B870C73
:1050D000380D9083F182828313830483B583A68382
:1050E0003783C553DF4FA881B981CB5CD0400D9188
:1050F0001D912D913C911397040F151F261F371FEB
:1051000097C00D911D912D913C91C553DF4FA88102
:10511000B981CB5CD0404D915D916D917C91D9016D
:10512000C801841B950BA60BB70BAC01BD01C52EA6
:10513000B62EA72EBB0F880B982FDC01982E882E39
:10514000782EC751DF4F8883C95ED040D080E18080
:10515000F280B381A481958186816780C351DF4F3E
:105160006882CD5ED0404D0D51E04D1508F050E005
:10517000CE0C61E0CE1408F060E05C0D71E05C15CF
:1051800008F070E0672BBF0C71E0BF1408F070E00E
:105190006B0DFF24F3946B1508F0FF247F29AB0EF1
:1051A000FF24F394AB1608F0FF247A0DB1E07A15D2
:1051B00008F0B0E0FB2A9A0EB1E09A1608F0B0E0D1
:1051C000F90CA1E0F91408F0A0E0BA2B890EA1E0D7
:1051D000891608F0A0E0B80D91E0B81508F090E04D
:1051E000A92B982F970DEE24E394981708F0EE243E
:1051F000A90F81E0A91708F080E0E82AC351DF4F2A
:105200008881CD5ED040C751DF4F7880C95ED040E5
:10521000870DE80E4083518362837383F482B583E4
:10522000A683E782C553DF4FA881B981CB5CD0400C
:105230000D931D932D933C931397CD52DF4F2881EF
:105240003981C35DD0402F5F3F4FCD52DF4F39834F
:105250002883C35DD0403896C153DF4F48815981C0
:10526000CF5CD0404C5F5F4FC153DF4F59834883C1
:10527000CF5CD040C553DF4F88819981CB5CD04053
:105280000496C553DF4F99838883CB5CD04025308B
:10529000310509F0A1CEC151DF4F7880CF5ED040FB
:1052A000C051DF4F8880C05FD040CF50DF4F988023
:1052B000C15FD040CD50DF4FA880C35FD040B22C3B
:1052C000CC50DF4F6880C45FD0408091A30890919C
:1052D000A408A091A508B091A6080196A11DB11D32
:1052E0008093A3089093A408A093A508B093A60860
:1052F00000D000D0EDB7FEB73196ADB7BEB711966E
:105300003C92418262825382CE01CF96C952DF4FD6
:10531000488159816A817B81C75DD040C352DF4F8C
:10532000088119812A813B81CD5DD040CF51DF4F6B
:10533000C880D980EA80FB80C15ED0400E943C3E9C
:105340000F900F900F900F90CE01CF96CB51DF4F63
:10535000488159816A817B81C55ED040272D0E949A
:10536000C86F0C94F2310E94792281E090E0909312
:105370005B0880935A080E943E22C952DF4F68831F
:1053800079838A839B83C75DD0400E943E22C352AB
:10539000DF4F688379838A839B83CD5DD0400E94F1
:1053A0003E22CF51DF4F688379838A839B83C15E1E
:1053B000D0400E943E224B015C010E943E22062FFB
:1053C000672E582E492E0E943E22CB51DF4F688314
:1053D00079838A839B83C55ED0400E947922782E90
:1053E0000E943E22C751DF4F688379838A839B8363
:1053F000C95ED0400E946722C351DF4F99838883E2
:10540000CD5ED04080915C088823D9F08091A708B8
:10541000882339F4BFEE7B2273FE0AC0E0E17E2AC6
:1054200007C0F7EF7F2274FE08C028E0722A05C08B
:10543000082D692C5A2C4B2C04C0802E962CA52CA0
:10544000B42C8D829E82AF82B88609876A865B867D
:105450004C86EEE7F8E0AE014B5F5F4FCD52DF4F79
:1054600059834883C35DD04086EC9AE0C553DF4F33
:1054700099838883CB5CD040A3E0B0E0C153DF4F79
:10548000B983A883CF5CD040272D30E0CF50DF4FC9
:1054900039832883C15FD040CD50DF4F7882C35F0E
:1054A000D040CC50DF4F8882C45FD040CB50DF4F1C
:1054B0009882C55FD0401501C750DF4F0883C95F90
:1054C000D040CF50DF4F88819981C15FD040C15318
:1054D000DF4F0880CF5CD04002C0959587950A9435
:1054E000E2F7CD52DF4FA881B981C35DD04080FF84
:1054F00083C04D915D916D917C91152FD62EC72E55
:10550000DB01CA01BB0F880B982FDC01B82EA82E37
:10551000982E782E8081E1800281B381A48135812B
:1055200026818780982F940FFF24F394981708F012
:10553000FF241E0D81E01E1508F080E0F10EEE2420
:10554000E394F11608F0EE248E29D00E11E0D01667
:1055500008F010E08D0D01E08D1508F000E0102B33
:10556000CB0E01E0CB1608F000E01C0DB1E01C15DD
:1055700008F0B0E00B2BBA0EB1E0BA1608F0B0E0BC
:105580000B0DA1E00B1508F0A0E0BA2BA30EA1E0D3
:10559000A31608F0A0E0BA0D31E0BA1508F030E02B
:1055A000A32B920E31E0921608F030E0A90D21E015
:1055B000A91508F020E0322B272D280D320F9083FB
:1055C000F182828313830483B583A6833783C55313
:1055D000DF4FA881B981CB5CD0400D911D912D91F9
:1055E0003C911397040F151F261F371F0D931D9312
:1055F0002D933C931397A1C0CD90DD90ED90FC903E
:10560000C553DF4FA881B981CB5CD0404D915D91EE
:105610006D917C91D701C601841B950BA60BB70B2E
:10562000AC01BD01052FB62EA72EBB0F880B982FFE
:10563000DC01982E882EC552DF4F8883CB5DD04089
:10564000C151DF4F8883CF5ED0401081B181A281EC
:1056500033812481958186817780C051DF4F7882A4
:10566000C05FD040410F51E0411708F050E00B0FF0
:1056700061E00B1708F060E0500F71E0501708F080
:1056800070E0672BBA0E71E0BA1608F070E06B0D8F
:10569000A1E06B1508F0A0E07A2BA30EA1E0A31601
:1056A00008F0A0E07A0D31E07A1508F030E0A32B85
:1056B000920E31E0921608F030E0A90D21E0A91514
:1056C00008F020E0322B890E21E0891608F020E056
:1056D000380D91E0381508F090E0292BC552DF4FC6
:1056E0009881CB5DD040980FB1E0981708F0B0E0FA
:1056F000290F81E0291708F080E0B82BC051DF4F57
:105700008881C05FD040C151DF4F9881CF5ED040CB
:10571000890FB80F4083518362837383A4833583D9
:105720002683B783C553DF4FA881B981CB5CD040B6
:10573000CD92DD92ED92FC921397C153DF4F2881F9
:105740003981CF5CD0402F5F3F4FC153DF4F39834A
:105750002883CF5CD0403896CD52DF4F48815981A5
:10576000C35DD0404C5F5F4FCD52DF4F59834883BC
:10577000C35DD040C553DF4F88819981CB5CD04059
:105780000496C553DF4F99838883CB5CD040253086
:10579000310509F096CECC50DF4F8880C45FD040F1
:1057A000CB50DF4F9880C55FD0405101C750DF4FCD
:1057B0000881C95FD040CD50DF4F7880C35FD040B3
:1057C0008091A3089091A408A091A508B091A60883
:1057D0000196A11DB11D8093A3089093A408A093E6
:1057E000A508B093A60800D000D0EDB7FEB731965B
:1057F000ADB7BEB711960C93618252824382CE013F
:105800008B96C952DF4F488159816A817B81C75D80
:10581000D040C352DF4F088119812A813B81CD5D81
:10582000D040CF51DF4FC880D980EA80FB80C15E75
:10583000D0400E943C3E0F900F900F900F90CE01F1
:105840008B96CB51DF4F488159816A817B81C55E40
:10585000D040272DC751DF4FE880F9800A811B8196
:10586000C95ED040C351DF4FC880D980CD5ED040E3
:105870000E94C670B7C50E9479220E947922809347
:10588000A7084091A3085091A4086091A5087091C1
:10589000A6084F5F5F4F6F4F7F4F4093A308509311
:1058A000A4086093A5087093A6080E94FE728091D8
:1058B000A7080E94377A96C580919708909198081A
:1058C000A0919908B0919A088093930890939408B6
:1058D000A0939508B09396088091AA089091AB0880
:1058E0008230910508F47EC50E9479220E947922B7
:1058F0004091A3085091A4086091A5087091A60852
:105900004F5F5F4F6F4F7F4F4093A3085093A408A2
:105910006093A5087093A60890915C08992361F0A4
:105920009091A708992329F48F7E83FF05C0806199
:1059300003C0877F84FD8860F82EFF1CFF24FF1CB6
:10594000CC24DD24082F10E0C8010C2C02C0959552
:1059500087950A94E2F780FF04C08C2D6F2D0E947A
:10596000E5720894C11CD11CB5E0CB16D10461F7D7
:1059700039C51C3809F076C08091AA089091AB080F
:105980008531910508F42EC50E9479220E943E229D
:105990002B013C010E943E22C553DF4F688379836F
:1059A0008A839B83CB5CD0400E943E226B017C01AA
:1059B0000E943E224B015C010E943E229B014091CD
:1059C0005C08442349F04091A708442319F494014A
:1059D000C50102C04B015C018092C60A9092C70AC1
:1059E000A092C80AB092C90AEAECFAE02093CA0A67
:1059F0003183828393834091A3085091A4086091DE
:105A0000A5087091A6084F5F5F4F6F4F7F4F40937F
:105A1000A3085093A4086093A5087093A60800D02B
:105A200000D0EDB7FEB73196ADB7BEB711962C9347
:105A3000318382839383CE0181579F4FB301A201AB
:105A4000C553DF4F088119812A813B81CB5CD0404F
:105A50000E943C3E0F900F900F900F90CE01815707
:105A60009F4F6CC21538A1F58091AA089091AB08A0
:105A70008530910508F4B6C482E090E090935B080D
:105A800080935A080E9479220E943E22AB01BC01F9
:105A90008091A3089091A408A091A508B091A608B0
:105AA0000196A11DB11D8093A3089093A408A09313
:105AB000A508B093A608CB01BA0128EE33E040E078
:105AC00050E00E9454E2AB01BC018BE498E048C175
:105AD000143909F03EC08091AA089091AB08853036
