:100000000C94F70B0C94300C0C94300C0C94300CBA
:100010000C94300C0C94B53E0C94300C0C94300CB9
:100020000C94300C0C94300C0C94300C0C94300C60
:100030000C94300C0C94F3720C94300C0C94300C27
:100040000C94300C0C94016F0C94300C0C94300C0C
:100050000C94300C0C94300C0C94300C0C94300C30
:100060000C94300C0C94F6E40C94300C0C9422E5B7
:100070000C94300C0C94300C0C94300C0C94300C10
:100080000C942B6F0C94300C0C94300C0C94300CA2
:100090000C945BE50C94300C0C9493E50C94300CB0
:1000A0000C94300C0C94300C0C94300C0C94300CE0
:1000B0000C94300C0C94300C0C94300C0C94300CD0
:1000C0000C94300C0C94300C0C94300C0C94300CC0
:1000D0000C94300C0C94300C0C94300C0C94300CB0
:1000E0000C94300CCE3B043C073C023C113C263DBA
:1000F000263D023C553C263D5F3C643C7F3CAB3C8E
:100100001B3C243C2B3C023C503C263DE83B163C2F
:10011000E73C263D263DFE3C458748874B874E877A
:100120005187548757875A875D87608763876687BB
:1001300069876C876F877287758778877B877E87EB
:10014000838730893389368939893C893F89428957
:10015000458948894B894E895189548957895A89DB
:100160005D8960896389668969896C896F8972890B
:1001700075897889C3B9C5B9C8B9CBB9D5B9D8B962
:10018000DBB9DEB9E1B9E4B9E7B9EAB9EDB9F0B97B
:10019000F3B9F6B9F9B9FCB9FFB902BA05BA5468AE
:1001A000696E672D4F2D4D61746963006F766572BE
:1001B000666C6F7700204A65747479204669726DA9
:1001C00077617265200020202D2D2D2D2D2D2D2DB8
:1001D0002D2D2D2D2D2000205468696E672031357E
:1001E00033383020332E3500205265766973696FBD
:1001F0006E3A205F5F5F5F2000582F59204469727C
:10020000656374696F6E3A004D6F64656C20566962
:10021000657700557365722056696577004A6F6788
:10022000206D6F64653A20002E316D6D00316D6D6B
:1002300000436F6E742E2E00202059202020202095
:100240002020202020205A2B00202020592B202045
:10025000202020202020205A2B00582056205820D3
:1002600020202020286D6F64652900582D205620FD
:1002700020582B2020286D6F6465290020205920EC
:10028000202020202020202020205A2D0020202047
:10029000592D2020202020202020205A2D00457874
:1002A00074727564653A200028736574206D6D2F33
:1002B000732920202046776400202873746F7029EA
:1002C000202020202864757229002D2D2D2F2D2D02
:1002D0002D43202020202052657600202020202041
:1002E0002020005345435300546F6F6C3020746FCF
:1002F0006F20636F6C64210043616E63656C004F17
:1003000076657272696465004D6F6F64204C696731
:100310006874206E6F740070726573656E7421214D
:1003200000536565205468696E6769766572736508
:10033000002020207468696E673A31353334370005
:100340004D6F6F643A200055702F446E2F456E74C8
:1003500020746F205365740020202020202020204E
:10036000202000287365742052474229005265649A
:100370003A00477265656E3A00426C75653A005501
:10038000702F446E2F456E7420746F205365740077
:10039000457374696D6174696E673A202020302559
:1003A000002020202020202020202028736B69702E
:1003B00029004475726174696F6E3A20203068308C
:1003C000306D00436F6D706C657465643A20202059
:1003D00030252000546F6F6C2020202D2D2D2F2DC7
:1003E0002D2D0100426564202020202D2D2D2F2D44
:1003F0002D2D0100456C61707365643A202020301A
:100400006830306D0054696D654C6566743A202023
:10041000306830306D0073656373002020206E6F8C
:100420006E65005A506F733A202020202020202033
:10043000202020006D6D0046696C616D656E743A18
:10044000302E30306D202000436F70793A2020200C
:10045000202020202020202000206F6620004163E3
:10046000633A202020202020202020202020004D22
:100470006F74686572626F6172643A205F2E5F000C
:1004800020202045787472756465723A205F2E5F73
:10049000002020205265766973696F6E3A5F5F5F56
:1004A00000467265655372616D3A2000506C65615B
:1004B00073652043686F6F73653A0041626F7274B1
:1004C000205072696E74202020005072696E742072
:1004D000416E6F7468657200506175736520617458
:1004E000205A506F732000506175736520202020C2
:1004F0002020202020005061757365204E6F204819
:100500006561742000436F6E74696E756520427575
:10051000696C64004D6F6E69746F72004275696C2E
:10052000642066726F6D205344004A6F67005072FA
:100530006568656174004578747275646500486F1C
:100540006D65204178697300416476616E63652052
:10055000414250005374657070657273004D6F6F47
:1005600064204C696768740042757A7A657200424B
:1005700075696C642053657474696E67730050729A
:100580006F66696C65730045787472756465722076
:1005900046616E0043616C69627261746500486F08
:1005A0006D65204F6666736574730046696C616D96
:1005B000656E74205573656400506F736974696F5C
:1005C0006E005465737420456E642053746F7073AD
:1005D00000417869732053746570733A6D6D0048FB
:1005E0006F6D696E67205261746573005665727332
:1005F000696F6E0055702F446E2F456E7420746FB6
:100600002053657400436F6F6C200048656174204F
:10061000004265640053657420546F6F6C30205441
:10062000656D7000536574204265642054656D707B
:1006300000546F6F6C3000486F6D652041786973AE
:100640003A20002020592020202020202020202077
:1006500020205A0058202020582028656E6473748A
:100660006F70732900202059202020202020202076
:10067000202020205A0044697361626C6500456E39
:1006800061626C65005465737420456E6420537418
:100690006F70733A2000584D696E3A4E202020202A
:1006A000584D61783A4E00594D696E3A4E202020DF
:1006B00020594D61783A4E005A4D696E3A4E2020CD
:1006C00020205A4D61783A4E0059004E00456E7414
:1006D0006572696E672070617573652E2E005265B4
:1006E00074726163742046696C616D656E74004D4F
:1006F0006F76696E67205920326D6D2020202000B2
:100700004D6F76696E67205A20757020326D6D20AE
:10071000005061757365642800202020592B20202B
:10072000202020202020205A2B00582D2052657692
:1007300020582B2020284677642900202020592D7E
:100740002020202020202020205A2D004865617480
:10075000696E672E2E2E20004C656176696E6720CB
:1007600070617573652E2E20005061757365206170
:1007700074205A506F733A0055702F446E2F456E97
:100780007420746F20536574006D6D20202000412B
:100790006476616E6365204142503A00686F6C6414
:1007A000206B65792E2E2E00202020202020202056
:1007B00020202028667764290043616C6962726199
:1007C00074653A204D6F766520006275696C64200F
:1007D000706C6174666F726D00756E74696C206EFA
:1007E0006F7A7A6C652E2E2E00202020202020206B
:1007F00020202028636F6E7429006C69657320695E
:100800006E2063656E7465722C007475726E207450
:100810006872656164656400726F6420756E7469E6
:100820006C2E2E2E006E6F7A7A6C65206A7573744A
:1008300000746F75636865732E00486F6D696E672D
:10084000205A2E2E2E00486F6D696E6720592E2E6D
:100850002E00486F6D696E6720582E2E2E002120C5
:1008600043616C696272617465642021005265673E
:10087000656E65726174652067636F646500202032
:1008800020202020202020287265736574290058BC
:10089000204F66667365743A0059204F666673652B
:1008A000743A005A204F66667365743A0055702F8B
:1008B000446E2F456E7420746F20536574006D6D07
:1008C000005265706561742042757A7A65723A00EB
:1008D00028303D42757A7A6572204F666629005548
:1008E000702F446E2F456E7420746F205365740012
:1008F0002074696D657320005820537465707320EF
:10090000706572206D6D3A005920537465707320C4
:10091000706572206D6D3A005A20537465707320B3
:10092000706572206D6D3A004120537465707320BC
:10093000706572206D6D3A0055702F446E2F456EB4
:100940007420746F205365740020005265736574C1
:1009500020546F205A65726F3F004E6F00596573C7
:10096000004C69666574696D65204F646F2E3A00AE
:1009700054726970204F646F6D657465723A002817
:1009800074726970292020202872657365742900AB
:10099000286C696665292020202872657365742992
:1009A00000457374696D6174655072656865617442
:1009B000004F766572726964652054656D70004100
:1009C000425020436F7069657320285344290041C9
:1009D0006363656C65726174696F6E0035442045B0
:1009E000787472756465720041425020436F70697B
:1009F000657320285344293A0055702F446E2F45C3
:100A00006E7420746F2053657400416363656C6578
:100A1000726174656400537465707065722044720D
:100A2000697665723A004F6666004F6666202D2033
:100A3000537472616E676C6564004F6E202D204E9A
:100A40006F20506C616E6E6572004F6E202D2050CD
:100A50006C616E6E65720050726F66696C653F0006
:100A6000526573746F726500446973706C617920AC
:100A7000436F6E666967004368616E6765204E610B
:100A80006D65005361766520546F2050726F666902
:100A90006C650050726F66696C65204E616D653AD9
:100AA0000055702F446E2F456E7420746F2053656F
:100AB00074002000584F66663A2000594F66663A27
:100AC00020005A4F66663A20004842502054656D17
:100AD000703A20202000546F6F6C302054656D7088
:100AE0003A20004578747264724D4D2F733A20009D
:100AF000583A00593A005A3A00413A006D6D0046A2
:100B000061696C656420746F206F70656E00666942
:100B10006C652E20204E616D6520746F6F006C6FC8
:100B20006E673F00436F6E74696E75650058204DA7
:100B3000617846656564526174653A0059204D617B
:100B40007846656564526174653A005A204D617853
:100B500046656564526174653A0041204D6178468E
:100B6000656564526174653A0058204D6178204192
:100B70006363656C3A0059204D6178204163636579
:100B80006C3A005A204D617820416363656C3A00ED
:100B900041204D617820416363656C3A0041636395
:100BA000204E6F726D204D6F76653A004163632071
:100BB00045787472204D6F76653A004D696E204617
:100BC00065656420526174653A004D696E547276B1
:100BD0006C46656564526174653A004D696E506C8F
:100BE000616E6E657253706565643A004A4B4E20C3
:100BF000416476616E6365204B3A004A4B4E20415A
:100C00006476616E6365204B323A004E6F6F646CA0
:100C100065204469616D657465723A004D696E20A6
:100C20005365672054696D653A005265764D617869
:100C300046656564526174653A00457874727564FE
:100C4000657244657072696D653A00536C6F7764C4
:100C50006F776E204C696D69743A00436C6F636BFB
:100C6000776973652045787464723A004D617853F2
:100C7000706565644368616E6765583A004D6178D8
:100C800053706565644368616E6765593A004D61EC
:100C90007853706565644368616E67655A3A004DC4
:100CA000617853706565644368616E6765413A00B9
:100CB00055702F446E2F456E7420746F20536574E9
:100CC00000202020200053746570706572204472EB
:100CD0006976657200416363656C2E205365747498
:100CE000696E67730045787464722E205374657062
:100CF000732F6D6D00457874726472205374657043
:100D0000732F6D6D3A002863616C6962290055701C
:100D10002F446E2F456E7420746F2053657400202D
:100D2000200045787472756465204E207374657078
:100D3000733A002865787472756465290055702FC0
:100D4000446E2F456E7420746F205365740020002C
:100D5000456E746572206E6F6F646C65006C656EB5
:100D600067746820696E206D6D27730055702F447D
:100D70006E2F456E7420746F205365740020200020
:100D8000456E6473746F707350726573656E743AF8
:100D90000055702F446E2F456E7420746F2053657C
:100DA000740020005820486F6D65204665656472A8
:100DB0006174653A005920486F6D65204665656429
:100DC000726174653A005A20486F6D65204665650A
:100DD00064726174653A0055702F446E2F456E74CD
:100DE00020746F20536574006D6D2F6D696E200047
:100DF000554E4B4E4F574E00000000FFFFFFFF00C7
:100E00000000FF000000FF00FFFFFF00FFFFFF00EA
:100E1000A020F0FFA500FFC3A5FFB291CDFFD2D265
:100E2000D0FFB4B4FFFFD0CD708A90BEBEBED3D386
:100E3000D319197000BFFF55892F228B22FFD700CD
:100E4000FF69B4F0F0E6426F7420537461747573F7
:100E500000437573746F6D20524742004F66660001
:100E600057686974650052656400477265656E0075
:100E7000426C7565004379616E004D6167656E7403
:100E8000610059656C6C6F7700507572706C65000D
:100E90004F72616E676500416C6D6F6E64005065E6
:100EA0006163682050756666004D696E74204372F8
:100EB00065616D00416C69636520426C7565004C2D
:100EC0006176656E646572004D6973747920526F46
:100ED000736500536C6174652047726179004772D5
:100EE0006179004C696768742047726179004D69C7
:100EF000646E676874426C750044656570536B7905
:100F0000426C75004F6C697665477265656E004688
:100F10006F727374477265656E00476F6C6400484A
:100F20006F742050696E6B004C696E656E0057528D
:100F3000474200524742005768697465466C6173C6
:100F4000680052656420466C61736800477265658D
:100F50006E466C61736800426C756520466C617307
:100F600068004379616E20466C617368004D676E5E
:100F70007461466C6173680059656C6C20466C61E5
:100F8000736800426C61636B004875652043796348
:100F90006C65004D6F6F64204C6967687400436135
:100FA0006E646C65005761746572004F6C64204E0E
:100FB000656F6E00536561736F6E73005468756E74
:100FC00064727374726D0053746F70204C6967683B
:100FD0007400532E204F2E20532E0024F404D920C9
:100FE0001BC40C5C0E9804C4095F0265077101F410
:100FF00005F900FB04B30048048700C103690058E9
:1010000003550003034500BE023A00840231005339
:10101000022A002902250004022000E4011C00C865
:10102000011900AF01170098011400840113007129
:101030000110006101100051010E0043010D003646
:10104000010B002B010B0020010B00150109000C06
:1010500001090003010800FB000800F3000800EB91
:10106000000700E4000600DE000600D8000600D2FB
:10107000000600CC000500C7000500C2000500BD49
:10108000000400B9000400B5000400B1000400AD84
:10109000000400A9000400A5000300A20003009FB3
:1010A0000004009B000300980003009500020093D9
:1010B000000300900003008D0002008B00030088F5
:1010C0000002008600020084000300810002007F0D
:1010D0000002007D0002007B000200790002007720
:1010E000000100760002007400020072000100712D
:1010F0000002006F0002006D0001006C0002006A37
:10110000000100690002006700010066000100653F
:101110000001006400020062000100610001006043
:101120000001005F0002005D0001005C0001005B47
:101130000001005A00010059000100580001005749
:101140000001005600010055000100540001005349
:101150000000005300010052000100510001005046
:101160000001004F0001004E0000004E0001004D44
:101170000001004C0001004B0000004B0001004A40
:10118000000100490001004800000048000100473C
:101190000001004600000046000100450000004537
:1011A0000001004400010043000000430001004230
:1011B0000000004200010041000000410001004029
:1011C0000001003F0000003F0001003E0000003E23
:1011D0000001003D0000003D0001003C0000003C1B
:1011E0000000003C0001003B0000003B0001003A11
:1011F0000000003A00010039000000390001003809
:1012000000000038000000380001003700000037FF
:1012100000010036000000360000003600010035F5
:1012200000000035000000350001003400000034EB
:1012300000000034000100330000003300000033E0
:1012400000010032000000320000003200010031D5
:1012500000000031000000310001003000000030CB
:10126000000000300001002F0000002F0000002FC0
:101270000000002F0001002E0000002E0000002EB4
:101280000001002D0000002D0000002D0000002DA9
:101290000001002C0000002C0000002C0000002C9D
:1012A0000001002B0000002B0000002B0000002B91
:1012B0000001002A0000002A0000002A0000002A85
:1012C0000001002900000029000000290000002979
:1012D000000000290001002800000028000000286C
:1012E000000000280000002800010027000000275F
:1012F0000000002700000027000000270001002652
:101300000000002600000026000000260000002645
:101310000001002500000025000000250000002538
:10132000000000250000002500010024000000242A
:10133000000000240000002400000024000100231D
:101340000000002300000023000000230000002311
:101350000000002300000023000100220000002202
:1013600000000022000000220000002200000022F5
:1013700000010021000000210000002100000021E8
:1013800000000021000000210000002100010020D9
:1013900000000020000000200000002000000020CD
:1013A0000000002000000020000000200001001FBD
:1013B0000000001F0000001F0000001F0000001FB1
:1013C0000000001F0000001F0001001E0000001EA2
:1013D0000000001E0000001E00000024F4D4305065
:1013E000C38E20C2A24017828B7011127A910D8198
:1013F0006CD90AA861E108C7586607615143061E07
:101400004B5D05C145A7041A411104093D980371BC
:101410003931034036DB0265339102D43054028007
:101420002E1D02632CEE01752AC501B028A0011003
:101430002781018F2564012B244B01E0223401AC6C
:10144000211F018D200D01801FFC00841EED0097DF
:101450001DDF00B81CD200E61BC600201BBC0064C8
:101460001AB200B219A8000A19A0006A189900D18E
:1014700017910040178B00B516840031167E00B31B
:101480001579003A157300C7146F0058146A00EEFE
:101490001366008813630025135E00C7125B006C9F
:1014A00012570015125400C111510070114F002144
:1014B000114B00D61049008D104700461044000221
:1014C000104200C00F4000800F3E00420F3C00065B
:1014D0000F3B00CB0E3800930E37005C0E35002713
:1014E0000E3400F30D3200C10D3100900D3000605C
:1014F0000D2E00320D2D00050D2C00D90C2B00AE49
:101500000C2900850C29005C0C2700350C27000EE7
:101510000C2600E80B2400C40B2400A00B23007D44
:101520000B23005A0B2100390B2100180B2000F867
:101530000A1F00D90A1E00BB0A1E009D0A1D00805A
:101540000A1D00630A1C00470A1B002C0A1B00111D
:101550000A1A00F7091A00DD091900C4091900ABBD
:10156000091900920917007B091800630917004C3C
:1015700009160036091600200916000A091500F59B
:10158000081500E0081400CC081400B8081400A4E2
:10159000081400900813007D0812006B081300580F
:1015A0000812004608120034081100230811001226
:1015B00008110001081100F0071000E0071000D02A
:1015C000071000C0071000B0070F00A1071000911E
:1015D000070E0083070F0074070F0065070E005702
:1015E000070E0049070E003B070D002E070E0020D6
:1015F000070D0013070D0006070D00F9060C00ED9E
:10160000060D00E0060C00D4060C00C8060C00BC59
:10161000060C00B0060C00A4060B0099060C008D09
:10162000060B0082060B0077060B006C060B0061B0
:10163000060A0057060B004C060A0042060A00384C
:10164000060A002E060A0024060A001A060A0010DE
:1016500006090007060A00FD050900F4050900EB6C
:10166000050900E2050900D9050900D0050900C7F0
:10167000050900BE050900B5050800AD050800A56F
:101680000509009C050800940508008C05080084E5
:101690000508007C050800740508006C0507006556
:1016A0000508005D050700560508004E05070047C0
:1016B0000507004005080038050700310507002A26
:1016C000050700230507001C050600160507000F87
:1016D0000507000805060002050700FB040600F5E3
:1016E000040700EE040600E8040600E2040700DB3D
:1016F000040600D5040600CF040600C9040600C392
:10170000040600BD040600B7040600B1040500ACE1
:10171000040600A6040600A00405009B040600952C
:10172000040500900406008A040500850405008075
:101730000406007A04050075040500700405006BBA
:1017400004050066040500610405005C04050057FB
:10175000040500520405004D04050048040500433B
:101760000405003E0404003A040500350405003079
:101770000404002C04050027040400230405001EB3
:101780000404001A04040016040500110404000DEA
:10179000040400090405000404040000040400FC1F
:1017A000030400F8030400F4030400F0030400EC55
:1017B000030400E8030400E4030400E0030400DC85
:1017C000030400D8030400D4030400D0030400CCB5
:1017D000030400C8030300C503030000B234F4355A
:1017E000023E71556158F9734574FEC1D7E5E2E8D0
:1017F000FEE185EC91E201C08193EF3FF907E0F350
:10180000D9F311241FBECFEFD1E2DEBFCDBF1BE065
:10181000A0E0B2E0E2E1F7ED01E00BBF02C007900B
:101820000D92A031B107D9F71EE1A0E1BBE001C0E4
:101830001D92A238B107E1F717E1CEEED7E100E043
:1018400006C022970109FE010BBF0E94FEEACC3DB3
:10185000D10780E00807A9F70E947D3E0C9487EB32
:101860000C940000A0E3B0E0E8E3FCE00C94C9EACB
:10187000298F3A8F4B8F5C8F6D8F7E8F8F8F98A3C0
:10188000A98ABA8ACB8ADC8AED8AFE8A0F8B188FE6
:10189000098D1A8D2B8D3C8D09A31AA32BA33CA374
:1018A000680179018FEF9FEFA0E0B0E0C822D92254
:1018B000EA22FB2289012227332709A71AA72BA78F
:1018C0003CA709891A892B893C890DA31EA32FA344
:1018D00038A74801590188229922AA22BB2229014E
:1018E00066247724C501B401A70196010E9438EA55
:1018F0006DA77EA78FA798ABC301B2010E9438EAFB
:101900006B017C01C501B40129A53AA54BA55CA5D5
:101910000E9438EA4B015C01C301B2010E9438EA1F
:10192000AB01BC01C80CD91CEA1CFB1C0DA51EA5F3
:101930002FA538A9C901AA27BB27C80ED91EEA1EA0
:10194000FB1EC814D904EA04FB0420F440505040A4
:101950006F4F7F4FC701AA27BB27840F951FA61F74
:10196000B71F8D839E83AF83B8877601DD24CC2497
:101970004DA55EA56FA578A960707070C40ED51EC8
:10198000E61EF71EC982DA82EB82FC821C2D0A81D8
:101990008B804C808D878E818E878F818F87888505
:1019A000888B2D893E894F89588D69A17AA18BA199
:1019B0009CA10E9438EA6B017C012D8D3E8D4F8DDC
:1019C00058A16DA17EA18FA198A50E9438EADC01E3
:1019D000CB01C80ED91EEA1EFB1E8D859E85AF85E4
:1019E000B8898C0D9D1DAE1DBF1D8D879E87AF874D
:1019F000B88B682F7E85212F302F482D542D8F8551
:101A00009889E096E0E10C94E5EACF92DF92EF92BC
:101A1000FF920F93CF93DF93CDB7DEB760970FB6EA
:101A2000F894DEBF0FBECDBF002309F45AC029874A
:101A30003A874B875C876D877E878F87988B80E29C
:101A4000801B49855A856B857C851816B4F01982F0
:101A50001A821B821C82992787FD9095909581950B
:101A60009F4F04C0440F551F661F771F8A95D2F7FA
:101A70004D835E836F8378872CC06A017B01002EC3
:101A800004C0CC0CDD1CEE1CFF1C0A94D2F7C982EA
:101A9000DA82EB82FC826A017B0104C0F694E7944F
:101AA000D794C7948A95D2F7D701C6014D855E8534
:101AB0006F85788904C0440F551F661F771F0A95EC
:101AC000D2F7842B952BA62BB72B8D839E83AF83C8
:101AD000B88729813A814B815C816D817E818F81BC
:101AE000988560960FB6F894DEBF0FBECDBFDF912C
:101AF000CF910F91FF90EF90DF90CF9008950F93CB
:101B0000CF93DF93CDB7DEB760970FB6F894DEBF03
:101B10000FBECDBF002309F456C029873A874B87F3
:101B20005C876D877E878F87988B20E2201B8D8551
:101B30009E85AF85B889AC01BD011216B4F0770F50
:101B4000440B542FBA014D835E836F83788733270C
:101B500027FD3095309521953F4F04C0B595A79549
:101B6000979587952A95D2F722C0002E04C07595C7
:101B70006795579547950A94D2F74D835E836F8397
:101B8000788704C0880F991FAA1FBB1F2A95D2F718
:101B900049855A856B857C8504C0769567955795F0
:101BA00047950A95D2F7842B952BA62BB72B8983C3
:101BB0009A83AB83BC8329813A814B815C816D819F
:101BC0007E818F81988560960FB6F894DEBF0FBE38
:101BD000CDBFDF91CF910F910895A8E4B0E0E3EF7E
:101BE000FDE00C94C8EAF50129A33AA34BA35CA33A
:101BF0006DA37EA38FA398A7A98EFA8FCB8EDC8EC0
:101C0000ED8EFE8E0F8F18A38DA09EA0AFA0B8A45E
:101C1000B7FE67C02195B1E0121608F0B0E031952B
:101C2000A1E0131608F0A0E0B32EBB1ABB2D882448
:101C300083943B1508F08824A829419531E01416B7
:101C400008F030E0B42EBA1AAB2D882483944B15DB
:101C500008F088243829519541E0151608F040E035
:101C6000452E431A31E0541508F030E0432B6195BE
:101C700031E0161608F030E0862E841A41E068152F
:101C800008F040E0342B719541E0171608F040E071
:101C9000572F531B31E0751708F030E0432B819527
:101CA00031E0181608F030E0682F641B462F61E021
:101CB000841708F060E0362B9195931B29A3BAA3F3
:101CC000ABA34CA28DA25EA34FA398A78FEF9FEF6B
:101CD000AFEFBFEF25968CAF9DAFAEAFBFAF2597EF
:101CE00006C025961CAE1DAE1EAE1FAE25978D8D6F
:101CF0009E8DAF8DB8A1B7FF68C025962CAD3DADC8
:101D00004EAD5FAD25972095309540955095259621
:101D10002CAF3DAF4EAF5FAF2597E19581E01E162A
:101D200008F080E0F19591E01F1608F090E04F2F49
:101D3000481B81E0F41708F080E0982BC19481E003
:101D40001C1408F080E06C2D691B91E0C61608F0A9
:101D500090E0892BD19491E01D1408F090E05D2D66
:101D6000581B81E0D51608F080E0982BE19481E0C3
:101D70001E1408F080E03E2D391B91E0E31608F0B8
:101D800090E0892BF19491E01F1408F090E02F2D42
:101D9000281B81E0F21608F080E0982B019581E085
:101DA000101608F080E0702F791B972F71E009174B
:101DB00008F070E0872B1195181BE98F4A8F6B8F05
:101DC0005C8F3D8F2E8F9F8F18A3798D6A8D5B8DD1
:101DD0004C8D3D8D2E8D9F8D88A1E9A1E98BEAA1C7
:101DE000EA8BEBA1EB8BECA1EC8BEDA1ED8BEEA1E3
:101DF000EE8BEFA1EF8BE8A5E88F79876A875B8789
:101E00004C873D872E879F87888B89849A84AB84F3
:101E1000BC848D859E85AF85B889E988FA880B8951
:101E20001C89EDAAFEAA0FAB18AFCD88DE88EF881B
:101E3000F88C0097A105B10509F0BFC3C814D904F7
:101E4000EA04FB0408F04EC100E0801600E09006B2
:101E500001E0A00600E0B00660F41FEF81169104D7
:101E6000A104B10409F098F480E090E0A0E0B0E0B3
:101E700017C020E0821620E0920620E0A20621E0B2
:101E8000B20650F480E190E0A0E0B0E009C088E044
:101E900090E0A0E0B0E004C088E190E0A0E0B0E015
:101EA000B501A401082E04C076956795579547950E
:101EB0000A94D2F7FA01E55FFC4F208140E250E03E
:101EC00060E070E0481B590B6A0B7B0B421B510909
:101ED000610971094115510561057105A1F1042ED2
:101EE00004C0880C991CAA1CBB1C0A94D2F7970149
:101EF0008601042E04C0000F111F221F331F0A94F5
:101F0000D2F780E290E0841B950BCDA8DEA8EFA865
:101F1000F8AC04C0F694E794D794C7948A95D2F7A6
:101F2000C02AD12AE22AF32A0DA91EA92FA938AD69
:101F300004C0000F111F221F331F4A95D2F70DABAB
:101F40001EAB2FAB38AF25016624772495018401A1
:101F50002070307009AB1AAB2BAB3CABC701B6019C
:101F6000A30192010E948AEA2DA73EA74FA758AB72
:101F700069A77AA78BA79CA7C701B601A301920105
:101F80000E948AEACA01B90129A93AA94BA95CA908
:101F90000E9438EAAB01BC0109A51AA52BA53CA5F6
:101FA0007801DD24CC240DA91EA92FA938ADC901C3
:101FB000AA27BB27C82AD92AEA2AFB2A0DA51EA5CB
:101FC0002FA538A9C416D506E606F70638F5015040
:101FD00010402040304009A71AA72BA73CA7C80CE7
:101FE000D91CEA1CFB1CC814D904EA04FB04D0F079
:101FF000C416D506E606F706A8F40DA51EA52FA55E
:1020000038A9025010402040304009A71AA72BA73A
:102010003CA7C80CD91CEA1CFB1C04C009A71AA7C2
:102020002BA73CA7C41AD50AE60AF70AC701B601CE
:10203000A30192010E948AEA2DA73EA74FA758ABA1
:1020400069AF7AAF8BAF9CAFC701B601A301920114
:102050000E948AEACA01B90129A93AA94BA95CA937
:102060000E9438EA6B017C0149AD5AAD6BAD7CAD85
:102070009A01112700274DA95EA96FA978AD60705C
:102080007070042B152B262B372B8DA59EA5AFA585
:10209000B8A90C151D052E053F05C0F40197A1092F
:1020A000B109080D191D2A1D3B1D081519052A0522
:1020B0003B0560F00C151D052E053F0538F48DA578
:1020C0009EA5AFA5B8A90297A109B10909A51AA5AE
:1020D0002BA53CA57801DD24CC24C82AD92AEA2ADC
:1020E000FB2AB9C481149104A104B10451F461E044
:1020F00070E080E090E0A50194010E948AEA490125
:102100005A0110E0811610E0910611E0A10610E0DE
:10211000B10660F42FEF82169104A104B10409F016
:1021200098F480E090E0A0E0B0E017C030E08316C3
:1021300030E0930630E0A30631E0B30650F480E1CE
:1021400090E0A0E0B0E009C088E090E0A0E0B0E05E
:1021500004C088E190E0A0E0B0E0B501A401082E41
:1021600004C076956795579547950A94D2F7FA017A
:10217000E55FFC4F2081AC01BD01420F511D611D87
:10218000711D80E290E0A0E0B0E0841B950BA60BEF
:10219000B70B51F4C818D908EA08FB08F1E04F2E34
:1021A000512C612C712C28C1082E04C0880C991C5C
:1021B000AA1CBB1C0A94D2F797018601042E04C006
:1021C00036952795179507950A94D2F709AB1AAB60
:1021D0002BAB3CAB97018601082E04C0000F111FEA
:1021E000221F331F0A94D2F70DA71EA72FA738ABC3
:1021F000EDA8FEA80FA918AD04C016950795F79491
:10220000E7944A95D2F7B801A7010DA51EA52FA501
:1022100038A9042B152B262B372B0DA71EA72FA76C
:1022200038ABEDA8FEA80FA918AD04C0EE0CFF1C3A
:10223000001F111F8A95D2F7EDAAFEAA0FAB18AFA7
:10224000250166247724950184012070307009AF40
:102250001AAF2BAF3CAF69A97AA98BA99CA9A3019E
:1022600092010E948AEA29A73AA74BA75CA76B01B3
:102270007C0169A97AA98BA99CA9A30192010E945A
:102280008AEACA01B90129AD3AAD4BAD5CAD0E94F5
:1022900038EAAB01BC017601DD24CC240DA51EA5D6
:1022A0002FA538A9C901AA27BB27C82AD92AEA2AF3
:1022B000FB2A09A51AA52BA53CA5C416D506E6063A
:1022C000F70638F5015010402040304009AB1AABFA
:1022D0002BAB3CABC80CD91CEA1CFB1CC814D904A2
:1022E000EA04FB04D0F0C416D506E606F706A8F407
:1022F00009A51AA52BA53CA502501040204030404E
:1023000009AB1AAB2BAB3CABC80CD91CEA1CFB1CB1
:1023100004C009AB1AAB2BAB3CABC41AD50AE60A16
:10232000F70AC701B601A30192010E948AEA29A710
:102330003AA74BA75CA721966CAF7DAF8EAF9FAF3E
:102340002197C701B601A30192010E948AEACA013E
:10235000B90129AD3AAD4BAD5CAD0E9438EA8B01B5
:102360009C0121964CAD5DAD6EAD7FAD2197DA013C
:10237000992788274DA55EA56FA578A96070707014
:10238000842B952BA62BB72B49A55AA56BA57CA50D
:1023900080179107A207B307F0F441505040604006
:1023A0007040880D991DAA1DBB1D88159905AA05A9
:1023B000BB0588F080179107A207B30760F449A511
:1023C0005AA56BA57CA54250504060407040880DD6
:1023D000991DAA1DBB1D6C017D01C01AD10AE20A1C
:1023E000F30A09A91AA92BA93CA9380155244424A8
:1023F000442A552A662A772A8501222733270DA7E2
:102400001EA72FA738AB950184012070307009AF4B
:102410001AAF2BAF3CAFC701B6012DA53EA54FA506
:1024200058A90E948AEA29A73AA74BA75CA769ABDB
:102430007AAB8BAB9CABC701B6012DA53EA54FA5D2
:1024400058A90E948AEACA01B90129AD3AAD4BAD3B
:102450005CAD0E9438EAAB01BC0109A91AA92BA9FD
:102460003CA97801DD24CC240DA91EA92FA938ADE3
:10247000C901AA27BB27C82AD92AEA2AFB2A09A503
:102480001AA52BA53CA5C416D506E606F70638F511
:10249000015010402040304009AB1AAB2BAB3CAB95
:1024A000C80CD91CEA1CFB1CC814D904EA04FB04A0
:1024B000D0F0C416D506E606F706A8F409A51AA5B5
:1024C0002BA53CA5025010402040304009AB1AAB70
:1024D0002BAB3CABC80CD91CEA1CFB1C04C009ABE1
:1024E0001AAB2BAB3CABC41AD50AE60AF70AC701F4
:1024F000B6012DA53EA54FA558A90E948AEA29A795
:102500003AA74BA75CA721966CAF7DAF8EAF9FAF6C
:102510002197C701B6012DA53EA54FA558A90E9438
:102520008AEACA01B90129AD3AAD4BAD5CAD0E9452
:1025300038EA8B019C0121964CAD5DAD6EAD7FAD4F
:102540002197DA01992788274DA95EA96FA978AD4F
:1025500060707070842B952BA62BB72B49A55AA5BC
:102560006BA57CA580179107A207B307D0F4415053
:10257000504060407040880D991DAA1DBB1D8815F4
:102580009905AA05BB0568F080179107A207B30754
:1025900040F449A55AA56BA57CA542505040604027
:1025A000704009A91AA92BA93CA97801DD24CC24E3
:1025B000C42AD52AE62AF72A51C2C816D906EA063D
:1025C000FB0608F438C2803010E0910711E0A10743
:1025D00010E0B10758F48F3F9105A105B10509F04E
:1025E00090F400E010E020E030E016C0803020E001
:1025F000920720E0A20721E0B20750F400E110E0CA
:1026000020E030E009C008E010E020E030E004C045
:1026100008E110E020E030E0AC01BD01002E04C074
:1026200076956795579547950A94D2F7FA01E55F35
:10263000FC4F4081040F111D211D311D40E250E06F
:1026400060E070E0401B510B620B730BA1F48C1522
:102650009D05AE05BF0508F4F5C1EDA8FEA80FA9BC
:1026600018AD442455243201E814F9040A051B0569
:1026700008F0EBC1E3C1342E2C013D0104C0440C31
:10268000551C661C771C4A95D2F7D501C401002E53
:1026900004C0B695A795979587950A94D2F7482ACE
:1026A000592A6A2A7B2AA5019401032C04C0220F0F
:1026B000331F441F551F0A94D2F729AF3AAF4BAFCF
:1026C0005CAFB701A601002E04C0769567955795BB
:1026D00047950A94D2F749AB5AAB6BAB7CABC701B9
:1026E000B601032C04C0660F771F881F991F0A9438
:1026F000D2F76DA77EA78FA798AB8DA99EA9AFA98A
:10270000B8AD04C0B695A795979587950A95D2F769
:102710004DA55EA56FA578A9482B592B6A2B7B2B5D
:102720004DA75EA76FA778AB4301AA24BB249301F2
:1027300082012070307021960CAF1DAF2EAF3FAFDD
:10274000219769A97AA98BA99CA9A50194010E9446
:102750008AEA29A73AA74BA75CA76B017C0169A964
:102760007AA98BA99CA9A50194010E948AEACA01B1
:10277000B90121962CAD3DAD4EAD5FAD21970E94C4
:1027800038EADC01CB017601DD24CC240DA51EA5A1
:102790002FA538A9A90166277727C42AD52AE62AB2
:1027A000F72A09A51AA52BA53CA5C816D906EA063D
:1027B000FB0638F5015010402040304009AB1AAB01
:1027C0002BAB3CABC40CD51CE61CF71CC414D504C5
:1027D000E604F704D0F0C816D906EA06FB06A8F40A
:1027E00009A51AA52BA53CA5025010402040304059
:1027F00009AB1AAB2BAB3CABC40CD51CE61CF71CCD
:1028000004C009AB1AAB2BAB3CABC81AD90AEA0A15
:10281000FB0AC701B601A50194010E948AEA29A713
:102820003AA74BA75CA729966CAF7DAF8EAF9FAF41
:102830002997C701B601A50194010E948AEACA013D
:10284000B90121962CAD3DAD4EAD5FAD21970E94F3
:1028500038EA4B015C0129964CAD5DAD6EAD7FADA4
:1028600029979A01112700278DA59EA5AFA5B8A984
:10287000A070B070082B192B2A2B3B2B89A59AA589
:10288000ABA5BCA5081519052A053B05E0F4019781
:10289000A109B109040D151D261D371D04151505C7
:1028A0002605370580F0081519052A053B0558F45B
:1028B00089A59AA5ABA5BCA50297A109B109040DEC
:1028C000151D261D371DB901A801481959096A09A6
:1028D0007B094DA75EA76FA778AB09A91AA92BA9F9
:1028E0003CA97801DD24CC24C82AD92AEA2AFB2A6B
:1028F000FFEF8F2EFFEF9F2EA12CB12C8C209D205F
:10290000AE20BF2087012227332709A71AA72BA7AC
:102910003CA749AC5AAC6BAC7CAC2FEF3FEF40E02E
:1029200050E0422253226422752229AD3AAD4BADCC
:102930005CAD8A012227332709AB1AAB2BAB3CAB2A
:10294000C501B401A30192010E9438EA69AF7AAFD0
:102950008BAF9CAFC501B40129A93AA94BA95CA9C9
:102960000E9438EA4B015C0169A57AA58BA59CA55C
:10297000A30192010E9438EA2B013C0169A57AA5C6
:102980008BA59CA529A93AA94BA95CA90E9438EA64
:10299000AB01BC01840C951CA61CB71C09AD1AAD7B
:1029A0002BAD3CADC901AA27BB27880E991EAA1ED4
:1029B000BB1E84149504A604B70420F44050504074
:1029C0006F4F7F4FC501AA27BB27840F951FA61FF6
:1029D000B71F0DA51EA52FA538A9081719072A0787
:1029E0003B0718F180179107A207B307A1F554011F
:1029F0009924882489AD9AADABADBCADA070B07000
:102A0000880E991EAA1EBB1E4DA95EA96FA978AD9E
:102A1000032C04C0440F551F661F771F0A94D2F77A
:102A2000481559056A057B05B0F40894C108D1081A
:102A3000E108F10810C0442455243201CC24DD24DF
:102A400076010CC044245524320181E0C82ED12CDB
:102A5000E12CF12C03C0442455243201FE013196AF
:102A600088E0DF011D928A95E9F7C982DA82EB825C
:102A7000FC824D825E826F8278862C2D3A814B815A
:102A80005C81642D7E818F8198852596ECACFDACB0
:102A90000EAD1FAD2597E114F1040105110509F4F0
:102AA00056C02195E1E0121608F0E0E03195F1E022
:102AB000131608F0F0E0032F0E1BE1E0301708F0CA
:102AC000E0E0FE2B4195E1E0141608F0E0E0142F61
:102AD0001F1B31E0411708F030E0E32B5195F1E086
:102AE000151608F0F0E0B52FBE1B31E05B1708F0BB
:102AF00030E0F32B6195E1E0161608F0E0E0462E99
:102B00004F1A31E0641508F030E0E32B7195F1E0E5
:102B1000171608F0F0E0A72FAE1B31E07A1708F087
:102B200030E0F32B8195E1E0181608F0E0E0F82E94
:102B3000FF1AFF2D31E08F1508F030E0E32B91955F
:102B4000302F412F5B2F642D7A2F8F2F9E1BC85B58
:102B5000DF4FE1E10C94E4EAA8E4B0E0E2EBF5E158
:102B60000C94C7EAF50129A33AA34BA35CA36DA378
:102B70007EA38FA398A7A98EFA8FCB8EDC8EED8EC5
:102B8000FE8E0F8F18A38DA09EA0AFA0B8A4B7FE95
:102B900067C02195B1E0121608F0B0E03195A1E0D0
:102BA000131608F0A0E0832E8B1AB82D8824839486
:102BB0003B1708F08824A829419531E0141608F045
:102BC00030E0942E9A1AA92D88248394491508F090
:102BD00088243829519541E0151608F040E0752EFB
:102BE000731A31E0571508F030E0432B619531E05E
:102BF000161608F030E0862E841A41E0681508F0B9
:102C000040E0342B719541E0171608F040E0572F53
:102C1000531B31E0751708F030E0432B819531E00C
:102C2000181608F030E0A82EA41A4A2D61E08A1583
:102C300008F060E0362B9195931B29A3BAA3ABA3B0
:102C40007CA28DA25EA34FA398A788248A94982C77
:102C5000540125968CAE9DAEAEAEBFAE259706C094
:102C600025961CAE1DAE1EAE1FAE25978D8D9E8D7A
:102C7000AF8DB8A1B7FF58C0E19581E01E1608F0EE
:102C800080E0F19591E01F1608F090E04F2F481B6F
:102C900081E0F41708F080E0982BC19481E01C14C7
:102CA00008F080E06C2D691B91E0C61608F090E0FA
:102CB000892BD19491E01D1408F090E05D2D581BF4
:102CC00081E0D51608F080E0982BE19481E01E1495
:102CD00008F080E03E2D391B91E0E31608F090E00B
:102CE000892BF19491E01F1408F090E02F2D281B00
:102CF00081E0F21608F080E0982B019581E0101633
:102D000008F080E0902E991A992D71E0091508F0CD
:102D100070E0872B1195181BE98F4A8F6B8F5C8FA2
:102D20003D8F2E8F9F8F18A3F98C0A8D1B8DBC8D24
:102D3000AD8DFE8D3F8D28A1E9A16AA14BA15CA1BB
:102D40003DA07EA18FA198A5F9860A871B87BC8725
:102D5000AD87FE873F87288B89849A84AB84BC84A7
:102D60000D851E852F853889E9A76AA74BA75CA723
:102D7000C32CD72E7C01011511052105310509F061
:102D8000A7C2C814D904EA04FB0408F088C000E014
:102D9000801600E0900601E0A00600E0B00660F4B6
:102DA0001FEF81169104A104B10409F098F480E0AA
:102DB00090E0A0E0B0E017C020E0821620E092068C
:102DC00020E0A20621E0B20650F480E190E0A0E00D
:102DD000B0E009C088E090E0A0E0B0E004C088E185
:102DE00090E0A0E0B0E0B501A401082E04C0769503
:102DF0006795579547950A94D2F7FA01E55FFC4F1E
:102E0000208140E250E060E070E0481B590B6A0B03
:102E10007B0B421B5109610971094DA75EA76FA782
:102E200078AB411551056105710509F48AC12DA5DD
:102E3000022E04C0880C991CAA1CBB1C0A94D2F751
:102E4000B701A601022E04C0440F551F661F771F4D
:102E50000A94D2F780E290E0ADA5BEA58A1B9B0B39
:102E6000C9A4DAA4EBA4FCA404C0F694E794D79414
:102E7000C7948A95D2F7C42AD52AE62AF72A49A503
:102E80005AA56BA57CA504C0440F551F661F771F6C
:102E90002A95D2F749A75AA76BA77CA752C18114DC
:102EA0009104A104B10451F461E070E080E090E08D
:102EB000A50194010E948AEA49015A0100E08016A6
:102EC00000E0900601E0A00600E0B00660F41FEF0D
:102ED00081169104A104B10409F098F480E090E017
:102EE000A0E0B0E017C020E0821620E0920620E0CB
:102EF000A20621E0B20650F480E190E0A0E0B0E04C
:102F000009C088E090E0A0E0B0E004C088E190E073
:102F1000A0E0B0E0B501A401082E04C07695679545
:102F2000579547950A94D2F7FA01E55FFC4F208147
:102F3000820F911DA11DB11D00E210E020E030E0E4
:102F4000081B190B2A0B3B0B0DA71EA72FA738AB8D
:102F5000011511052105310529F4C818D908EA0819
:102F6000FB08EFC02DA5022E04C0880C991CAA1CDA
:102F7000BB1C0A94D2F7B701A601082E04C07695AF
:102F80006795579547950A94D2F749AF5AAF6BAFFB
:102F90007CAFB701A601022E04C0440F551F661F67
:102FA000771F0A94D2F7C9A4DAA4EBA4FCA404C046
:102FB000F694E794D794C7948A95D2F74C295D2963
:102FC0006E297F2949AB5AAB6BAB7CABE9A4FAA461
:102FD0000BA51CA504C0EE0CFF1C001F111F2A9599
:102FE000D2F7E9A6FAA60BA71CA725016624772429
:102FF00095018401207030700DAB1EAB2FAB38AF44
:1030000069AD7AAD8BAD9CADA30192010E948AEAB5
:10301000022FC32E142FF52E21966CAF7DAF8EAFED
:103020009FAF219769AD7AAD8BAD9CADA3019201A5
:103030000E948AEA602F7C2D812F9F2D2DA93EA909
:103040004FA958AD0E9438EADC01CB0121960CADA6
:103050001DAD2EAD3FAD21977801DD24CC2409A90B
:103060001AA92BA93CA9A90166277727C42AD52A22
:10307000E62AF72AC816D906EA06FB0690F4C80C19
:10308000D91CEA1CFB1CC814D904EA04FB0448F050
:10309000C816D906EA06FB0620F4C80CD91CEA1C9F
:1030A000FB1CC81AD90AEA0AFB0AC701B601A30128
:1030B00092010E948AEA122F032F342E252E69AF27
:1030C0007AAF8BAF9CAFC701B601A30192010E94FA
:1030D0008AEA612F702F832D922D2DA93EA94FA929
:1030E00058AD0E9438EADC01CB0109AD1AAD2BAD19
:1030F0003CAD7801DD24CC2449A95AA96BA97CA94F
:1031000060707070C42AD52AE62AF72AC816D90634
:10311000EA06FB0690F4C80CD91CEA1CFB1CC81478
:10312000D904EA04FB0448F0C816D906EA06FB06EF
:1031300020F4C80CD91CEA1CFB1CC81AD90AEA0ADC
:10314000FB0A85012227332709AB1AAB2BAB3CAB1B
:10315000950184012070307009AF1AAF2BAF3CAFDE
:10316000C701B60129A93AA94BA95CA90E948AEA1C
:10317000122F032F442E752E6DAB7EAB8FAB98AF05
:10318000C701B60129A93AA94BA95CA90E948AEAFC
:10319000612F702F842D972D29AD3AAD4BAD5CADCD
:1031A0000E9438EADC01CB010DA91EA92FA938AD78
:1031B0007801DD24CC2409A51AA52BA53CA5A901DD
:1031C00066277727C42AD52AE62AF72AC816D906F9
:1031D000EA06FB0690F4C80CD91CEA1CFB1CC814B8
:1031E000D904EA04FB0448F0C816D906EA06FB062F
:1031F00020F4C80CD91CEA1CFB1CC81AD90AEA0A1C
:10320000FB0AC701B60129A93AA94BA95CA90E94EA
:103210008AEA122F032F442E752E6DAB7EAB8FAB37
:1032200098AFC701B60129A93AA94BA95CA90E9488
:103230008AEA612F702F842D972D29AD3AAD4BADC1
:103240005CAD0E9438EAAB01BC01CDA8DEA8EFA8B6
:10325000F8ACD6019927882709A51AA52BA53CA566
:1032600020703070802B912BA22BB32B84179507E5
:10327000A607B70790F4880D991DAA1DBB1D8815D8
:103280009905AA05BB0548F084179507A607B70757
:1032900020F4880D991DAA1DBB1D841B950BA60B40
:1032A000B70B8C019D010DA404C036952795179589
:1032B00007950A94D2F709831A832B833C831D82D6
:1032C0001E821F8218863A814B815C81CC24F8C211
:1032D000C016D106E206F30620F40E2F362FC32CBB
:1032E000F2C2003040E0140741E0240740E0340718
:1032F00058F40F3F11052105310509F090F440E025
:1033000050E060E070E016C0003050E0150750E07B
:10331000250751E0350750F440E150E060E070E0EF
:1033200009C048E050E060E070E004C048E150E0CF
:1033300060E070E0D901C801042E04C0B695A795DD
:10334000979587950A94D2F7FC01E55FFC4F808141
:10335000480F511D611D711D80E290E0A0E0B0E0BA
:10336000841B950BA60BB70B09F041C00C151D056E
:103370002E053F0548F069A57AA58BA59CA5681583
:1033800079058A059B0528F189A59AA5ABA5BCA559
:1033900088199909AA09BB09C01AD10AE20AF30AD5
:1033A00041E050E060E070E089A49AA4ABA4BCA422
:1033B00088169906AA06BB0620F040E050E060E0BF
:1033C00070E0C41AD50AE60AF70A89A79AA7ABA73C
:1033D000BCA709A51AA52BA53CA509831A832B8395
:1033E0003C83CD82DE82EF82F88609A566C2382E44
:1033F000D901C801032C04C0880F991FAA1FBB1F45
:103400000A94D2F78DA79EA7AFA7B8AB242ED501FB
:10341000C401042E04C0B695A795979587950A9484
:10342000D2F70DA51EA52FA538A9082B192B2A2BDD
:103430003B2B0DA71EA72FA738AB95018401032CAA
:1034400004C0000F111F221F331F0A94D2F709AFC7
:103450001AAF2BAF3CAF46015701042E04C0B694FF
:10346000A794979487940A94D2F78DAA9EAAAFAA9C
:10347000B8AE97018601032C04C0000F111F221F54
:10348000331F0A94D2F789A59AA5ABA5BCA504C0A1
:10349000B695A795979587954A95D2F7082B192B3E
:1034A0002A2B3B2B09AB1AAB2BAB3CAB89A49AA4C0
:1034B000ABA4BCA4032C04C0880C991CAA1CBB1C84
:1034C0000A94D2F789A69AA6ABA6BCA6CDA4DEA480
:1034D000EFA4F8A84701AA24BB2497018601207015
:1034E000307021960CAF1DAF2EAF3FAF21976DA965
:1034F0007EA98FA998ADA50194010E948AEA2901AD
:103500003A016B017C016DA97EA98FA998ADA50137
:1035100094010E948AEAC301B20121962CAD3DAD0F
:103520004EAD5FAD21970E9438EADC01CB017601F8
:10353000DD24CC2409A91AA92BA93CA9A901662735
:103540007727C42AD52AE62AF72AC816D906EA0612
:10355000FB0678F593018201015010402040304075
:103560000DAB1EAB2FAB38AF0DA51EA52FA538A9EF
:10357000C00ED11EE21EF31EC016D106E206F306EF
:10358000E0F0C816D906EA06FB06B8F493018201FA
:1035900002501040204030400DAB1EAB2FAB38AF77
:1035A0000DA51EA52FA538A9C00ED11EE21EF31E23
:1035B00004C04DAA5EAA6FAA78AEC81AD90AEA0A50
:1035C000FB0AC701B601A50194010E948AEA2901FC
:1035D0003A0129966CAF7DAF8EAF9FAF2997C70197
:1035E000B601A50194010E948AEAC301B2012196A5
:1035F0002CAD3DAD4EAD5FAD21970E9438EA8B01F9
:103600009C0129968CAC9DACAEACBFAC2997D40183
:103610009927882749A95AA96BA97CA9607070705D
:10362000842B952BA62BB72BB301A20180179107F2
:10363000A207B30700F54150504060407040ADA470
:10364000BEA4CFA4D8A88A0D9B1DAC1DBD1D8A1594
:103650009B05AC05BD0578F080179107A207B3075D
:1036600050F4B301A20142505040604070408A0DB6
:103670009B1DAC1DBD1D6C017D01C01AD10AE20A63
:10368000F30AC9AADAAAEBAAFCAAEDA8FEA80FA918
:1036900018ADD70199278827842B952BA62BB72BFC
:1036A000FFEFCF2EFFEFDF2EE12CF12CC822D92225
:1036B000EA22FB222D016624772489AC9AACABACBC
:1036C000BCAC0FEF1FEF20E030E080229122A2225D
:1036D000B32229AD3AAD4BAD5CAD8A012227332729
:1036E0000DAB1EAB2FAB38AFC701B601A5019401DE
:1036F0000E9438EA21966CAF7DAF8EAF9FAF2197C5
:10370000C701B6012DA93EA94FA958AD0E9438EABC
:103710006B017C01C301B201A50194010E9438EA4A
:103720004B015C01C301B2012DA93EA94FA958ADBF
:103730000E9438EAAB01BC01C80CD91CEA1CFB1C76
:1037400021960CAD1DAD2EAD3FAD2197C901AA2725
:10375000BB27C80ED91EEA1EFB1EC814D904EA04F2
:10376000FB0420F4405050406F4F7F4FC701AA2701
:10377000BB27840F951FA61FB71F7601DD24CC241D
:1037800021964CAD5DAD6EAD7FAD219760707070D0
:10379000C40ED51EE61EF71E89A89AA8ABA8BCA821
:1037A00088169906AA06BB0670F088159905AA0521
:1037B000BB05A1F509A51AA52BA53CA50C151D0552
:1037C0002E053F0558F5B701A60189AC9AACABAC04
:1037D000BCAC481959096A097B098C019D018DA46B
:1037E0009EA4AFA4B8A8081919092A093B0981E0C9
:1037F00090E0A0E0B0E0C416D506E606F70620F09B
:1038000080E090E0A0E0B0E058016901A81AB90A90
:10381000CA0ADB0AD601C5016A017B0189A49AA400
:10382000ABA4BCA48C189D08AE08BF08C9A8DAA830
:10383000EBA8FCA8C81AD90AEA0AFB0AD701C601F4
:1038400041E050E060E070E0E9A4FAA40BA51CA5FB
:10385000E814F9040A051B0520F040E050E060E0A0
:1038600070E0841B950BA60BB70B8C019D01022CFD
:1038700004C0000F111F221F331F0A94D2F7032C1C
:1038800004C0B694A794979487940A94D2F7082911
:1038900019292A293B2909831A832B833C836C012C
:1038A0007D01032C04C0F694E794D794C7940A943E
:1038B000D2F7CD82DE82EF82F8863A814B815C813D
:1038C0007E818F81988525968CAC9DACAEACBFACCB
:1038D000259781149104A104B10409F455C0019500
:1038E000E1E0101608F0E0E0232F219561E01216C8
:1038F00008F060E0322F3E1BE1E0231708F0E0E023
:103900006E2BE42FE19521E01E1608F020E04E2FEB
:10391000461B61E0E41708F060E0262B519561E05A
:10392000151608F060E0A52FA21B21E05A1708F039
:1039300020E0622BEC2DE19521E01E1608F020E03E
:10394000CE2EC61A51E0EC1508F050E0252B7195EB
:1039500061E0171608F060E0F72FF21B21E07F17F7
:1039600008F020E0622BE82FE19521E01E1608F018
:1039700020E08E2F861B51E0E81708F050E0252B41
:1039800091955A2F7F2F921B202F6C2DC85BDF4FF4
:10399000E2E10C94E3EA80915D0B90915E0B00975D
:1039A00029F481E08093640B80E0089580915F0B9F
:1039B0009091600B20915B0B30915C0BB9010E94E0
:1039C00063EAE091610BF091620BE80FF91F8091BF
:1039D0005F0B9091600B0196B9010E9463EA90938E
:1039E000600B80935F0B80915D0B90915E0B019754
:1039F00090935E0B80935D0B80810895F8942091E5
:103A00005D0B30915E0B80915B0B90915C0B821B88
:103A1000930B7894089580935A0B089580915A0BD4
:103A20000895DC01CB0180934C0B90934D0BA09338
:103A30004E0BB0934F0B08950F931F9300914C0BB7
:103A400010914D0B20914E0B30914F0BB801C901D5
:103A50001F910F91089520915D0B30915E0B81E0D5
:103A60002115310509F080E00895482F80915D0B04
:103A700090915E0B60915B0B70915C0B86179707C2
:103A8000E8F420915D0B30915E0B80915F0B90917B
:103A9000600B820F931F0E9463EAE091610BF0912B
:103AA000620BE80FF91F408380915D0B90915E0BD4
:103AB000019690935E0B80935D0B089581E0EBE59A
:103AC000FBE0808708950E94CB1C0895CF930E944D
:103AD000CB1CC82F0E94CB1C982F8C2FCF91089500
:103AE0001F93CF93DF9300D0CDB7DEB70E94CB1CDE
:103AF0008A830E94CB1C89830E94CB1C182F0E94B2
:103B0000CB1C982F6A817981812F0F900F90DF91C4
:103B1000CF911F910895CF9310924C0B10924D0BA3
:103B200010924E0B10924F0B85E69DE060E070E026
:103B30000E945C3FFC01108211821282138285E692
:103B40009DE061E070E00E945C3FFC011082118208
:103B50001282138285E69DE062E070E00E945C3F85
:103B6000FC01108211821282138285E69DE063E0DF
:103B700070E00E945C3FFC0110821182128213826D
:103B800085E69DE064E070E00E945C3FFC011082ED
:103B900011821282138210925E0B10925D0B1092B2
:103BA000600B10925F0B1092630B1092640B1092DB
:103BB000430B1092440B1092450B1092460B10923F
:103BC000470B1092480B1092490B10924A0B10921F
:103BD0003B0B10923C0B10923D0B10923E0B10923F
:103BE0003F0B1092400B1092410B1092420B10921F
:103BF000330B1092340B1092350B1092360B10923F
:103C0000370B1092380B1092390B10923A0BC1E01F
:103C1000C093320BC093310B1092300B10922F0BCC
:103C200086E291E063E00E94F57780FF03C0C093D5
:103C3000100B02C01092100BCF910895AF92BF925B
:103C4000DF92EF92FF920F931F93CF93DF930F9228
:103C5000CDB7DEB7D82E7B010E94B255882371F113
:103C60000E948B555C010E9488558C01C5010E9401
:103C700031C40E945E58682FC5010E9477C4C501F7
:103C80006D2D0E9477C40E94C55502C00E94215626
:103C90000E941C568823D1F3F80182A1882341F4A5
:103CA000C80161E00E9411C4F701808381E001C076
:103CB00080E089830E94C255898101C080E00F9015
:103CC000DF91CF911F910F91FF90EF90DF90BF9008
:103CD000AF900895CF93DF930F92CDB7DEB784E214
:103CE000BE016F5F7F4F0E941E1E882319F09981CD
:103CF00081E090FF80E00F90DF91CF910895CF9306
:103D0000DF930F92CDB7DEB783E2BE016F5F7F4FC7
:103D10000E941E1E882321F081E09981992309F4D5
:103D200080E00F90DF91CF91089580913B0B8091BF
:103D30003C0B80913D0B80913E0B80913F0B80911D
:103D4000400B8091410B8091420B20913B0B87FDF2
:103D50000FC030913C0B40913D0B50913E0B609158
:103D60003F0B7091400B8091410B9091420B089555
:103D700040913C0B70913D0B60913E0BA0913F0B2D
:103D8000E091400BF091410B9091420B219531E075
:103D9000121608F030E0419581E0141608F080E03A
:103DA000542F531B352F51E0431708F050E0852B5B
:103DB000719551E0171608F050E0472F481B81E03D
:103DC000741708F080E0582B619581E0161608F012
:103DD00080E0762F751B572F71E0651708F070E0B3
:103DE000872BA19571E01A1608F070E06A2F681B06
:103DF00081E0A61708F080E0782BE19581E01E169F
:103E000008F080E0AE2FA71B7A2FA1E0E71708F09B
:103E1000A0E08A2BF195E1E01F1608F0E0E0AF2F5B
:103E2000A81B8A2FA1E0F81708F0A0E0EA2B9195D3
:103E30009E1B0895AF92BF92CF92DF92EF92FF92B6
:103E40000F931F93CF93DF930E94951ED22FF32ED3
:103E5000E42ED52EC62EB72EA82EC92F191694F0F3
:103E6000992309F099C0882369F4772359F46623CC
:103E700049F4552339F4442329F4332319F4222334
:103E800009F48AC083EB90E000E010E020E030E02D
:103E900040E050E060E070E00E94FE77022F0D0FDE
:103EA00011E0021708F010E0F30E21E0F31608F01D
:103EB00020E01F0D31E01F1508F030E0232BE40E49
:103EC00031E0E41608F030E02E0D41E02E1508F048
:103ED00040E0342BD50E41E0D51608F040E03D0D12
:103EE00051E03D1508F050E0452BC60E51E0C616D6
:103EF00008F050E04C0D61E04C1508F060E0562BE6
:103F0000B70E61E0B71608F060E05B0D71E05B157D
:103F100008F070E0672BA80E71E0A81608F070E0BA
:103F20006A0D81E06A1508F080E0782BC90F7C0FDC
:103F300083EB90E00E94897870913B0B60913C0B81
:103F400050913D0B40913E0B30913F0B2091400B27
:103F50009091410B8091420B7093330B6093340B23
:103F60005093350B4093360B3093370B2093380B1F
:103F70009093390B80933A0B10923B0B10923C0BB1
:103F800010923D0B10923E0B10923F0B1092400B83
:103F90001092410B1092420BDF91CF911F910F9124
:103FA000FF90EF90DF90CF90BF90AF9008958091F9
:103FB000330B8091340B8091350B8091360B8091BF
:103FC000370B8091380B8091390B80913A0B2091FF
:103FD000330B87FD0FC03091340B4091350B50915E
:103FE000360B6091370B7091380B8091390B9091A3
:103FF0003A0B08954091340B7091350B6091360B5C
:10400000A091370BE091380BF091390B90913A0B5E
:10401000219531E0121608F030E0419581E0141648
:1040200008F080E0542F531B352F51E0431708F060
:1040300050E0852B719551E0171608F050E0472F9E
:10404000481B81E0741708F080E0582B619581E0EF
:10405000161608F080E0762F751B572F71E0651754
:1040600008F070E0872BA19571E01A1608F070E057
:104070006A2F681B81E0A61708F080E0782BE19595
:1040800081E01E1608F080E0AE2FA71B7A2FA1E07A
:10409000E71708F0A0E08A2BF195E1E01F1608F081
:1040A000E0E0AF2FA81B8A2FA1E0F81708F0A0E0EE
:1040B000EA2B91959E1B0895AF92BF92CF92DF920B
:1040C000EF92FF920F931F932091430B3091440B7B
:1040D0004091450B5091460B6091470B7091480BF6
:1040E0008091490B90914A0BE0E4AE2EF2E4BF2E92
:1040F000AFE0CA2EDD24EE24FF2400E010E00E9491
:10410000ED0D952FB901842F1F910F91FF90EF9026
:10411000DF90CF90BF90AF900895CF93DF930F9231
:10412000CDB7DEB790914B0B992311F1882301F5A0
:104130001092540B1092550B1092560B1092570B75
:104140001092500B1092510B1092520B1092530B75
:1041500010925E0B10925D0B1092600B10925F0B31
:104160001092630B1092640B89830E9482418981B3
:104170001092430B1092440B1092450B1092460B79
:104180001092470B1092480B1092490B10924A0B59
:1041900010923B0B10923C0B10923D0B10923E0B79
:1041A00010923F0B1092400B1092410B1092420B59
:1041B00080934B0B0F90DF91CF91089580914B0B23
:1041C000882319F080E00E948D201092540B1092E9
:1041D000550B1092560B1092570B1092500B1092D9
:1041E000510B1092520B1092530B10925E0B1092C7
:1041F0005D0B1092600B10925F0B1092630B10928C
:10420000640B0E9482411092430B1092440B109257
:10421000450B1092460B1092470B1092480B1092D0
:10422000490B10924A0B81E08093320B8093310B43
:104230000E941A1F1092330B1092340B1092350B00
:104240001092360B1092370B1092380B1092390BDC
:1042500010923A0B0895DF92EF92FF920F931F9303
:10426000CF93DF93DC01CB012091430B4091440BB2
:104270007091450BE090460BF090470B0091480B76
:104280001091490BD0904A0B622F680F51E06217D2
:1042900008F050E0242F290F31E0241708F030E017
:1042A000520F41E0521708F040E0342B472F4A0FDD
:1042B00021E0471708F020E0340F71E0341708F0D0
:1042C00070E0272B9E2D9B0F41E09E1508F040E0EB
:1042D000290F81E0291708F080E0842B8F0D41E041
:1042E0008F1508F040E0400F91E0401708F090E093
:1042F000910F71E0911708F070E07D0D6093430B12
:104300005093440B3093450B2093460B8093470BFF
:104310004093480B9093490B70934A0BDF91CF91D8
:104320001F910F91FF90EF90DF900895EF92FF9211
:104330000F931F93CF93DF93CDB7DEB700E010E06C
:1043400085E69DE0B8010E945C3F7C01CE010996A4
:10435000B8010E945C3FFC0180819181A281B38100
:10436000F70180839183A283B3830F5F1F4F0530D2
:10437000110531F7DF91CF911F910F91FF90EF90D1
:1043800008954F925F926F927F928F929F92AF9219
:10439000BF92CF92DF92EF92FF920F931F93CF9332
:1043A000DF93CDB7DEB768970FB6F894DEBF0FBEC8
:1043B000CDBF2E010894411C511CC2010E94FD3E3C
:1043C000CC24DD248201C801B6010E945C3F7C013F
:1043D00085E69DE0B6010E945C3FDC018D909D90DA
:1043E000AD90BC90CE018B96B6010E945C3FFC0163
:1043F00080819181A281B381881A990AAA0ABB0A95
:10440000B7FE08C0B094A09490948094811C911C35
:10441000A11CB11CD7018D929D92AD92BC921397B5
:104420000894C11CD11CB5E0CB16D10461F62E0155
:104430000894411C511CC20160E070E00E945C3F86
:10444000FC0180809180A280B380CC24DD24152DD6
:10445000842D912FB6010E945C3FFC0180819181E7
:10446000A281B38188169906AA06BB065CF4842D46
:10447000912FB6010E945C3FDC018D909D90AD9024
:10448000BC9013970894C11CD11CB5E0CB16D10485
:10449000F9F675016401FF0CCC08DC2C760123963B
:1044A0004CAC5DAC6EAC7FAC2397770C4408542CBD
:1044B00032019401A5016C2D7C2D8C2D9C2DAFAC6F
:1044C0002196BFAC21972296CFAC22972396DFACE2
:1044D0002397E42CF42C042D142D0E94320CF0911F
:1044E000430BE091440BD090450BE090460BA0911C
:1044F000470BF090480B0091490B10914A0B2F0F7E
:10450000B1E02F1708F0B0E03E0FF1E03E1708F0E1
:10451000F0E0B30FE1E0B31708F0E0E0FE2B4D0D43
:10452000E1E04D1508F0E0E0F40F31E0F41708F099
:1045300030E0E32B5E0D31E05E1508F030E0E50F72
:1045400041E0E51708F040E0342B6A0F41E06A17BC
:1045500008F040E0A32FA60F31E0A61708F030E0E6
:10456000432B7F0D31E07F1508F030E0470F51E01D
:10457000471708F050E0352B502F580F61E05017C7
:1045800008F060E0350F81E0351708F080E0862BF9
:10459000910F890F2093430BB093440BF093450B7D
:1045A000E093460BA093470B4093480B3093490B85
:1045B00080934A0B80914B0B882309F040C11091E6
:1045C0003B0B40903C0B80903D0BC0903E0B00910C
:1045D0003F0BF090400BE090410BD090420BCE018E
:1045E0008B9663E070E00E945C3FDC012D913D9171
:1045F0004D915C912D8B3E8B4F8B588F85E69DE0C6
:1046000063E070E00E945C3FFC0180819181A281A7
:10461000B3812D893E894F89588D281B390B4A0B50
:104620005B0BDA01C901292FEA2FAB2EAC01BD01CA
:10463000770F440B542FBA01B42E342FF42F810F6F
:10464000A1E0811708F0A0E0240D91E0241508F006
:1046500090E0A20F51E0A21708F050E0952BE80D72
:1046600021E0E81508F020E0B92FBE0F91E0BE1759
:1046700008F090E0292B7C2D7A0D91E07C1508F054
:1046800090E0E22FE70F21E0E71708F020E0922BFF
:10469000602F6B0D21E0601708F020E0792F760F76
:1046A00091E0761708F090E0292B3F0D91E03F153F
:1046B00008F090E0230F51E0231708F050E0952B0D
:1046C0005E2D5F0F31E05E1508F030E0692F650F59
:1046D00091E0651708F090E0392B4D0D340F809371
:1046E0003B0BA0933C0BB0933D0BE0933E0B7093C0
:1046F0003F0B2093400B6093410B3093420B409053
:104700003B0B80903C0BC0903D0B10913E0B0091F9
:104710003F0BF090400BE090410BD090420BCE014C
:104720008B9664E070E00E945C3FDC012D913D912E
:104730004D915C912D8B3E8B4F8B588F85E69DE084
:1047400064E070E00E945C3FFC0180819181A28165
:10475000B3812D893E894F89588D281B390B4A0B0F
:104760005B0BDA01C901292FEA2FAB2EAC01BD0189
:10477000770F440B542FBA01B42E342FF42F840D2D
:10478000A1E0841508F0A0E0280D91E0281508F0BC
:1047900090E0A20F51E0A21708F050E0952BEC0D2D
:1047A00021E0EC1508F020E0B92FBE0F91E0BE1714
:1047B00008F090E0292B712F7A0D91E0711708F025
:1047C00090E0E22FE70F21E0E71708F020E0922BBE
:1047D000602F6B0D21E0601708F020E0792F760F35
:1047E00091E0761708F090E0292B3F0D91E03F15FE
:1047F00008F090E0230F51E0231708F050E0952BCC
:104800005E2D5F0F31E05E1508F030E0692F650F17
:1048100091E0651708F090E0392B4D0D340F80932F
:104820003B0BA0933C0BB0933D0BE0933E0B70937E
:104830003F0B2093400B6093410B3093420BCC24F1
:10484000DD2485E69DE0B6010E945C3F4C01CE016F
:104850008B96B6010E945C3FFC0180819181A28110
:10486000B381F40180839183A283B3830894C11C34
:10487000D11CF5E0CF16D10421F768960FB6F89455
:10488000DEBF0FBECDBFDF91CF911F910F91FF9083
:10489000EF90DF90CF90BF90AF909F908F907F90E0
:1048A0006F905F904F9008953F924F925F926F92FA
:1048B0007F928F929F92AF92BF92CF92DF92EF92B0
:1048C000FF920F931F93CF93DF9300D0CDB7DEB746
:1048D0008AA59BA5ACA5BDA5292FEA2FAB2EAC01BF
:1048E000BD01770F440B542FBA01B42E342FE42EA0
:1048F000F091430B7091440B6091450BC090460BB7
:10490000D090470B5091480B0091490BF0904A0B07
:104910008F0FA1E08F1708F0A0E0270F91E0271775
:1049200008F090E0A20FF1E0A21708F0F0E09F2B52
:10493000E60F21E0E61708F020E0F92FFE0F91E0E6
:10494000FE1708F090E0292B7C2D7A0D91E07C1564
:1049500008F090E0E22FE70F21E0E71708F020E0F1
:10496000922B6D2D6B0D21E06D1508F020E0792F55
:10497000760F91E0761708F090E0292B350F91E043
:10498000351708F090E0230F51E0231708F050E0AE
:10499000952B502F5E0D31E0501708F030E0692F55
:1049A000650F91E0651708F090E0392B4F0D340F3B
:1049B0008093430BA093440BF093450BE093460B7D
:1049C0007093470B2093480B6093490B30934A0B2D
:1049D0003DEF432E00E010E08EA5282F30E03A8313
:1049E000298389819A81002E02C0959587950A9422
:1049F000E2F790914B0B80FFA5C0992309F087C087
:104A000031E0341508F483C0F0903B0BE0903C0B90
:104A1000D0903D0BC0903E0BB0903F0BA090400B50
:104A20009090410B6090420BCE014696B8010E94D7
:104A30005C3FFC0180819181A281B381792E8A2E15
:104A4000FB2FAC01BD01770F440B542FBA01E42FAB
:104A5000342F242F8F0D61E08F1508F060E07E0C5D
:104A600091E07E1408F090E0670D51E0671508F0C2
:104A700050E0952B8D0C51E08D1408F050E0792F0B
:104A8000780D91E0781508F090E0592BFC0D91E03D
:104A9000FC1508F090E0A52FAF0F51E0AF1708F01C
:104AA00050E0952BEB0D51E0EB1508F050E0F92F9D
:104AB000FE0F91E0FE1708F090E0592B3A0D91E0BF
:104AC0003A1508F090E0530FE1E0531708F0E0E0EA
:104AD0009E2B392D320FE1E0391508F0E0E0930FFD
:104AE00021E0931708F020E02E2B460D240F809331
:104AF0003B0B60933C0B70933D0BA0933E0BF093EC
:104B00003F0B5093400B9093410B2093420B85E653
:104B10009DE0B8010E945C3F5C01FC01C080D18037
:104B2000E280F380CE014696B8010E945C3FFC0112
:104B300080819181A281B3818C0D9D1DAE1DBF1D11
:104B4000F501ADC0992309F099C0F1E0F41508F41E
:104B500095C0B0903B0BA0903C0B90903D0B80908B
:104B60003E0B70903F0B6090400B5090410B30908B
:104B7000420BCE014696B8010E945C3FFC01C0800A
:104B8000D180E280F38085E69DE0B8010E945C3F21
:104B9000FC0180819181A281B381A7019601281B2C
:104BA000390B4A0B5B0BDA01C901E92EFA2EFB2FF8
:104BB000BA01A901770F440B542FBA01E42F342F07
:104BC000242F8B0D61E08B1508F060E0EA0C91E07A
:104BD000EA1408F090E06E0D51E06E1508F050E018
:104BE000952BF90C51E0F91408F050E0792F7F0D66
:104BF00091E07F1508F090E0592BF80D91E0F81541
:104C000008F090E0A52FAF0F51E0AF1708F050E08B
:104C1000952BE70D51E0E71508F050E0F92FFE0F56
:104C200091E0FE1708F090E0592B360D91E0361513
:104C300008F090E0530FE1E0531708F0E0E09E2BFE
:104C4000352D320FE1E0351508F0E0E0930F21E05B
:104C5000931708F020E02E2B430D240F80933B0B7D
:104C600060933C0B70933D0BA0933E0BF0933F0B76
:104C70005093400B9093410B2093420B85E69DE0AF
:104C8000B8010E945C3F7C01CE014696B8010E94AB
:104C90005C3FFC0180819181A281B381F701808317
:104CA0009183A283B3830F5F1F4F4394F2E04F16AB
:104CB00009F097CE0F900F90DF91CF911F910F9138
:104CC000FF90EF90DF90CF90BF90AF909F908F902C
:104CD0007F906F905F904F903F9008952F923F92FA
:104CE0004F925F926F927F928F929F92AF92BF92FC
:104CF000CF92DF92EF92FF920F931F93CF93DF93A8
:104D0000CDB7DEB7CC54D0400FB6F894DEBF0FBE9F
:104D1000CDBF8091580B9091590B01969093590BF0
:104D20008093580B2FE0803A920708F495C21092B6
:104D3000590B1092580BCE0142966CED71E10E9416
:104D4000F76ECE0142960E9492C3882309F084C276
:104D5000CE0142960E948DC32D969FAF8EAF2D97A8
:104D60008430910509F044C24091500B5091510B91
:104D70006091520B7091530B8091540B9091550B95
:104D8000A091560BB091570B80509543A040B04076
:104D9000481759076A077B0708F05EC229C2CE018F
:104DA000839661E00E9416C48C0180E260E070E0AE
:104DB000AE014D5D5F4F20E030E00E94B6378823A2
:104DC00039F0CE01839661E00E9416C41C0102C036
:104DD000222433248EE160E070E0AE014D5D5F4F30
:104DE00020E030E00E94B637882339F0CE01839668
:104DF00061E00E9416C42C0102C04424552481E2C3
:104E000060E070E0AE014D5D5F4F20E030E00E9459
:104E1000B637882351F0CE01839661E00E9416C414
:104E20002B969FAF8EAF2B9704C02B961FAE1EAE56
:104E30002B97B80180E090E021143104C9F50E945D
:104E400061E820E030E040E452E40E940EE720E018
:104E500030E040E453E40E948AE720E030E048EC90
:104E600052E40E94D5E94B016C01862F992DAC2D9F
:104E7000BD2DBC01CD0120E030E048EC52E40E94A1
:104E8000A1E9181634F48824992478ECC72EE2E4BA
:104E9000DE2E882D992DAC2DBD2DBC01CD0120E03D
:104EA00030E040E050E00E9486E787FD5BC06AC0CA
:104EB0000E9461E820E030E040E951E40E940EE702
:104EC0006B017C01B10180E090E00E9461E820E08C
:104ED00030E040E951E40E940EE79B01AC01C701BC
:104EE000B6010E948AE720E030E048EC52E40E94DC
:104EF000D5E94B016C01862F992DAC2DBD2DBC0140
:104F0000CD0120E030E048EC52E40E94A1E91816FF
:104F100034F48824992458ECC52E62E4D62E882DCA
:104F2000992DAC2DBD2DBC01CD0120E030E040E03D
:104F300050E00E9486E787FF04C088249924CC248F
:104F4000DD24AA20A1F4882D992DAC2DBD2DBC0106
:104F5000CD0120E030E048EC52E40E94A1E987FF57
:104F60000BC010C088249924CC24DD240BC08824D5
:104F7000992448ECC42E04C08824992436ECC32E0E
:104F800022E4D22EB20180E090E02B962EAD3FAD10
:104F90002B9721153105B9F50E9461E820E030E03A
:104FA00040E452E40E940EE720E030E040E952E4A1
:104FB0000E948AE720E030E048EC52E40E94D5E904
:104FC0007B018C01862F9F2DA02FB12FBC01CD011D
:104FD00020E030E048EC52E40E94A1E9181624F4E5
:104FE000EE24FF2408EC12E48E2D9F2DA02FB12F6C
:104FF000BC01CD0120E030E040E050E00E9486E7B7
:1050000087FD5DC069C00E9461E820E030E040E9B2
:1050100051E40E940EE72B013C012B962EAD3FADD3
:105020002B97B90180E090E00E9461E820E030E039
:1050300040E951E40E940EE79B01AC01C301B201BB
:105040000E948AE720E030E048EC52E40E94D5E973
:105050007B018C01862F9F2DA02FB12FBC01CD018C
:1050600020E030E048EC52E40E94A1E9181624F454
:10507000EE24FF2408EC12E48E2D9F2DA02FB12FDB
:10508000BC01CD0120E030E040E050E00E9486E726
:1050900087FF04C0EE24FF2400E010E0BB20A1F451
:1050A0008E2D9F2DA02FB12FBC01CD0120E030E02F
:1050B00048EC52E40E94A1E987FF0AC00DC0EE242B
:1050C000FF2400E010E008C0EE24FF2408EC03C039
:1050D000EE24FF2406EC12E4582D492D3C2D2D2DF5
:1050E0002114310409F09EC02B968EAD9FAD2B97F5
:1050F000009709F097C0882D992DAC2DBD2DBC01CE
:10510000CD0120E030E040E050E00E9486E7181634
:105110004CF536C08E2D9F2DA02FB12FBC01CD0197
:1051200020E030E048EC52E40E94A1E987FD88C00D
:105130004091500B5091510B6091520B7091530B59
:105140008091540B9091550BA091560BB091570B39
:1051500080509543A040B040481759076A077B0725
:10516000F0F46EC08E2D9F2DA02FB12FBC01CD016C
:1051700020E030E040E050E00E9486E718165CF442
:105180002D962EAD3FAD2D972130310521F093E0C6
:10519000A92EB12C07C081E0A82EB12C03C0B4E029
:1051A000AB2EB12C882D992DAC2DBD2DBC01CD0180
:1051B0004E2C5F2C602E712EA30192010E94A1E95A
:1051C00087FD02C074018601CE0101966CED71E18C
:1051D0000E94F76ECE010196B501502F412F0E2D82
:1051E0001F2D252F342FA90198010E9440C334C0E0
:1051F0000E946A1EA82E0E947F1EB82ECE018396A2
:105200000E9429C482E060E070E0AE014D5D5F4F16
:1052100020E030E00E94B637882309F0C0CD00E0DE
:1052200010E0C3CD852F942FA32FB22FBC01CD0149
:1052300020E030E048EC52E40E94A1E987FF6ACF09
:105240002D968EAD9FAD2D978430910509F4A7CF93
:10525000A2E0AA2EB12CA6CFC45BDF4F0FB6F89404
:10526000DEBF0FBECDBFDF91CF911F910F91FF9099
:10527000EF90DF90CF90BF90AF909F908F907F90F6
:105280006F905F904F903F902F9008953F924F9274
:105290005F926F927F928F929F92AF92BF92CF92C6
:1052A000DF92EF92FF920F931F93CF93DF93CDB7CF
:1052B000DEB7C756D1400FB6F894DEBF0FBECDBFE4
:1052C0008091540B9091550BA091560BB091570BB8
:1052D0000196A11DB11D8093540B9093550BA09383
:1052E000560BB093570B80914B0B882311F40E94FF
:1052F0006E260E94BA40882309F53FC020915D0BBD
:1053000030915E0B80915F0B9091600B820F931F29
:105310000E9463EAE091610BF091620BE80FF91FC4
:10532000408380915D0B90915E0B019690935E0B94
:1053300080935D0B04C00093630B01C001E080917A
:105340005D0B90915E0B20915B0B30915C0B2817ED
:10535000390799F00E940D41882379F00E9410418D
:10536000482F80915D0B90915E0B60915B0B70916B
:105370005C0B8617970710F2DECF20915A0B222381
:1053800031F080914B0B882311F40C949934809167
:105390004C0B90914D0BA0914E0BB0914F0B009781
:1053A000A105B10539F1222329F5CE01875D9E4F74
:1053B0000E941144CE01875D9E4F62E070E00E9422
:1053C000543F40914C0B50914D0B60914E0B70919E
:1053D0004F0BFC0180819181A281B38184179507D5
:1053E000A607B7073CF080914B0B882319F481E0A6
:1053F00080935A0B80914B0B8823B9F080912F0B2F
:105400009091300B8330910561F08130910549F026
:105410008230910531F08430910519F08530910585
:1054200021F41092300B10922F0B80912F0B909142
:10543000300B8330910581F40E941843882341F09A
:105440008BE19BE00E94CCE3882331F00E948A53D9
:105450001092300B10922F0B80912F0B9091300BEC
:105460008130910541F40E941843882321F4109261
:10547000300B10922F0B80912F0B9091300B8230BC
:10548000910551F485E29BE00E94CCE3882321F052
:105490001092300B10922F0B80912F0B9091300BAC
:1054A0008430910571F481E19BE00E94CCE3882374
:1054B00021F40E946A1E882321F01092300B109272
:1054C0002F0B80912F0B9091300B8530910571F44B
:1054D00081E19BE00E94CCE3882321F40E947F1E9F
:1054E000882321F01092300B10922F0B8091100B1B
:1054F000882309F46CC080912F0B9091300B00979A
:1055000009F065C080914B0B882309F060C0809141
:105510005D0B90915E0B009711F40C94993480917F
:105520005D0B90915E0B009721F481E08093640BFA
:1055300048C080915F0B9091600B60915B0B709104
:105540005C0B0E9463EAE091610BF091620BE80F43
:10555000F91F80818138D9F18B38C9F18E38B9F1C2
:105560008238A9F18C3899F1883859F580915D0B12
:1055700090915E0B8530910520F180915F0B9091A9
:10558000600B20915B0B30915C0BE091610BF09113
:10559000620B0296B9010E9463EA8E0F9F1FDC0125
:1055A0008C918D30A1F080915F0B9091600B0296F1
:1055B000B9010E9463EA8E0F9F1FFC0180818A302F
:1055C00031F00E9423D0882311F40C949934CE0139
:1055D0008B5E9E4F0E94FD3E80912F0B9091300B71
:1055E000009711F00C94993480915D0B90915E0BB3
:1055F000009711F40C94993480915F0B9091600B9B
:1056000020915B0B30915C0BE091610BF091620B90
:10561000B9010E9463EA8E0F9F1FDC010C910138D3
:1056200009F09DC08091540B9091550BA091560BA1
:10563000B091570B8093500B9093510BA093520B4A
:10564000B093530B80915D0B90915E0B813191056E
:1056500010F40C9499340E94CB1C81E090E090935C
:10566000300B80932F0B0E94701D2B013C010E9478
:10567000701DCF5ADE4F688379838A839B83C1551F
:10568000D1400E94701D4B015C010E94701DCB5ADD
:10569000DE4F688379838A839B83C555D140CE01D1
:1056A0008F5F9E4FB301A201CF5ADE4F088119814F
:1056B0002A813B81C155D140750164010E94323F6E
:1056C000EDB7FEB778970FB6F894FEBF0FBEEDBFEB
:1056D0002DB73EB72F5F3F4FF901DE01AF5FBE4FE1
:1056E00084E10D9001928150E1F7CB5ADE4F888121
:1056F0009981AA81BB81C555D140F901848B958BD5
:10570000A68BB78B0E94C1218DB79EB748960FB666
:10571000F8949EBF0FBE8DBF80914B0B882311F074
:105720000C949934CE0183519F4FB301A201CF5AFB
:10573000DE4F088119812A813B81C155D140750115
:1057400064010E94323FCE0183519F4FCB5ADE4FFE
:10575000488159816A817B81C555D140F9C00B3898
:1057600009F0F9C08091540B9091550BA091560B04
:10577000B091570B8093500B9093510BA093520B09
:10578000B093530B80915D0B90915E0B8931910525
:1057900010F40C9499340E94CB1C81E090E090931B
:1057A000300B80932F0B0E94701DCF5ADE4F688301
:1057B00079838A839B83C155D1400E94701DCB5A47
:1057C000DE4F688379838A839B83C555D1400E94CD
:1057D000701D2B013C010E94701DC75ADE4F68836B
:1057E00079838A839B83C955D1400E94701DC35A17
:1057F000DE4F688379838A839B83CD55D1400E9495
:10580000701DCF59DE4F688379838A839B83C1568D
:10581000D14000D000D0C35ADE4F88819981AA813F
:10582000BB81CD55D140EDB7FEB781839283A38371
:10583000B483CE0187529F4FCF5ADE4F48815981A2
:105840006A817B81C155D140CB5ADE4F08811981D5
:105850002A813B81C555D14073016201C75ADE4F91
:1058600088809980AA80BB80C955D1400E94FE3EA5
:105870008DB79EB744970FB6F8949EBF0FBE8DBFED
:105880002DB73EB72F5F3F4FF901DE01A752BF4F43
:1058900084E10D9001928150E1F7CF59DE4F88816C
:1058A0009981AA81BB81C156D140F901848B958B26
:1058B000A68BB78B0E94C1218DB79EB748960FB6B5
:1058C000F8949EBF0FBE8DBF80914B0B882311F0C3
:1058D0000C94993400D000D0C35ADE4F888199814E
:1058E000AA81BB81CD55D140EDB7FEB781839283AC
:1058F000A383B483CE018B539F4FCF5ADE4F488191
:1059000059816A817B81C155D140CB5ADE4F0881D4
:1059100019812A813B81C555D14073016201C75A63
:10592000DE4F88809980AA80BB80C955D1400E94F3
:10593000FE3E0F900F900F900F90CE018B539F4F14
:10594000CF59DE4F488159816A817B81C156D14050
:105950000E94D551EEC70E3809F0FCC08091540B5F
:105960009091550BA091560BB091570B8093500B13
:105970009093510BA093520BB093530B80915D0BFE
:1059800090915E0B8A31910508F4D3C70E94CB1C1D
:1059900081E090E09093300B80932F0B0E94701D5C
:1059A000CF5ADE4F688379838A839B83C155D14068
:1059B0000E94701DCB5ADE4F688379838A839B8354
:1059C000C555D1400E94701D2B013C010E94701DE5
:1059D000C75ADE4F688379838A839B83C955D14038
:1059E0000E94701DC35ADE4F688379838A839B832C
:1059F000CD55D1400E94701DCF59DE4F6883798309
:105A00008A839B83C156D1400E94631D382E00D0EB
:105A100000D0C35ADE4F88819981AA81BB81CD55C0
:105A2000D140EDB7FEB781839283A383B483CE01C7
:105A30008F549F4FCF5ADE4F488159816A817B81B5
:105A4000C155D140CB5ADE4F088119812A813B8153
:105A5000C555D14073016201C75ADE4F88809980D5
:105A6000AA80BB80C955D1400E94FE3E8DB79EB72B
:105A700045970FB6F8949EBF0FBE8DBF2DB73EB7AA
:105A80002F5F3F4FF901DE01AF54BF4F84E10D900E
:105A900001928150E1F7CF59DE4F88819981AA8127
:105AA000BB81C156D140F901848B958BA68BB78BF6
:105AB000308E0E9454248DB79EB749960FB6F89445
:105AC0009EBF0FBE8DBF80914B0B882309F031C75D
:105AD00000D000D0C35ADE4F88819981AA81BB8152
