:100000000C9462040C9494040C9494040C94940442
:100010000C9494040C9494040C9494040C94940400
:100020000C9494040C94F6670C9494040C9494042B
:100030000C9494040C9452670C9494040C949404BF
:100040000C9494040C9494040C9494040C949404D0
:100050000C94E06C0C9494040C94086D0C9494042F
:100060000C9494040C9494040C9494040C949404B0
:100070000C943D6D0C9494040C94716DA022E422B8
:10008000E722CB22F422A923A923CB223C23A923B4
:100090004B23502365236A23FE2207231523CB22FB
:1000A0003723A923B322F9226F237D238423A92395
:1000B000A923882324F404D9201BC40C5C0E9804C3
:1000C000C4095F0265077101F405F900FB04B30080
:1000D00048048700C1036900580355000303450025
:1000E000BE023A008402310053022A002902250090
:1000F00004022000E4011C00C8011900AF01170030
:1001000098011400840113007101100061011000B6
:1001100051010E0043010D0036010B002B010B00B5
:1001200020010B00150109000C0109000301080062
:10013000FB000800F3000800EB000700E4000600E5
:10014000DE000600D8000600D2000600CC00050044
:10015000C7000500C2000500BD000400B90004008E
:10016000B5000400B1000400AD000400A9000400C3
:10017000A5000300A20003009F0004009B000300F1
:100180009800030095000200930003009000030014
:100190008D0002008B000300880002008600020030
:1001A00084000300810002007F0002007D00020045
:1001B0007B00020079000200770001007600020057
:1001C0007400020072000100710002006F00020062
:1001D0006D0001006C0002006A000100690002006D
:1001E0006700010066000100650001006400020074
:1001F0006200010061000100600001005F00020078
:100200005D0001005C0001005B0001005A0001007C
:10021000590001005800010057000100560001007C
:10022000550001005400010053000000530001007C
:100230005200010051000100500001004F00010078
:100240004E0000004E0001004D0001004C00010076
:100250004B0000004B0001004A0001004900010072
:10026000480000004800010047000100460000006F
:100270004600010045000000450001004400010067
:100280004300000043000100420000004200010062
:100290004100000041000100400001003F0000005B
:1002A0003F0001003E0000003E0001003D00000054
:1002B0003D0001003C0000003C0000003C0001004B
:1002C0003B0000003B0001003A0000003A00010042
:1002D000390000003900010038000000380000003B
:1002E0003800010037000000370001003600000030
:1002F0003600000036000100350000003500000027
:10030000350001003400000034000000340001001A
:100310003300000033000000330001003200000011
:100320003200000032000100310000003100000006
:1003300031000100300000003000000030000100FA
:100340002F0000002F0000002F0000002F000100F0
:100350002E0000002E0000002E0001002D000000E5
:100360002D0000002D0000002D0001002C000000D9
:100370002C0000002C0000002C0001002B000000CD
:100380002B0000002B0000002B0001002A000000C1
:100390002A0000002A0000002A00010029000000B5
:1003A00029000000290000002900000029000100A8
:1003B000280000002800000028000000280000009D
:1003C000280001002700000027000000270000008F
:1003D0002700000027000100260000002600000082
:1003E0002600000026000000260001002500000075
:1003F0002500000025000000250000002500000069
:10040000250001002400000024000000240000005A
:10041000240000002400010023000000230000004D
:100420002300000023000000230000002300000040
:100430002300010022000000220000002200000032
:100440002200000022000000220001002100000024
:100450002100000021000000210000002100000018
:100460002100000021000100200000002000000009
:1004700020000000200000002000000020000000FC
:1004800020000000200001001F0000001F000000ED
:100490001F0000001F0000001F0000001F000000E0
:1004A0001F0001001E0000001E0000001E000000D2
:1004B0001E00000024F4D43050C38E20C2A2401786
:1004C000828B7011127A910D816CD90AA861E108B2
:1004D000C7586607615143061E4B5D05C145A70419
:1004E0001A411104093D9803713931034036DB028A
:1004F00065339102D4305402802E1D02632CEE012C
:10050000752AC501B028A001102781018F2564013B
:100510002B244B01E0223401AC211F018D200D0161
:10052000801FFC00841EED00971DDF00B81CD20068
:10053000E61BC600201BBC00641AB200B219A8005A
:100540000A19A0006A189900D117910040178B0072
:10055000B516840031167E00B31579003A15730084
:10056000C7146F0058146A00EE1366008813630006
:1005700025135E00C7125B006C1257001512540061
:10058000C111510070114F0021114B00D6104900CC
:100590008D1047004610440002104200C00F40007A
:1005A000800F3E00420F3C00060F3B00CB0E380090
:1005B000930E37005C0E3500270E3400F30D320029
:1005C000C10D3100900D3000600D2E00320D2D0058
:1005D000050D2C00D90C2B00AE0C2900850C290030
:1005E0005C0C2700350C27000E0C2600E80B2400BD
:1005F000C40B2400A00B23007D0B23005A0B210009
:10060000390B2100180B2000F80A1F00D90A1E0020
:10061000BB0A1E009D0A1D00800A1D00630A1C0003
:10062000470A1B002C0A1B00110A1A00F7091A00BE
:10063000DD091900C4091900AB0919009209170056
:100640007B091800630917004C09160036091600CB
:10065000200916000A091500F5081500E008140025
:10066000CC081400B8081400A40814009008130063
:100670007D0812006B08130058081200460812008B
:10068000340811002308110012081100010811009C
:10069000F0071000E0071000D0071000C00710009E
:1006A000B0070F00A107100091070E0083070F008D
:1006B00074070F0065070E0057070E0049070E006C
:1006C0003B070D002E070E0020070D0013070D003D
:1006D00006070D00F9060C00ED060D00E0060C0003
:1006E000D4060C00C8060C00BC060C00B0060C00BA
:1006F000A4060B0099060C008D060B0082060B0069
:1007000077060B006C060B0061060A0057060B000B
:100710004C060A0042060A0038060A002E060A00A5
:1007200024060A001A060A001006090007060A0035
:10073000FD050900F4050900EB050900E2050900C3
:10074000D9050900D0050900C7050900BE05090043
:10075000B5050800AD050800A50509009C050800C1
:10076000940508008C050800840508007C05080035
:10077000740508006C050700650508005D050700A5
:10078000560508004E05070047050700400508000C
:1007900038050700310507002A0507002305070073
:1007A0001C050600160507000F05070008050600D2
:1007B00002050700FB040600F5040700EE0406002E
:1007C000E8040600E2040700DB040600D504060086
:1007D000CF040600C9040600C3040600BD040600D9
:1007E000B7040600B1040500AC040600A604060028
:1007F000A00405009B040600950405009004060073
:100800008A04050085040500800406007A040500BA
:1008100075040500700405006B04050066040500FE
:10082000610405005C04050057040500520405003E
:100830004D04050048040500430405003E0404007F
:100840003A04050035040500300404002C040500BA
:1008500027040400230405001E0404001A040400F5
:1008600016040500110404000D0404000904050029
:100870000404040000040400FC030400F803040062
:10088000F4030400F0030400EC030400E803040094
:10089000E4030400E0030400DC030400D8030400C4
:1008A000D4030400D0030400CC030400C8030300F5
:1008B000C50303004F1B7C1B972486540757C7684A
:1008C0001369B16DE3EEFDE085EC90E101C0819329
:1008D000EF3FF907E0F3D9F311241FBECFEFD0E1CA
:1008E000DEBFCDBF12E0A0E0B1E0E0EBF6EE02C06B
:1008F00005900D92AE3AB107D9F71DE0AEEAB2E02D
:1009000001C01D92A33EB107E1F718E0C4ECD8E0A6
:1009100004C02297FE010E94D772C43BD107C9F7D9
:100920000E94E2240C9456730C940000A0E3B0E003
:10093000ECE9F4E00C94A072298F3A8F4B8F5C8F16
:100940006D8F7E8F8F8F98A3A98ABA8ACB8ADC8A13
:10095000ED8AFE8A0F8B188F098D1A8D2B8D3C8D99
:1009600009A31AA32BA33CA3680179018FEF9FEF82
:10097000A0E0B0E0C822D922EA22FB228901222786
:10098000332709A71AA72BA73CA709891A892B89FE
:100990003C890DA31EA32FA338A748015901882223
:1009A0009922AA22BB22290166247724C501B40119
:1009B000A70196010E941B726DA77EA78FA798AB17
:1009C000C301B2010E941B726B017C01C501B4011D
:1009D00029A53AA54BA55CA50E941B724B015C01A1
:1009E000C301B2010E941B72AB01BC01C80CD91C2F
:1009F000EA1CFB1C0DA51EA52FA538A9C901AA2715
:100A0000BB27C80ED91EEA1EFB1EC814D904EA046F
:100A1000FB0420F4405050406F4F7F4FC701AA277E
:100A2000BB27840F951FA61FB71F8D839E83AF839F
:100A3000B8877601DD24CC244DA55EA56FA578A9E5
:100A400060707070C40ED51EE61EF71EC982DA8271
:100A5000EB82FC821C2D0A818B804C808D878E81DD
:100A60008E878F818F878885888B2D893E894F89D6
:100A7000588D69A17AA18BA19CA10E941B726B0168
:100A80007C012D8D3E8D4F8D58A16DA17EA18FA132
:100A900098A50E941B72DC01CB01C80ED91EEA1E6C
:100AA000FB1E8D859E85AF85B8898C0D9D1DAE1D65
:100AB000BF1D8D879E87AF87B88B682F7E85212FBE
:100AC000302F482D542D8F859889E096E0E10C94C5
:100AD000BC720F93CF93DF93CDB7DEB760970FB69D
:100AE000F894DEBF0FBECDBF002309F456C029879E
:100AF0003A874B875C876D877E878F87988B20E24C
:100B0000201B8D859E85AF85B889AC01BD0112166D
:100B1000B4F0770F440B542FBA014D835E836F837B
:100B20007887332727FD3095309521953F4F04C0B6
:100B3000B595A795979587952A95D2F722C0002E4F
:100B400004C075956795579547950A94D2F74D83DC
:100B50005E836F83788704C0880F991FAA1FBB1F0D
:100B60002A95D2F749855A856B857C8504C0769590
:100B70006795579547950A95D2F7842B952BA62B09
:100B8000B72B89839A83AB83BC8329813A814B81BC
:100B90005C816D817E818F81988560960FB6F89417
:100BA000DEBF0FBECDBFDF91CF910F910895A8E4B6
:100BB000B0E0EDEDF5E00C949F72F50129A33AA3A6
:100BC0004BA35CA36DA37EA38FA398A7A98EFA8FD6
:100BD000CB8EDC8EED8EFE8E0F8F18A38DA09EA087
:100BE000AFA0B8A4B7FE67C02195B1E0121608F017
:100BF000B0E03195A1E0131608F0A0E0B32EBB1AC7
:100C0000BB2D882483943B1508F08824A82941959E
:100C100031E0141608F030E0B42EBA1AAB2D882457
:100C200083944B1508F088243829519541E0151616
:100C300008F040E0452E431A31E0541508F030E04A
:100C4000432B619531E0161608F030E0862E841AA9
:100C500041E0681508F040E0342B719541E017162B
:100C600008F040E0572F531B31E0751708F030E0D3
:100C7000432B819531E0181608F030E0682F641B93
:100C8000462F61E0841708F060E0362B9195931BA6
:100C900029A3BAA3ABA34CA28DA25EA34FA398A78E
:100CA0008FEF9FEFAFEFBFEF25968CAF9DAFAEAF4D
:100CB000BFAF259706C025961CAE1DAE1EAE1FAE5B
:100CC00025978D8D9E8DAF8DB8A1B7FF68C02596F5
:100CD0002CAD3DAD4EAD5FAD25972095309540953F
:100CE000509525962CAF3DAF4EAF5FAF2597E19560
:100CF00081E01E1608F080E0F19591E01F1608F0E3
:100D000090E04F2F481B81E0F41708F080E0982B0B
:100D1000C19481E01C1408F080E06C2D691B91E007
:100D2000C61608F090E0892BD19491E01D1408F0CC
:100D300090E05D2D581B81E0D51608F080E0982BDF
:100D4000E19481E01E1408F080E03E2D391B91E013
:100D5000E31608F090E0892BF19491E01F1408F05D
:100D600090E02F2D281B81E0F21608F080E0982BF0
:100D7000019581E0101608F080E0702F791B972F05
:100D800071E0091708F070E0872B1195181BE98FA7
:100D90004A8F6B8F5C8F3D8F2E8F9F8F18A3798D1D
:100DA0006A8D5B8D4C8D3D8D2E8D9F8D88A1E9A127
:100DB000E98BEAA1EA8BEBA1EB8BECA1EC8BEDA12B
:100DC000ED8BEEA1EE8BEFA1EF8BE8A5E88F798795
:100DD0006A875B874C873D872E879F87888B8984AE
:100DE0009A84AB84BC848D859E85AF85B889E9885B
:100DF000FA880B891C89EDAAFEAA0FAB18AFCD8823
:100E0000DE88EF88F88C0097A105B10509F0BFC313
:100E1000C814D904EA04FB0408F04EC100E08016AF
:100E200000E0900601E0A00600E0B00660F41FEFCD
:100E300081169104A104B10409F098F480E090E0D7
:100E4000A0E0B0E017C020E0821620E0920620E08B
:100E5000A20621E0B20650F480E190E0A0E0B0E00C
:100E600009C088E090E0A0E0B0E004C088E190E034
:100E7000A0E0B0E0B501A401082E04C07695679506
:100E8000579547950A94D2F7FA01E65EFE4F208106
:100E900040E250E060E070E0481B590B6A0B7B0BAE
:100EA000421B51096109710941155105610571051F
:100EB000A1F1042E04C0880C991CAA1CBB1C0A9426
:100EC000D2F797018601042E04C0000F111F221FC4
:100ED000331F0A94D2F780E290E0841B950BCDA8D3
:100EE000DEA8EFA8F8AC04C0F694E794D794C794B2
:100EF0008A95D2F7C02AD12AE22AF32A0DA91EA97F
:100F00002FA938AD04C0000F111F221F331F4A95AF
:100F1000D2F70DAB1EAB2FAB38AF2501662477247B
:100F2000950184012070307009AB1AAB2BAB3CAB40
:100F3000C701B601A30192010E9461722DA73EA7CD
:100F40004FA758AB69A77AA78BA79CA7C701B60183
:100F5000A30192010E946172CA01B90129A93AA9AB
:100F60004BA95CA90E941B72AB01BC0109A51AA583
:100F70002BA53CA57801DD24CC240DA91EA92FA901
:100F800038ADC901AA27BB27C82AD92AEA2AFB2AD1
:100F90000DA51EA52FA538A9C416D506E606F70689
:100FA00038F5015010402040304009A71AA72BA760
:100FB0003CA7C80CD91CEA1CFB1CC814D904EA04C1
:100FC000FB04D0F0C416D506E606F706A8F40DA576
:100FD0001EA52FA538A9025010402040304009A777
:100FE0001AA72BA73CA7C80CD91CEA1CFB1C04C0E1
:100FF00009A71AA72BA73CA7C41AD50AE60AF70A1D
:10100000C701B601A30192010E9461722DA73EA7FC
:101010004FA758AB69AF7AAF8BAF9CAFC701B60192
:10102000A30192010E946172CA01B90129A93AA9DA
:101030004BA95CA90E941B726B017C0149AD5AADA2
:101040006BAD7CAD9A01112700274DA95EA96FA950
:1010500078AD60707070042B152B262B372B8DA567
:101060009EA5AFA5B8A90C151D052E053F05C0F41A
:101070000197A109B109080D191D2A1D3B1D08156D
:1010800019052A053B0560F00C151D052E053F05C9
:1010900038F48DA59EA5AFA5B8A90297A109B109FD
:1010A00009A51AA52BA53CA57801DD24CC24C82AC6
:1010B000D92AEA2AFB2AB9C481149104A104B104F3
:1010C00051F461E070E080E090E0A50194010E949D
:1010D000617249015A0110E0811610E0910611E099
:1010E000A10610E0B10660F42FEF82169104A1046E
:1010F000B10409F098F480E090E0A0E0B0E017C0FF
:1011000030E0831630E0930630E0A30631E0B3060A
:1011100050F480E190E0A0E0B0E009C088E090E009
:10112000A0E0B0E004C088E190E0A0E0B0E0B5014C
:10113000A401082E04C076956795579547950A94A3
:10114000D2F7FA01E65EFE4F2081AC01BD01420FED
:10115000511D611D711D80E290E0A0E0B0E0841B94
:10116000950BA60BB70B51F4C818D908EA08FB0871
:10117000F1E04F2E512C612C712C28C1082E04C097
:10118000880C991CAA1CBB1C0A94D2F797018601F3
:10119000042E04C036952795179507950A94D2F723
:1011A00009AB1AAB2BAB3CAB97018601082E04C0F0
:1011B000000F111F221F331F0A94D2F70DA71EA77D
:1011C0002FA738ABEDA8FEA80FA918AD04C016953F
:1011D0000795F794E7944A95D2F7B801A7010DA5B2
:1011E0001EA52FA538A9042B152B262B372B0DA7B1
:1011F0001EA72FA738ABEDA8FEA80FA918AD04C0F5
:10120000EE0CFF1C001F111F8A95D2F7EDAAFEAA53
:101210000FAB18AF25016624772495018401207057
:10122000307009AF1AAF2BAF3CAF69A97AA98BA96F
:101230009CA9A30192010E94617229A73AA74BA71A
:101240005CA76B017C0169A97AA98BA99CA9A30160
:1012500092010E946172CA01B90129AD3AAD4BAD4C
:101260005CAD0E941B72AB01BC017601DD24CC2475
:101270000DA51EA52FA538A9C901AA27BB27C82AD5
:10128000D92AEA2AFB2A09A51AA52BA53CA5C4162A
:10129000D506E606F70638F50150104020403040EC
:1012A00009AB1AAB2BAB3CABC80CD91CEA1CFB1C22
:1012B000C814D904EA04FB04D0F0C416D506E60627
:1012C000F706A8F409A51AA52BA53CA502501040C5
:1012D0002040304009AB1AAB2BAB3CABC80CD91C3F
:1012E000EA1CFB1C04C009AB1AAB2BAB3CABC41A09
:1012F000D50AE60AF70AC701B601A30192010E94C6
:10130000617229A73AA74BA75CA721966CAF7DAF66
:101310008EAF9FAF2197C701B601A30192010E9432
:101320006172CA01B90129AD3AAD4BAD5CAD0E9405
:101330001B728B019C0121964CAD5DAD6EAD7FADF6
:101340002197DA01992788274DA55EA56FA578A971
:1013500060707070842B952BA62BB72B49A55AA5CE
:101360006BA57CA580179107A207B307F0F4415045
:10137000504060407040880D991DAA1DBB1D881506
:101380009905AA05BB0588F080179107A207B30746
:1013900060F449A55AA56BA57CA542505040604019
:1013A0007040880D991DAA1DBB1D6C017D01C01ADE
:1013B000D10AE20AF30A09A91AA92BA93CA9380102
:1013C00055244424442A552A662A772A850122274F
:1013D00033270DA71EA72FA738AB950184012070D6
:1013E000307009AF1AAF2BAF3CAFC701B6012DA5C6
:1013F0003EA54FA558A90E94617229A73AA74BA7FD
:101400005CA769AB7AAB8BAB9CABC701B6012DA5D2
:101410003EA54FA558A90E946172CA01B90129AD24
:101420003AAD4BAD5CAD0E941B72AB01BC0109A98A
:101430001AA92BA93CA97801DD24CC240DA91EA949
:101440002FA938ADC901AA27BB27C82AD92AEA2A59
:10145000FB2A09A51AA52BA53CA5C416D506E606A8
:10146000F70638F5015010402040304009AB1AAB68
:101470002BAB3CABC80CD91CEA1CFB1CC814D90410
:10148000EA04FB04D0F0C416D506E606F706A8F475
:1014900009A51AA52BA53CA50250104020403040BC
:1014A00009AB1AAB2BAB3CABC80CD91CEA1CFB1C20
:1014B00004C009AB1AAB2BAB3CABC41AD50AE60A85
:1014C000F70AC701B6012DA53EA54FA558A90E9450
:1014D000617229A73AA74BA75CA721966CAF7DAF95
:1014E0008EAF9FAF2197C701B6012DA53EA54FA591
:1014F00058A90E946172CA01B90129AD3AAD4BAD3C
:101500005CAD0E941B728B019C0121964CAD5DADC0
:101510006EAD7FAD2197DA01992788274DA95EA985
:101520006FA978AD60707070842B952BA62BB72BAC
:1015300049A55AA56BA57CA580179107A207B307FB
:10154000D0F44150504060407040880D991DAA1D54
:10155000BB1D88159905AA05BB0568F08017910782
:10156000A207B30740F449A55AA56BA57CA5425034
:1015700050406040704009A91AA92BA93CA97801E4
:10158000DD24CC24C42AD52AE62AF72A51C2C8165B
:10159000D906EA06FB0608F438C2803010E091074D
:1015A00011E0A10710E0B10758F48F3F9105A105A4
:1015B000B10509F090F400E010E020E030E016C042
:1015C000803020E0920720E0A20721E0B20750F42B
:1015D00000E110E020E030E009C008E010E020E089
:1015E00030E004C008E110E020E030E0AC01BD01D3
:1015F000002E04C076956795579547950A94D2F7C3
:10160000FA01E65EFE4F4081040F111D211D311DC0
:1016100040E250E060E070E0401B510B620B730B46
:10162000A1F48C159D05AE05BF0508F4F5C1EDA824
:10163000FEA80FA918AD442455243201E814F9047A
:101640000A051B0508F0EBC1E3C1342E2C013D0156
:1016500004C0440C551C661C771C4A95D2F7D50172
:10166000C401002E04C0B695A795979587950A9456
:10167000D2F7482A592A6A2A7B2AA5019401032C09
:1016800004C0220F331F441F551F0A94D2F729AFFD
:101690003AAF4BAF5CAFB701A601002E04C0769500
:1016A0006795579547950A94D2F749AB5AAB6BAB00
:1016B0007CABC701B601032C04C0660F771F881FDF
:1016C000991F0A94D2F76DA77EA78FA798AB8DA913
:1016D0009EA9AFA9B8AD04C0B695A7959795879573
:1016E0000A95D2F74DA55EA56FA578A9482B592B71
:1016F0006A2B7B2B4DA75EA76FA778AB4301AA246B
:10170000BB24930182012070307021960CAF1DAF75
:101710002EAF3FAF219769A97AA98BA99CA9A501F2
:1017200094010E94617229A73AA74BA75CA76B019D
:101730007C0169A97AA98BA99CA9A50194010E94A1
:101740006172CA01B90121962CAD3DAD4EAD5FADC0
:1017500021970E941B72DC01CB017601DD24CC2491
:101760000DA51EA52FA538A9A90166277727C42A8C
:10177000D52AE62AF72A09A51AA52BA53CA5C8163D
:10178000D906EA06FB0638F50150104020403040EB
:1017900009AB1AAB2BAB3CABC40CD51CE61CF71C3D
:1017A000C414D504E604F704D0F0C816D906EA0636
:1017B000FB06A8F409A51AA52BA53CA502501040CC
:1017C0002040304009AB1AAB2BAB3CABC40CD51C52
:1017D000E61CF71C04C009AB1AAB2BAB3CABC81A18
:1017E000D90AEA0AFB0AC701B601A50194010E94C1
:1017F000617229A73AA74BA75CA729966CAF7DAF6A
:101800008EAF9FAF2997C701B601A50194010E9431
:101810006172CA01B90121962CAD3DAD4EAD5FADEF
:1018200021970E941B724B015C0129964CAD5DAD66
:101830006EAD7FAD29979A01112700278DA59EA532
:10184000AFA5B8A9A070B070082B192B2A2B3B2B81
:1018500089A59AA5ABA5BCA5081519052A053B05C0
:10186000E0F40197A109B109040D151D261D371DCE
:10187000041515052605370580F0081519052A05F4
:101880003B0558F489A59AA5ABA5BCA50297A1096B
:10189000B109040D151D261D371DB901A8014819F0
:1018A00059096A097B094DA75EA76FA778AB09A9FB
:1018B0001AA92BA93CA97801DD24CC24C82AD92A4D
:1018C000EA2AFB2AFFEF8F2EFFEF9F2EA12CB12CCF
:1018D0008C209D20AE20BF2087012227332709A717
:1018E0001AA72BA73CA749AC5AAC6BAC7CAC2FEF2A
:1018F0003FEF40E050E0422253226422752229AD9E
:101900003AAD4BAD5CAD8A012227332709AB1AAB48
:101910002BAB3CABC501B401A30192010E941B7229
:1019200069AF7AAF8BAF9CAFC501B40129A93AA9C1
:101930004BA95CA90E941B724B015C0169A57AA5A9
:101940008BA59CA5A30192010E941B722B013C0157
:1019500069A57AA58BA59CA529A93AA94BA95CA93B
:101960000E941B72AB01BC01840C951CA61CB71C09
:1019700009AD1AAD2BAD3CADC901AA27BB27880E16
:10198000991EAA1EBB1E84149504A604B70420F455
:10199000405050406F4F7F4FC501AA27BB27840F8F
:1019A000951FA61FB71F0DA51EA52FA538A908179F
:1019B00019072A073B0718F180179107A207B307F9
:1019C000A1F554019924882489AD9AADABADBCAD85
:1019D000A070B070880E991EAA1EBB1E4DA95EA9EC
:1019E0006FA978AD032C04C0440F551F661F771FE5
:1019F0000A94D2F7481559056A057B05B0F4089496
:101A0000C108D108E108F10810C04424552432016E
:101A1000CC24DD2476010CC044245524320181E01D
:101A2000C82ED12CE12CF12C03C0442455243201C2
:101A3000FE01319688E0DF011D928A95E9F7C9829F
:101A4000DA82EB82FC824D825E826F8278862C2D58
:101A50003A814B815C81642D7E818F8198852596AA
:101A6000ECACFDAC0EAD1FAD2597E114F104010502
:101A7000110509F456C02195E1E0121608F0E0E0E6
:101A80003195F1E0131608F0F0E0032F0E1BE1E0B2
:101A9000301708F0E0E0FE2B4195E1E0141608F065
:101AA000E0E0142F1F1B31E0411708F030E0E32B7A
:101AB0005195F1E0151608F0F0E0B52FBE1B31E0AE
:101AC0005B1708F030E0F32B6195E1E0161608F0A3
:101AD000E0E0462E4F1A31E0641508F030E0E32BC9
:101AE0007195F1E0171608F0F0E0A72FAE1B31E07A
:101AF0007A1708F030E0F32B8195E1E0181608F032
:101B0000E0E0F82EFF1AFF2D31E08F1508F030E0ED
:101B1000E32B9195302F412F5B2F642D7A2F8F2F40
:101B20009E1BC85BDF4FE1E10C94BB72F8942091DF
:101B30001303309114038091110390911203821BBF
:101B4000930B78940895882329F06093F60280E43B
:101B500090E002C080E890E090930B0380930A032A
:101B6000089520910A0330910B032115310529F0C6
:101B700081E027FF03C080E0089580E00895809110
:101B80000A0390910B03089581E020910A0330919C
:101B90000B032230310508F480E0089520911303EF
:101BA0003091140381E02115310509F080E008959A
:101BB000482F809113039091140360911103709149
:101BC000120386179707E8F420911303309114034A
:101BD0008091150390911603820F931F0E943A7211
:101BE000E0911703F0911803E80FF91F40838091EB
:101BF000130390911403019690931403809313039D
:101C0000089581E0E1E1F3E08087089585E680931F
:101C10001B0280E090E0A0E0B0E08093F20290939D
:101C2000F302A093F402B093F5021092F10221E0C6
:101C300020931A028093ED029093EE02A093EF029C
:101C4000B093F00210921403109213031092160333
:101C5000109215031092190310921A0310920C039C
:101C600010920D0310920E0310920F0310920B03AB
:101C700010920A03109206031092070310920803B1
:101C8000109209031092AE021092EC021092EB0235
:101C9000089560910C0370910D0380910E03909153
:101CA0000F03089510920C0310920D0310920E036F
:101CB00010920F030895A4E1B0E0E1E6FEE00C9479
:101CC000A472C82E882321F081E08093FD0205C014
:101CD0008091FD02882309F45FC0CE0101960E9425
:101CE000654CCE01019663E070E00E941F258C01D7
:101CF000FC0180809180A280B380F1E0CF1629F0B2
:101D0000CC24CA94DC2C760105C081E0C82ED12CED
:101D1000E12CF12C60E070E080E090E443E00E9470
:101D2000FD4A9B01AC01C701B6010E941B72DC0198
:101D3000CB01880D991DAA1DBB1DF80180839183DD
:101D4000A283B3838EE991E04CE251E060E070E061
:101D50000E94B6690E942B7020E030E040E251E41E
:101D60000E94546F2091DC093091DD094091DE0919
:101D70005091DF090E946F719B01AC0160E074E239
:101D800084E799E40E94546F0E94F66FAB01BC0196
:101D9000CE0101960E944E4D6496ECE00C94C07208
:101DA000A4E5B0E0E6EDFEE00C949E72182FCE01A3
:101DB00089960E94F324CE0145960E94F3241123B4
:101DC00009F440C0EAE6F9E083E09081992309F440
:101DD000BBC1DF0111979C91992309F4B5C18150D2
:101DE000B996882391F7DE015596EBE1F4E084E1A2
:101DF00001900D928150E1F7CE01459662E070E0CE
:101E00000E941F254C01C090C109D090C209E090EA
:101E1000C309F090C40982E00E94DF4A20E030E06C
:101E200040EA50E40E946F710E94F66FDC01CB0122
:101E3000C81AD90AEA0AFB0AF401C082D182E282F6
:101E4000F3826FC0DE015596EBE1F4E084E101908E
:101E50000D928150E1F7CE01CD960E94654CDE01D6
:101E60009996FE01FD9684E101900D928150E1F773
:101E7000CE01899660E070E00E941F25FC01408041
:101E8000518062807380CE01899661E070E00E948B
:101E90001F25FC010081118122813381CE018996A9
:101EA00062E070E064962FAF649765963FAF6597E8
:101EB0000E941F25FC01C080D180E280F380CE010A
:101EC000459663E070E00E941F25FC0180809180B0
:101ED000A280B380CE01459664E070E00E941F2589
:101EE00000D000D0FC0180819181A281B381EDB747
:101EF000FEB781839283A383B483CE010196B3019D
:101F0000A20164962FAD649765963FAD65970E94D8
:101F1000F4240F900F900F900F90CE0101960E9425
:101F2000F74B6091B7097091B8098091B909909108
:101F3000BA092091B3093091B4094091B509509183
:101F4000B6090E946F710E94F66F362E272E629698
:101F50008FAF629763969FAF6397CE01CD960E9435
:101F6000654CDE019996FE01FD9684E101900D928B
:101F70008150E1F7CE01899660E070E00E941F2554
:101F8000FC01C080D180E280F380CE01459660E004
:101F900070E00E941F25FC0180819181A281B381A4
:101FA000A7019601281B390B4A0B5B0BCA01B9012B
:101FB0000E942D702091610930916209409163095E
:101FC000509164090E94546F862E172F082FB92E46
:101FD000CE01899661E070E00E941F25FC01C0805F
:101FE000D180E280F380CE01459661E070E00E94EE
:101FF0001F25FC0180819181A281B381A7019601F7
:10200000281B390B4A0B5B0BCA01B9010E942D70CA
:1020100020918A0930918B0940918C0950918D094A
:102020000E94546F462E772E682E592ECE01899627
:1020300062E070E00E941F25FC01C080D180E28038
:10204000F380CE01459662E070E00E941F25FC01FE
:1020500080819181A281B381A7019601281B390B50
:102060004A0B5B0BCA01B9010E942D702091B30984
:102070003091B4094091B5095091B6090E94546F4E
:10208000C62EE72EF82ED92E302F882D912FA02F77
:10209000BB2DBC01CD01082D232F3B2FA901980199
:1020A0000E946F714B015C01362D842D972DA62D5A
:1020B000B52DBC01CD01042D172D232F3B2FA901D8
:1020C00098010E946F719B01AC01C501B4010E948F
:1020D000D96E4B015C013F2D8C2D9E2DAF2DBD2D5A
:1020E000BC01CD010C2D1E2D232F3B2FA9019801E2
:1020F0000E946F719B01AC01C501B4010E94D96EB1
:102100000E94D6717B018C016091B7097091B8096A
:102110008091B9099091BA0920E030E040E852E49A
:102120000E946F710E94F66F4B015C01CE014596D3
:10213000432D522D62966FAD629763967FAD639784
:1021400020E064010E94CC4ECC5ADF4FE2E10C94B7
:10215000BA72A6E2B0E0EFEAF0E10C94AC72CE0104
:1021600001960E94C06A8091100364E240E050E052
:102170009E012F5F3F4F00E010E00E94191D882351
:1021800039F0CE01019661E00E94A86A91E080FFDB
:1021900090E0892FA696E4E00C94C872A6E2B0E025
:1021A000E4EDF0E10C94AC72CE0101960E94C06A9D
:1021B00080E063E240E050E09E012F5F3F4F00E08F
:1021C00010E00E94191D882341F0CE01019661E0C4
:1021D0000E94A86A91E0882309F490E0892FA696CE
:1021E000E4E00C94C872A6E2B0E0E9EFF0E10C94F0
:1021F000AC72CE0101960E94C06A1092F802109251
:10220000F70280E060E240E050E09E012F5F3F4F28
:1022100000E010E00E94191D882349F0CE010196CC
:1022200061E00E94AD6A9093F8028093F7021092E9
:10223000FA021092F9028EEA91E061E00E946D6963
:102240008230B1F481E060E240E050E09E012F5F17
:102250003F4F00E010E00E94191D882349F0CE0195
:10226000019661E00E94AD6A9093FA028093F902B0
:102270001092FC021092FB0280E061E240E050E02C
:102280009E012F5F3F4F00E010E00E94191DCE011C
:10229000019661E00E94AD6A9093FC028093FB027C
:1022A000A696E4E00C94C872A6E2B0E0EAE5F1E19B
:1022B0000C94AC72CE0101960E94C06A80E063E08B
:1022C00041E050E09E012F5F3F4F00E010E00E9490
:1022D000191D8EEA91E061E00E946D69823049F437
:1022E00081E063E041E050E09E012F5F3F4F0E949C
:1022F000191D80E06FE141E050E09E012F5F3F4FEC
:1023000000E010E00E94191DA696E4E00C94C8724B
:10231000A6E2B0E0EEE8F1E10C94AC72CE010196D9
:102320000E94C06A0091F7021091F802101611067F
:102330004CF480E063E041E050E09E012F5F3F4FAE
:102340000E94191D8EEA91E061E00E946D69823061
:1023500081F40091F9021091FA02101611064CF462
:1023600081E063E041E050E09E012F5F3F4F0E941B
:10237000191D0091FB021091FC02101611064CF47D
:1023800080E06FE141E050E09E012F5F3F4F0E94EF
:10239000191DA696E4E00C94C872A6E2B0E0E3ED45
:1023A000F1E10C94AC72CE0101960E94C06A80915A
:1023B000F7029091F80218161906A4F480E066E17D
:1023C00040E050E09E012F5F3F4F00E010E00E9490
:1023D000191D882339F0CE01019661E00E94A86A98
:1023E0008823F1F18EEA91E061E00E946D6982300C
:1023F000D9F48091F9029091FA0218161906A4F402
:1024000081E066E140E050E09E012F5F3F4F00E039
:1024100010E00E94191D882339F0CE01019661E079
:102420000E94A86A8823E1F08091FB029091FC024F
:1024300018161906BCF480E063E240E050E09E010B
:102440002F5F3F4F00E010E00E94191D882351F0DC
:10245000CE01019661E00E94A86A91E0882319F4F8
:1024600090E001C091E0892FA696E4E00C94C87238
:10247000AAE3B0E0EEE3F2E10C94AC72CE01019677
:102480000E94C06A80910A0390910B0385349105E4
:1024900009F494C086349105C4F48234910509F49A
:1024A0003FC08334910544F48034910559F181345F
:1024B000910509F0D7C029C08334910509F443C0C0
:1024C0008434910509F0CEC049C08238910509F4E1
:1024D000A1C0833891054CF48038910509F479C086
:1024E0008138910509F0BEC08CC08438910509F48B
:1024F000A1C0843891050CF493C08538910509F08A
:10250000B1C09EC081E490E0A9C080911205909175
:102510001105891B877009F0A5C082E490E09EC078
:10252000CE0187960E94654CABE1B4E0FE01B79600
:1025300084E101900D928150E1F781E00E945B0EF1
:1025400083E490E08BC08091120590911105891B66
:10255000877009F087C084E490E080C081E00E9429
:10256000D00E85E490E090930B0380930A030E94C1
:10257000A0208530910529F00E94A020843091058B
:1025800011F411E001C010E08091F602882311F0EF
:102590000E94F310112331F48091F602882311F088
:1025A0000E94541180E06CE041E050E09E012F5FFA
:1025B0003F4F00E010E00E94191D54C080911205A9
:1025C00090911105891B877009F04CC081E090E063
:1025D00045C08091F602882311F00E9488118091F5
:1025E000F602882359F080E06CE041E050E09E0163
:1025F0002F5F3F4F01E010E00E94191D81E890E03D
:102600002DC08091F602882339F10E94CD118823D4
:1026100049F122C080E00E94D00E83E890E01EC005
:102620008091120590911105891B8770D9F484E877
:1026300090E014C080E00E945B0E85E890E00EC040
:102640008091120590911105891B877059F41092A1
:102650000B0310920A0306C082E890E090930B03EC
:1026600080930A03EA96E4E00C94C872CF93DF9358
:10267000FC0182819381009721F481E0818780E0D1
:1026800019C08481958120813181B9010E943A72FB
:10269000C681D781C80FD91F848195810196B90160
:1026A0000E943A72958384838281938101979383F8
:1026B00082838881DF91CF910895EF92FF921F93DB
:1026C000CF93DF9300D0CDB7DEB791E1E92E93E051
:1026D000F92EC7010E943613682FC7016A830E9432
:1026E0003613782FC70179830E943613182FC7013C
:1026F0000E943613982F6A817981812F0F900F9055
:10270000DF91CF911F91FF90EF9008951F93CF938A
:10271000DF93C1E1D3E0CE010E943613182FCE0122
:102720000E943613982F812FDF91CF911F9108952A
:1027300081E193E00E9436130895EF92FF920F9388
:102740001F93CF93DF93D82FC62F0E9495548823D1
:1027500009F4B1C00E9492547C010E94C86A809121
:102760001503909116030196609111037091120365
:102770000E943A72E0911703F0911803E80FF91FD5
:102780006081CF3F09F06C2FC7010E940E6B8091D2
:102790001503909116030296609111037091120334
:1027A0000E943A72E0911703F0911803E80FF91FA5
:1027B0000081C701602F0E940E6B809115039091DC
:1027C0001603039660911103709112030E943A72EE
:1027D000E0911703F0911803E80FF91FC081DD2382
:1027E00099F080910C0390910D03A0910E03B0918C
:1027F0000F030196A11DB11D80930C0390930D034F
:10280000A0930E03B0930F03802F8A50823080F084
:10281000043071F0053061F0083051F0093041F0BA
:10282000063031F0073021F00E3011F00F3051F545
:10283000DD2329F43CC00E9498130F5F03C000E021
:10284000D0E02496802F90E08C179D07A0F32FC036
:1028500080911503909116030496800F911F60914B
:102860001103709112030E943A72E0911703F091E4
:102870001803E80FF91FC70160810E940E6B0F5FFC
:102880001F4F02C000E010E00C1710F30E94A85484
:10289000DD2329F40CC00E9498130F5F03C000E0F1
:1028A000D0E02496802F90E08C179D07A0F30E9423
:1028B000A55481E001C080E0CDB7DEB7E6E00C941E
:1028C000C672ABE8B0E0E7E6F4E10C949E7280914A
:1028D000020390910303A0910403B09105030196B4
:1028E000A11DB11D8093020390930303A0930403E1
:1028F000B09305030E945526882309F553C0209103
:102900001303309114038091150390911603820FE5
:10291000931F0E943A72E0911703F0911803E80F99
:10292000F91F4083809113039091140301969093B3
:1029300014038093130304C01093190301C011E022
:10294000809113039091140320911103309112038D
:102950002817390739F10E94A826882319F1809198
:10296000060390910703A0910803B0910903019613
:10297000A11DB11D8093060390930703A093080344
:10298000B09309030E94AB26482F809113039091C6
:10299000140360911103709112038617970708F4CE
:1029A000AECFCACF80910A0390910B03823091057C
:1029B00018F00E9438126EC68130910509F46AC67B
:1029C0008091EB029091EC028330910581F40E949A
:1029D000474B882341F08DEC92E00E947C6B88236A
:1029E00031F00E947E511092EC021092EB02809125
:1029F000EB029091EC028130910541F40E94474B2B
:102A0000882321F41092EC021092EB028091EB02E9
:102A10009091EC028230910551F48CED92E00E948D
:102A20007C6B882321F01092EC021092EB028091D3
:102A3000EB029091EC028430910571F48EEB92E000
:102A40000E947C6B882321F40E94A910882321F026
:102A50001092EC021092EB028091EB029091EC024A
:102A60008530910571F48EEB92E00E947C6B882397
:102A700021F40E94CE10882321F01092EC021092D3
:102A8000EB028091EB029091EC02009709F0C8C52F
:102A90008091130390911403009709F4C1C58091AC
:102AA00015039091160360911103709112030E9417
:102AB0003A72E0911703F0911803E80FF91F1081A3
:102AC0001B3839F11E3809F4CCC51B3909F4D1C5BE
:102AD000193809F4C2C5163809F4D3C51C3809F4ED
:102AE000BCC51C3909F4B9C5103909F4B6C5133889
:102AF00009F4B3C5143809F4B0C5183809F4ADC5E4
:102B0000143909F4AAC50E945D37882309F0A5C5C8
:102B1000C1C580911303909114038931910508F484
:102B20007FC50E94981381E090E09093EC0280931F
:102B3000EB020E945D134B015C010E945D138B014F
:102B40009C01C657DF4F2883CA58D040C557DF4F76
:102B50003883CB58D0400E945D132B013C010E946A
:102B60005D13C358DF4F688379838A839B83CD5776
:102B7000D0400E945D136B017C010E945D13CF5712
:102B8000DF4F688379838A839B83C158D0408091CB
:102B90000C0390910D03A0910E03B0910F030196C9
:102BA000A11DB11D80930C0390930D03A0930E0300
:102BB000B0930F0300D000D0ADB7BEB71196CD9241
:102BC000DD92ED92FC921497CE018D96B501A40191
:102BD000C657DF4F2881CA58D040C557DF4F3881CC
:102BE000CB58D04073016201C358DF4F8880998071
:102BF000AA80BB80CD57D0400E94F4240F900F9044
:102C00000F900F90CE018D96CF57DF4F488159819D
:102C10006A817B81C158D0400E944E4D01C50E94FF
:102C2000981381E090E09093EC028093EB020E9475
:102C30005D134B015C010E945D138B019C01C65723
:102C4000DF4F2883CA58D040C557DF4F3883CB5851
:102C5000D0400E945D132B013C010E945D13C358BC
:102C6000DF4F688379838A839B83CD57D0400E944E
:102C70005D136B017C010E945D13CF57DF4F6883AA
:102C800079838A839B83C158D0400E949813382E41
:102C900080910C0390910D03A0910E03B0910F034E
:102CA0000196A11DB11D80930C0390930D03A09379
:102CB0000E03B0930F0300D000D0EDB7FEB7C18272
:102CC000D282E382F482CE014996B501A401C657AF
:102CD000DF4F2881CA58D040C557DF4F3881CB58C5
:102CE000D04073016201C358DF4F88809980AA8069
:102CF000BB80CD57D0400E94F4240F900F900F90CE
:102D00000F90CE014996CF57DF4F488159816A8194
:102D10007B81C158D040232D0E94F74D81C40E9471
:102D2000981381E090E09093EC028093EB020E9474
:102D30005D134B015C010E945D138B019C01C65722
:102D4000DF4F2883CA58D040C557DF4F3883CB5850
:102D5000D0400E945D132B013C010E945D13C358BB
:102D6000DF4F688379838A839B83CD57D0400E944D
:102D70005D136B017C010E945D13CF57DF4F6883A9
:102D800079838A839B83C158D0400E949813CB5784
:102D9000DF4F8883C558D0400E945D13CA57DF4F6C
:102DA000688379838A839B83C658D0400E948613A8
:102DB0001C0180910C0390910D03A0910E03B09122
:102DC0000F030196A11DB11D80930C0390930D0379
:102DD000A0930E03B0930F0300D000D0ADB7BEB7E1
:102DE0001196CD92DD92ED92FC921497CE0105964C
:102DF000B501A401C657DF4F2881CA58D040C55736
:102E0000DF4F3881CB58D04073016201C358DF4F88
:102E100088809980AA80BB80CD57D0400E94F4243E
:102E20000F900F900F900F90CE010596CF57DF4F68
:102E3000488159816A817B81C158D040CB57DF4F8F
:102E40002881C558D040CA57DF4FE880F9800A81F1
:102E50001B81C658D04061010E94CC4EE1C30E9444
:102E600098130E9498138093100340910C03509183
:102E70000D0360910E0370910F034F5F5F4F6F4F13
:102E80007F4F40930C0350930D0360930E03709398
:102E90000F030E94B250809110030E940157C0C3DB
:102EA0008091020390910303A0910403B091050364
:102EB0008093FE029093FF02A0930003B09301035E
:102EC00080911303909114038230910508F4A8C3F4
:102ED0000E9498130E94981340910C0350910D0387
:102EE00060910E0370910F034F5F5F4F6F4F7F4FE5
:102EF00040930C0350930D0360930E0370930F03E4
:102F0000E82EEE1CEE24EE1C00E010E0C82EDD24BE
:102F1000C601002E02C0959587950A94E2F780FFBE
:102F200004C0802F6E2D0E9499500F5F1F4F0430F8
:102F3000110571F775C31C3809F05AC0809113034D
:102F4000909114038531910508F46AC30E94981387
:102F50000E945D136B017C010E945D132B013C01FB
:102F60000E945D134B015C010E945D13C358DF4F4B
:102F7000688379838A839B83CD57D0400E945D13F9
:102F8000AB01BC0180910C0390910D03A0910E0345
:102F9000B0910F030196A11DB11D80930C03909376
:102FA0000D03A0930E03B0930F0300D000D0EDB734
:102FB000FEB74183528363837483CE0187599F4F49
:102FC000B701A6019301820175016401C358DF4F67
:102FD00088809980AA80BB80CD57D0400E94F4247D
:102FE0000F900F900F900F90CE0187599F4FAAC15D
:102FF0001538A1F580911303909114038530910544
:1030000008F40EC382E090E09093EC028093EB0210
:103010000E9498130E945D13AB01BC0180910C03C8
:1030200090910D03A0910E03B0910F030196A11D85
:10303000B11D80930C0390930D03A0930E03B093E6
:103040000F03CB01BA0128EE33E040E050E00E94CC
:103050001B72AB01BC018CED92E0AEC0143969F477
:1030600080911303909114038530910508F4D8C220
:103070000E9498130E949813A0C11539B9F4809149
:103080001303909114038630910508F4C9C20E947D
:1030900098130E9498130E9498130E9498130E94FC
:1030A00098130E9498138823E1F765C1812F8358F4
:1030B000823008F046C08091130390911403883049
:1030C000910508F4ADC20E9498130E949813082F2E
:1030D0000E945D136B017C010E94861340910C03DA
:1030E00050910D0360910E0370910F034F5F5F4F7E
:1030F0006F4F7F4F40930C0350930D0360930E036B
:1031000070930F0323E030E03093EC022093EB0246
:10311000BC0180E090E020E432E44FE050E00E9407
:103120001B72AB01BC018DEC92E00E94566B81E0FA
:10313000143809F080E0602FA70196010E943950F1
:103140006FC21738E1F58091130390911403863014
:10315000910508F465C284E090E09093EC028093BE
:10316000EB020E9498130E949813809310030E9410
:1031700086130E94861340910C0350910D036091B9
:103180000E0370910F034F5F5F4F6F4F7F4F409360
:103190000C0350930D0360930E0370930F03BC0157
:1031A00080E090E020E432E44FE050E00E941B72A7
:1031B000AB01BC018EEB92E00E94566B31C21D3810
:1031C00099F480911303909114038630910508F4CB
:1031D00027C285E090E09093EC028093EB020E947E
:1031E00098130E949813C3CF1F3809F057C08091DD
:1031F0001303909114038230910508F411C20E94C8
:1032000098130E94981340910C0350910D03609104
:103210000E0370910F034F5F5F4F6F4F7F4F4093CF
:103220000C0350930D0360930E0370930F03E0E6BD
:10323000CE2ED12C00E010E0E82EFF24C701002E96
:1032400002C0959587950A94E2F780FF1DC0CE01D4
:103250008B5A9F4F0E94654CCE018B5A9F4FB801ED
:103260000E941725FC0180819181A281B38189830D
:103270009A83AB83BC83F894CE010196B60144E0F7
:1032800050E00E943E7378940F5F1F4F84E090E0FF
:10329000C80ED91E0430110589F6C2C1103909F0D3
:1032A00054C080911303909114038230910508F467
:1032B000B7C10E9498130E949813E82E80910C03C6
:1032C00090910D03A0910E03B0910F030196A11DE3
:1032D000B11D80930C0390930D03A0930E03B09344
:1032E0000F0321E4C22ED12CCC0EDD1EC6010E949C
:1032F000654C30E6832E912C00E010E0FF244C2C2E
:10330000CD2CC701002E02C0959587950A94E2F74F
:1033100080FF0CC0F894842D9C2DB8010E941F25BD
:10332000B40144E050E00E942E7378940F5F1F4F69
:10333000A4E0B0E08A0E9B1E0430110511F7CE0107
:103340008F5B9F4F0E94F74B6BC1123941F5809103
:103350001303909114038630910508F461C10E9413
:1033600098130E9498130E9498130E9498130E9429
:1033700098130E94981380910C0390910D03A091D3
:103380000E03B0910F030196A11DB11D80930C0394
:1033900090930D03A0930E03B0930F0341C1133913
:1033A00079F480911303909114038630910508F409
:1033B00037C10E9498130E9486130E948613D9CFAA
:1033C000183809F047C0809113039091140384309A
:1033D000910508F425C18091150390911603209161
:1033E000110330911203E0911703F091180300913B
:1033F0001303109114030396B9010E943A728E0FC1
:103400009F1FDC018C918C5F90E00817190708F46E
:1034100007C110911A0281E080931A02809115036E
:10342000909116030296B9010E943A728E0F9F1F67
:10343000FC018081833021F0809115039091160367
:1034400081E06FEF0E949D13882309F0E9C010937B
:103450001A02E6C0163949F48091130390911403BF
:103460008330910508F4DCC080CF173949F480918E
:103470001303909114038230910508F078CFD0C0E7
:10348000183951F5809113039091140382309105FE
:1034900008F4C6C00E9498130E94981380910C03F0
:1034A00090910D03A0910E03B0910F030196A11D01
:1034B000B11D80930C0390930D03A0930E03B09362
:1034C0000F03F89481E00E94CF1C789487E39DE07D
:1034D00060E00E94A467A4C0193921F5809113030C
:1034E000909114038530910508F49AC00E949813B6
:1034F0000E945D1380910C0390910D03A0910E0327
:10350000B0910F030196A11DB11D80930C03909300
:103510000D03A0930E03B0930F0381E193E00E948B
:10352000F0207EC01A3919F580911303909114038D
:103530008230910508F474C00E9498130E94981379
:1035400040910C0350910D0360910E0370910F0395
:103550004F5F5F4F6F4F7F4F40930C0350930D03AE
:1035600060930E0370930F030E94262259C01C39EA
:1035700039F580911303909114038230910508F47A
:103580004FC00E94981380910C0390910D03A0915D
:103590000E03B0910F030196A11DB11D80930C0382
:1035A00090930D03A0930E03B0930F030E94981302
:1035B00091E0813009F090E0892F0E94AF5030C037
:1035C0001D3971F580911303909114038531910594
:1035D00038F10E94981380910C0390910D03A091F3
:1035E0000E03B0910F030196A11DB11D80930C0332
:1035F00090930D03A0930E03B0930F030E949813B2
:103600000E9498130E9498130E945D130E948613D3
:103610000E9486130E945D130E945D130E949813FE
:1036200080910C0390910D03A0910E03B0910F03B4
:103630008130FAEC9F07FAE9AF07FBE3BF0750F1CF
:1036400081E09AECAAE9BBE380930C0390930D030D
:10365000A0930E03B0930F031DC0193809F06BCC73
:103660001FCC80911303909114038A319105C0F20D
:10367000D6CA80911303909114038032910580F291
:103680004ECB80911303909114038230910508F082
:10369000E6CBC6CFC557DF4FE2E10C94BA7280E0AB
:1036A00091E09093120380931103109214031092EF
:1036B000130310921603109215038BE193E090937D
:1036C0001803809317031092190310921A038BE1C9
:1036D00094E00E94F3248CED92E00E94526B8DECFA
:1036E00092E00E94526B8EEB92E00E94526B8FEA46
:1036F00092E00E94526B08958FE294E00E94C06AAB
:103700000895ACE0B0E0E7E8FBE10C94AE721982FA
:103710001A821B821C821D821E821F8218861986B5
:103720001A861B861C86CE01019660EB71E04CE088
:1037300050E00E943E732C96E2E00C94CA72A8E01E
:10374000B0E0E5EAFBE10C94AE7281EC93E29E837B
:103750008D838CED9CEA98878F83CE01019665EE70
:1037600071E044E050E00E942E7329813A818D81FE
:103770009E812817390739F42B813C818F819885E8
:103780002817390741F0CE01059665EE71E044E057
:1037900050E00E943E732896E2E00C94CA720F93A8
:1037A0001F9389E890E060E00E9448738BE890E006
:1037B00000E71BE524EF35E64BE150E060E070E008
:1037C0000E94DD6983E990E024EF35E64BE150E0AB
:1037D00060E070E00E94DD698BE990E000E010E0BD
:1037E0002DED3EE049EE52E060E070E00E94DD69C0
:1037F00083EA90E005EE1EEB2DEA36EF44E750E059
:1038000060E070E00E94DD698BEA90E02DEA36EF1F
:1038100044E750E060E070E00E94DD6986E291E0FC
:1038200061E00E94487387E291E040E757E160E081
:1038300070E00E94F7698BE291E040E757E160E0B9
:1038400070E00E94F7698FE291E040EE51E060E0A5
:1038500070E00E94F76983E391E040E757E160E0A0
:1038600070E00E94F76987E391E040E757E160E08C
:1038700070E00E94F7698BE391E044EF51E060E073
:1038800070E00E94F7698FE391E044EF51E060E05F
:1038900070E00E94F76983E491E044E650E060E064
:1038A00070E00E94F76987E491E040E157E260E050
:1038B00070E00E94F76986EA91E040E157E260E03B
:1038C00070E00E94F7698BE491E040ED57E060E022
:1038D00070E00E94F7698FE491E040EA5FE060E009
:1038E00070E00E94F7698FE591E044E853E060E002
:1038F00070E00E94F76987E691E042E553E060E0FE
:1039000070E00E94F76985E891E044E150E060E0F2
:1039100070E00E94F7698AEA91E044E150E060E0DB
:1039200070E00E94F76989E891E061E00E944873C5
:1039300082E991E04CE251E060E070E00E94F769BA
:1039400086E991E04CE251E060E070E00E94F769A6
:103950008AE991E049E150E060E070E00E94F76997
:103960008EE991E04CE251E060E070E00E94F7697E
:1039700082EA91E04CE251E060E070E00E94F76979
:103980008CED91E060E00E94487389EE91E060E088
:103990000E9448730E949F1B1F910F9108950F93DF
:1039A0001F93CF93C82F82E090E062E80E94487393
:1039B00083E090E06FE10E94487380E290E060E075
:1039C0000E9448738EEA91E061E00E9448730E9471
:1039D000CF1BCC2351F583EB90E000E010E020E01A
:1039E00030E040E050E060E070E00E94DD6984ED8E
:1039F00091E020E030E040E050E060E070E00E94C4
:103A0000DD698BEB90E020E030E040E050E060E0EA
:103A100070E00E94DD698DED91E020E030E040E053
:103A200050E060E070E00E94DD69CF911F910F913E
:103A30000895AFE0B0E0EFE1FDE10C94A272782EC2
:103A4000662E4A015901F02EE12E8E010F5F1F4FA5
:103A5000C8010E94526BC80142E350E060E070E090
:103A60000E94566BC02E012F07C08C2D902F0E94F4
:103A70007C6B882309F058C00E9495548823A9F3D1
:103A80000E9492548C010E948F546C01C8010E94C4
:103A9000C86AC5010E94C86AC801672D0E940E6BE2
:103AA000C801662D0E940E6B81E08816910431F4E6
:103AB000C8016F2D7E2D0E94116B08C0E2E08E16AA
:103AC000910421F4C8016F2D0E940E6B0E94A8542E
:103AD0000E94A55402C00E94F5540E94F05488230D
:103AE000D1F3F60182A18430F9F000E009C0C601EB
:103AF000602F0E94A86A682FC5010E940E6B0F5F9D
:103B0000F6018081081798F3C50160E00E94A86A59
:103B1000282F30E081E890E0282739272F77307070
:103B200081E02115310509F080E02F96EEE00C943C
:103B3000BE72A0E0B0E0EFE9FDE10C94A872EC01E8
:103B40008B0188818823E1F16E01CE0160E00E9443
:103B5000A86A87FF35C00E945826882331F0CE011D
:103B60000E945B26C80161E806C00E945526882392
:103B700029F0C8016AE80E940E6B20C0F894C88141
:103B80000E94960D2C2F30E08217930748F411C045
:103B9000C6016C2F0E94A86A0E94D80D219603C00E
:103BA000C0E0D0E07901CE15DF0594F3C80161E8EB
:103BB00002C0C80162E80E940E6B789481E001C0E7
:103BC00080E0CDB7DEB7E8E00C94C472A4E1B0E0C9
:103BD000ECEEFDE10C94AC728B01F894CE010196F1
:103BE0000E94D84CC80161E80E940E6BCE0101967C
:103BF00060E070E00E941725FC01408151816281E4
:103C00007381C8010E94246BCE01019661E070E0CF
:103C10000E941725FC014081518162817381C80196
:103C20000E94246BCE01019662E070E00E9417258D
:103C3000FC014081518162817381C8010E94246B23
:103C40000E94C150682FC8010E940E6B7894649640
:103C5000E4E00C94C872A4E1B0E0E1E3FEE10C946E
:103C6000AC728B01F894CE0101960E94D84CC80129
:103C700061E80E940E6BCE01019660E070E00E9448
:103C80001725FC014081518162817381C8010E9426
:103C9000246BCE01019661E070E00E941725FC01C3
:103CA0004081518162817381C8010E94246BCE01E1
:103CB000019662E070E00E941725FC01408151816D
:103CC00062817381C8010E94246BCE01019663E07A
:103CD00070E00E941725FC0140815181628173814F
:103CE000C8010E94246BCE01019664E070E00E943E
:103CF0001725FC014081518162817381C8010E94B6
:103D0000246B0E94C150682FC80170E00E94116BA3
:103D100078946496E4E00C94C872A0E0B0E0E3E923
:103D2000FEE10C94A4728C017B018DB69EB6DDB6CB
:103D3000CEB6BDB6AEB6CB0161E80E940E6BC8012F
:103D400061E00E94A86A882379F00E940128BC01E2
:103D5000009751F0C7010E940E6BC70160E00E94FE
:103D60000E6B8DBECEBE32C08DB79EB74F970FB6CD
:103D7000F8949EBF0FBE8DBFCDB6DEB60894C11CB1
:103D8000D11CC6016FE10E948C25BC01F601808127
:103D9000882329F06115710511F48E3291F3C70162
:103DA0000E940E6B10E0E12FF0E0C7011F3149F0D7
:103DB000EC0DFD1D6081662321F00E940E6B1F5FDC
:103DC000F2CF60E00E940E6BBDBEAEBE0FB6F8949F
:103DD0009EBE0FBE8DBE2096ECE00C94C072AFE08C
:103DE000B0E0E5EFFEE10C94A8726C018E010F5F6C
:103DF0001F4FC8010E94526BC80140E553EC60E0C0
:103E000070E00E94566BE02E012F11C08E2D902F76
:103E10000E947C6B882359F0C60167E80E940E6BF4
:103E200087E39DE062E070E00E9478673EC00E94F8
:103E30009554882359F30E9492548C010E948F5408
:103E40007C01C8010E94C86A0E940457682FC801FB
:103E50000E940E6BC80167E10E940E6B0E94A8547D
:103E60000E94A55402C00E94F5540E94F054882379
:103E7000D1F3F70182A1843081F4C60167E80E9482
:103E80000E6B13C0C701602F0E94A86A682FC6017D
:103E90000E940E6B0F5F1F4F02C000E010E0F701A1
:103EA000808190E0081719076CF32F96E8E00C94D6
:103EB000C472AFE0B0E0EFE5FFE10C94A4727C01C6
:103EC0006B01FC018081823048F4CB0160E80E94E4
:103ED0000E6B87E39DE068E070E01EC08E010F5F0F
:103EE0001F4FC8010E94526BC80140E553EC60E0CF
:103EF00070E00E94566BA02E012F11C08A2D902FCA
:103F00000E947C6B882359F0C60167E80E940E6B03
:103F100087E39DE062E070E00E94786747C00E94FE
:103F20009554882359F30E9492544C010E948F5457
:103F30005C01C4010E94C86A01E010E00AC0C70128
:103F4000602F0E94A86A682FC4010E940E6B0F5F49
:103F50001F4FF701808190E00817190784F30E9432
:103F6000A8540E94A55402C00E94F5540E94F05427
:103F70008823D1F3F50182A1843081F4C60167E87A
:103F80000E940E6B13C0C501602F0E94A86A682FA3
:103F9000C6010E940E6B0F5F1F4F02C000E010E0D1
:103FA000F501808190E0081719076CF32F96ECE07B
:103FB0000C94C072A0E0B0E0E0EEFFE10C94A272BD
:103FC000A82EE92E6B016DB67EB661E00E94AD6A47
:103FD0008C018A2D9E2D63E00E94A86A482F882EAE
:103FE00099248DB79EB7881999090FB6F8949EBF8A
:103FF0000FBE8DBFADB6BEB60894A11CB11CC501E5
:10400000B80150E00E942E73C60161E80E940E6B59
:10401000750100E010E008C0F70161917F01C60161
:104020000E940E6B0F5F1F4F08151905ACF30FB6FA
:10403000F8947EBE0FBE6DBE2096EEE00C94BE726C
:104040002F923F925F926F927F928F929F92AF9248
:10405000BF92CF92DF92EF92FF920F931F93CF9375
:10406000DF9300D0CDB7DEB7E82ED92E3B018DB758
:104070009EB79A8389838E2D9D2D61E00E94AD6A43
:10408000C82EB92E8E2D9D2D63E00E94A86AF82EB1
:10409000282E3324EDB7FEB7E219F3090FB6F894D2
:1040A000FEBF0FBEEDBF0DB71EB70F5F1F4FA02E97
:1040B000512EC8016C2D7B2D4F2D50E00E942E7388
:1040C000480100E010E00BC0602F6C5F8E2D9D2D2D
:1040D0000E94A86AF40181934F010F5F1F4F0215E0
:1040E000130594F30FB7F8948A2D952D6C2D7B2D25
:1040F0004F2D50E00E943E730FBFC30161E80E9444
:104100000E6BC3016F2D0E940E6B89819A810FB6D1
:10411000F8949EBF0FBE8DBF0F900F90DF91CF918F
:104120001F910F91FF90EF90DF90CF90BF90AF90D5
:104130009F908F907F906F905F903F902F90089509
:1041400080916E0490916F040895CF93DF9382E77E
:1041500094E00E945327EC01009761F40E94060E40
:104160000E948F510E947E5182E090E090937104F2
:1041700080937004CE01DF91CF910895CF93C82F23
:104180000E94B10DC817F9F00E94C40D8823D9F41C
:104190008C2F60E00E94A30DCC2351F083E090E0CF
:1041A00090936F0480936E0488E594E061E009C009
:1041B00081E090E090936F0480936E0488E594E032
:1041C00060E00E94A96BCF91089588E594E040E0FB
:1041D00054EA63E976ED0E94566B109267040895E5
:1041E000AFE1B0E0E6EFF0E20C94A972FC0180913F
:1041F0007004909171048130910509F445C08230BA
:10420000910519F00097D1F16EC07E010894E11C70
:10421000F11C4FE1DD24D39482819381009719F43E
:10422000D18680E01AC08481958120813181B901D5
:104230000E943A7206811781080F191F84819581A7
:104240000196B9010E943A72958384838281938199
:10425000019793838283D8018C91D7018D937D013F
:10426000882309F452C04150B9F64FC082E794E068
:10427000BE016F5F7F4F0E94FF7235C081E090E00A
:10428000909371048093700482E7E82E84E0F82E06
:104290004FE1DD24D39482819381009719F4D18674
:1042A00080E01AC08481958120813181B9010E940A
:1042B0003A7206811781080F191F84819581019632
:1042C000B9010E943A729583848382819381019718
:1042D00093838283D8018C91D7018D937D018823AC
:1042E00011F04150C1F687E39DE00E9423670E94D0
:1042F000E5200E94520E81E090E090936F0480933D
:104300006E046F96E7E00C94C572CE01019660E0F2
:1043100071E00E94F672009731F3A8CF88E594E02F
:104320000E947C6B882369F088E594E040E054EAC1
:1043300063E976ED0E94566B809167048F5F8093EE
:1043400067040895CF93DF93EB0120916704FC018C
:10435000208388E594E00E94D86B20E037E843E9A9
:1043600053E00E9461722883DF91CF910895AFE0FE
:10437000B0E0EDEBF1E20C94AE728DE694E06CE609
:1043800074E00E94A221CE0101960E94526BA8E522
:10439000B4E0FE0131968FE001900D928150E1F77B
:1043A000109267042F96E2E00C94CA728091700418
:1043B000909171048130910589F484E090E09093AC
:1043C00071048093700481EB94E040E452E46FE068
:1043D00070E00E94566B81E0809355040E94490E64
:1043E000DC01CB018093680490936904A0936A0474
:1043F000B0936B040E94B72181E08093570482EA56
:1044000094E040E45DE063E070E00E94566B84E07D
:1044100090E090936F0480936E04089585E090E09F
:1044200090936F0480936E040E947E510E94B10DA0
:10443000882321F40E94C40D882319F00E94D621FC
:10444000089581E060E00E94A30D08950E94B721C5
:104450000E94490EDC01CB018093680490936904AB
:10446000A0936A04B0936B0482E090E090936F0491
:1044700080936E0410927104109270040895A2E06B
:10448000B0E0E5E4F2E20C94AC728C0161E80E94C9
:104490000E6BCE010296BE016F5F7F4F0E94A2217C
:1044A000C80160916E040E940E6BC8016A810E946F
:1044B0000E6BC80169810E940E6B80916E04909111
:1044C0006F048130910519F08330910529F40E9421
:1044D000490EAB01BC0108C04091680450916904C9
:1044E00060916A0470916B04C8010E94246BC8013A
:1044F00040E050E060E070E00E94246B2296E4E02F
:104500000C94C872A0E0B0E0E8E8F2E20C94A67265
:10451000EC018B018881882309F41BC1FC2EED2E50
:10452000CE0160E00E94A86A87FD13C1E82FF0E089
:10453000EC31F10508F00DC1E25CFF4F0C94D5722F
:104540008C2F9D2F61E00E94AD6A8732910518F48F
:10455000C80161E8F6C0C80161E80E940E6BC8019D
:1045600061E971E0F3C0C80161E80E940E6B42E7A7
:10457000E42E44E0F42E5FE1C52EE701C801F70107
:1045800061917F010E940E6B8881882309F4E3C04A
:10459000CA9499F7E0C080917004909171040197DA
:1045A0008230910530F487E39DE06BE070E00E947B
:1045B000786781E08093570482EA94E040E45DE00C
:1045C00063E070E00E94566BC80161E8D0C0C8018A
:1045D00061E80E940E6B0E94960DAC0160E070E0F5
:1045E000C8010E94246BB7C0CE01B8010E94E61D2D
:1045F000B2C0CE01B8010E942B1EADC0C80161E857
:104600000E940E6BCE0103960E94BA27AEC0C8016D
:1046100061E80E940E6B0E94FD26AB01BC01C8013F
:104620000E94246B0E94CC2696C0C80161E80E94BB
:104630000E6B22E7A22E24E0B22E31E0C32ED12C45
:10464000888190E0C816D9060CF08BC0FFE1CF1628
:10465000D10409F486C08F2D9E2D6C2D0E94A86A6E
:10466000F50181935F010894C11CD11CE9CFCE01F3
:10467000B8010E948D1E6FC00E94C40D882309F0EE
:10468000A3CF0E94B10D91E089270E94BE20C801EE
:104690000E94EF1E99CFCE01B8010E94591F5BC046
:1046A000C80161E80E940E6BF8940E94474B882372
:1046B00021F40E94CE0D882311F460E001C061E076
:1046C000C8010E940E6B789446C0CE01B8010E94CA
:1046D000DA1F41C0CE01B8010E9420203CC08C2FBF
:1046E0009D2F61E00E94A86AC82F80FF02C00E942F
:1046F0007E51C1FF02C00E94060EC80161E80E94FF
:104700000E6BC80160E033C0C8010E943F2223C085
:104710008C2F9D2F61E00E94AD6AC80161E80E9464
:104720000E6BC80161E971E00E94116BC80160E085
:1047300070E00E94116BC80160E80E940E6BC80116
:1047400060E00E940E6BC80160E070E00E94116B97
:1047500002C080E001C081E0CDB7DEB7EAE00C9492
:10476000C272109290040E94A520682FC8010E9476
:104770000E6BF1CF80916E0490916F04853091059E
:1047800039F40E94BF0D8130910511F40E94D621A9
:104790008091DE0D9091DF0D009709F4BAC08091F1
:1047A000DE0D9091DF0D8430910509F4B2C0809147
:1047B0005704882309F4BAC082EA94E00E947C6B13
:1047C000882309F4B3C0A5C080915504882339F02B
:1047D00081EB94E00E947C6B882309F49FC0809158
:1047E0006E0490916F048130910519F0833091052A
:1047F00011F40E940E2210925704809156040E94D8
:10480000A8241092560480EC94E00E94A66B1092AB
:104810009104109272041092710410927004089521
:104820008091B80D9091B90D84309105D1F08091AF
:10483000C004882349F480EC94E040E45DE063E048
:1048400070E00E94566B0DC080EC94E00E947C6B7F
:10485000882339F085E99DE00E94456A84E08093D1
:10486000B70D8091B70D882321F085E99DE00E9466
:10487000536A8091B80D9091B90D84309105B9F5C6
:1048800080EC94E00E94A66B8BEB9DE00E94C86ACE
:1048900080915504882371F08BEB9DE069E80E94BC
:1048A0000E6B1092550487E39DE06AE070E00E9471
:1048B000786715C085E99DE06BEB7DE00E94991D4E
:1048C000882369F485E99DE06BEB7DE00E948222FC
:1048D000882329F48BEB9DE065E80E940E6B85E947
:1048E0009DE00E94536A81E99DE00E944D6C809199
:1048F0007004909171048230910541F40E94552614
:10490000882321F410927104109270040E948E2169
:10491000089580915704882309F056CF8091B80DEF
:104920009091B90D009709F07BCF9BCF089580EC53
:1049300094E00E94526B81EB94E00E94526B82EAF9
:1049400094E00E94526B88E594E00E94526B0895B7
:10495000AFE0B0E0EEEAF4E20C94AB72082FF8940A
:104960000E94CC260E94DB4B0E947E510E94060EC4
:104970000E9420690E948F51789487E39DE0602F08
:104980000E94A4670023B9F08E010F5F1F4FC8017A
:104990000E94526BC80140EA55E266E270E00E9454
:1049A000566BF02E012F8F2D902F0E947C6B882349
:1049B000D1F30E94B9560E94A55578942F96E5E050
:1049C0000C94C77281E00E94A82478940E94F55448
:1049D0000E94BA230E94611487E39DE00E9422672F
:1049E0000E944D54F3CF0895A0E0B0E0EAEFF4E266
:1049F0000C94A472FC01408351836283738304830B
:104A0000158326833783C086D186E286F386848623
:104A10009586A686B7868F859889A989BA89808B5D
:104A2000918BA28BB38B2096ECE00C94C072660F36
:104A3000771F660F771F680F791FCB010895660FE8
:104A4000771F660F771F680F791FCB0108950F93AB
:104A500080EA94E664E275E64BE056E629EA36E63B
:104A600000E00E9432639093E6048093E50400978F
:104A700079F480EA94E664E275E64BE056E629EACA
:104A800036E60FEF0E9432639093E6048093E504CC
:104A900081E02091E5043091E6042115310509F407
:104AA00080E00F9108958091E5049091E6040E94C2
:104AB000D45B9C019093E4048093E30481E021158E
:104AC000310509F480E00895ABE2B0E0EAE6F5E2F2
:104AD0000C94AE728091E3049091E4046BE071E079
:104AE000AE014F5F5F4F0E94EE618091E3049091B1
:104AF000E404BE016F5F7F4F0E9405619C019093AB
:104B0000E2048093E10481E02115310509F480E09D
:104B1000AB96E2E00C94CA72CF92DF92EF92FF92D2
:104B20001F93CF93DF93CDB7DEB7AB970FB6F89453
:104B3000DEBF0FBECDBF7C0116E0C62EDD2408947B
:104B4000C108D10826C08091E1049091E204BE0121
:104B50006F5F7F4F0E9448618823C1F089A18E71E9
:104B600091F7F701DE01119680E090E08C159D052C
:104B700034F42D91222319F021930196F7CFF701F8
:104B8000E80FF91F1082009721F005C0F70110828D
:104B900002C01150C1F680E090E0AB960FB6F894D9
:104BA000DEBF0FBECDBFDF91CF911F91FF90EF9081
:104BB000DF90CF9008950F931F93CF93DF938C01D5
:104BC000EB010EC0CE01B8010E94F672009741F4CD
:104BD0008091E1049091E2040E946B6281E009C03F
:104BE0008091E1049091E204BE010E944861882313
:104BF00049F7DF91CF911F910F910895ABE2B0E09B
:104C0000E4E0F6E20C94AC728B01BE016F5F7F4F63
:104C10000E94DB25882371F08091E3049091E404E5
:104C2000BE016F5F7F4F0E94565DF80191838083C4
:104C300081E001C080E0AB96E4E00C94C872ABE286
:104C4000B0E0E5E2F6E20C94AE72BE016F5F7F4F1A
:104C50000E94DB25882359F08091E3049091E404BD
:104C6000BE016F5F7F4F0E94CF6281E001C080E094
:104C7000AB96E2E00C94CA72ABE2B0E0E2E4F6E29A
:104C80000C94AE72BC018091E1049091E204AE01FB
:104C90004F5F5F4F0E94786291E0882309F490E0B3
:104CA000892FAB96E2E00C94CA728091DD040895DE
:104CB0008091DE040895CF93DF93EC018091DF04AF
:104CC0009091E0040097E1F0BE016E5F7F4F488154
:104CD00050E00E948C5E28818091D1049091D20492
:104CE000A091D304B091D404820F911DA11DB11DD8
:104CF0008093D1049093D204A093D304B093D404AE
:104D0000DF91CF9108958091DF049091E00460EDF0
:104D100074E041E050E00E94A05D21E01816190601
:104D20000CF020E02093CF048091D5049091D6041C
:104D3000A091D704B091D8040196A11DB11D809314
:104D4000D5049093D604A093D704B093D8040895C3
:104D50008091CF040895A1E0B0E0E1EBF6E20C947D
:104D6000AE728091D00489830E9483268981219626
:104D7000E2E00C94CA721092DD048091DF049091FD
:104D8000E004009721F00E948D5D0E9484641092DF
:104D9000E0041092DF0408958091DD04882311F06F
:104DA0000E94BB268091DE04882311F00E94FD261C
:104DB0008091E1049091E204009731F00E944261F9
:104DC0001092E2041092E1048091E3049091E404D3
:104DD000009731F00E94505D1092E4041092E304B9
:104DE0008091E5049091E604009731F00E940364FD
:104DF0001092E6041092E50408958091DE04882361
:104E000081F08091DF049091E004009721F00E94EE
:104E10008D5D0E9484641092E0041092DF04109271
:104E2000DE040E94CC266091D1047091D20480915E
:104E3000D3049091D40408950E945E65882371F490
:104E40000E945664882329F40E94CC2681E090E0D9
:104E500008950E94CC2682E090E008950E942725C4
:104E6000882329F40E94CC2683E090E008950E94D4
:104E70005325882329F40E94CC2684E090E00895ED
:104E80000E946425882329F40E94CC2685E090E0C6
:104E900008950E946E64882319F086E090E00895DA
:104EA00080E090E00895A4E0B0E0E9E5F7E20C943A
:104EB000AC728C010E94CC260E941C27009719F02E
:104EC0008630910519F51092D1041092D2041092F7
:104ED000D3041092D4041092D5041092D6041092E8
:104EE000D7041092D8041092E0041092DF04C80195
:104EF0006FED74E00E94FE25882331F08091DF047D
:104F00009091E004009731F487E090E02496E4E08B
:104F10000C94C87221E02093DD0419821A821B824E
:104F20001C82BE016F5F7F4F42E00E94B0608981AA
:104F30009A81AB81BC818093D9049093DA04A093C9
:104F4000DB04B093DC0419821A821B821C828091DC
:104F5000DF049091E004BE016F5F7F4F40E00E944C
:104F6000B06087E39DE00E9423670E94832680E073
:104F700090E0CCCF0F931F93CF93DF938C010E94CF
:104F8000CC260E941C27EC010097A9F51092D104B1
:104F90001092D2041092D3041092D4041092D5042B
:104FA0001092D6041092D7041092D8041092E00404
:104FB0001092DF04C8010E941F26C8010E943C26EF
:104FC000882389F0C8016FED74E00E94FE258823D4
:104FD00069F08091DF049091E004009751F081E046
:104FE0008093DE0408C0C7E0D0E005C0C3E0D0E095
:104FF00002C0C8E0D0E0CE01DF91CF911F910F91A8
:1050000008950E94CC260E941C27009719F0863034
:10501000910541F48091E1049091E2040E946B6259
:1050200080E090E00895A0E0B0E0E9E1F8E20C94BF
:10503000A0728091F2049091F304009709F0A7C345
:1050400090911205809111059817A1F020911105FA
:1050500030E08FE690E0289FF001299FF00D389F07
:10506000F00D1124ED5EFA4FDF01A459BF4F81E02E
:105070008C9302C0E0E0F0E0F093F304E093F204DC
:10508000309709F42EC384899589A689B7898093BE
:105090004F0990935009A0935109B0935209808D04
:1050A000918DA28DB38D8093530990935409A09351
:1050B0005509B0935609848D958DA68DB78D809333
:1050C000570990935809A0935909B0935A0980A1A0
:1050D00091A1A2A1B3A180935B0990935C09A093D5
:1050E0005D09B0935E0982A98093F4048091F50470
:1050F000882339F184859585A685B7850097A10514
:10510000B105F9F08091F6048823D9F08091EF047D
:105110002091F0043091F104882339F080914909FD
:1051200090914A09821B930B06C080914909909186
:105130004A09820F931F90934A098093490910925C
:10514000F6041092F7041092F8041092F9041092E9
:10515000FA04C091F204D091F304FE01EA5AFF4F21
:10516000208131813F3460F03D3930F443E03695A1
:1051700027954A95E1F702C028E833E188E014C09A
:10518000383230F0369527953695279584E00CC057
:10519000343120F03695279582E006C02032310563
:1051A00010F420E230E081E08093FB042052304094
:1051B00008E020303007C8F0E32FF0E0EE0FFF1FCB
:1051C000EE0FFF1FEC54FF4F85919591A591B4917F
:1051D000AC01BD01AA27279FC001269F810D9A1F00
:1051E00006948A1F9A1F11241CC0F901F695E795B1
:1051F000EC7FEC54FB4F85919591A591B4916C0196
:105200007D01AC0130E0277030702A9FC0012B9FD8
:10521000900D3A9F900D112413E0969587951A955D
:10522000E1F7481B590B5093FD044093FC04809117
:10523000FB048093FE04FE01E659FF4F8081882322
:1052400009F474C0C25ADF4F2881398130930005B8
:105250002093FF043F3460F03D3930F4A3E03695ED
:105260002795AA95E1F702C028E833E188E014C049
:10527000383230F0369527953695279584E00CC066
:10528000343120F03695279582E006C02032310572
:1052900010F420E230E081E08093FB0420523040A3
:1052A00018E020303107C8F0E32FF0E0EE0FFF1FC9
:1052B000EE0FFF1FEC54FF4F85919591A591B4918E
:1052C000AC01BD01AA27279FC001269F810D9A1F0F
:1052D00006948A1F9A1F11241CC0F901F695E795C0
:1052E000EC7FEC54FB4F85919591A591B4916C01A5
:1052F0007D01AC0130E0277030702A9FC0012B9FE8
:10530000900D3A9F900D112463E0969587956A95CC
:10531000E1F7481B590BCA01A0E0B0E080930105FA
:1053200090930205A0930305B09304055093890060
:1053300040938800E091F204F091F30480A98093F7
:105340000505E259FF4F20818091490990914A0952
:10535000009719F480912F0A8111286080914709E4
:10536000281709F442C0ECE2F2E0EF01249640E095
:1053700050E061E070E0CB01042E02C0880F991F5D
:105380000A94E2F7A82F309147093227382331F1E8
:10539000A22390914709AA2389F0982B909347095B
:1053A000A081B1813C91CB01088002C0880F991F78
:1053B0000A94E2F7809583238C9310C0809589230B
:1053C00080934709A081B1813C91CB01088002C044
:1053D000880F991F0A94E2F7382B3C934F5F5F4F79
:1053E000B396A3964430510531F6E091F204F09162
:1053F000F304DF01A359BF4FDC91708961895289A1
:105400004389C0910505008111812281338181E0AA
:10541000011511052105310509F480E080937B0910
:10542000882309F444C0872F962FA52FB42FFF247B
:10543000F394FC22AC01BD0175956795579547958E
:1054400070956095509541955F4F6F4F7F4F40939A
:105450007C0950937D0960937E0970937F0941E038
:10546000D11140E0409373098093740990937509BA
:10547000A0937609B0937709009384091093850966
:105480002093860930938709FF2011F08FEF01C028
:1054900081E08093790981E08F2580937A091092C9
:1054A00080091092810910928209109283097089F3
:1054B000618952894389048115812681378181E080
:1054C000011511052105310509F480E08093A40937
:1054D000882309F446C0872F962FA52FB42FFF24C9
:1054E000F394C1FFFF24AC01BD01759567955795F5
:1054F000479570956095509541955F4F6F4F7F4FE1
:105500004093A5095093A6096093A7097093A80931
:1055100041E0D13009F040E040939C0980939D091F
:1055200090939E09A0939F09B093A0090093AD09A1
:105530001093AE092093AF093093B009FF2011F00A
:105540008FEF01C081E08093A20981E08F258093D5
:10555000A3091092A9091092AA091092AB091092FE
:10556000AC0970896189528943890085118522853A
:10557000338581E0011511052105310509F480E02D
:105580008093CD09882309F446C0872F962FA52F35
:10559000B42FFF24F394C2FFFF24AC01BD01759525
:1055A00067955795479570956095509541955F4FD4
:1055B0006F4F7F4F4093CE095093CF096093D0092E
:1055C0007093D10941E0D23009F040E04093C50921
:1055D0008093C6099093C709A093C809B093C909DD
:1055E0000093D6091093D7092093D8093093D9098D
:1055F000FF2011F08FEF01C081E08093CB0981E0A3
:105600008F258093CC091092D2091092D309109261
:10561000D4091092D509F0880189328923894485FB
:1056200055856685778581E04115510561057105D0
:1056300009F480E08093F609882309F445C08F2D92
:10564000902FA32FB22FE1E0C3FFE0E08C019D017A
:1056500035952795179507953095209510950195C7
:105660001F4F2F4F3F4F0093F7091093F8092093D6
:10567000F9093093FA0921E0D33009F020E02093B2
:10568000EE098093EF099093F009A093F109B0938C
:10569000F2094093FF095093000A6093010A709346
:1056A000020AEE2311F08FEF01C081E08093F4092C
:1056B00081E08E278093F5091092FB091092FC0976
:1056C0001092FD091092FE0910920705109206052E
:1056D0001092E7041092E8041092E9041092EA0490
:1056E00056C080ED97E09093890080938800809168
:1056F000490990914A09009709F049C02091480949
:1057000080914709281709F442C0ECE2F2E0EF016A
:10571000249640E050E061E070E0CB01042E02C02E
:10572000880F991F0A94E2F7A82F30914709322772
:10573000382331F1A22390914709AA2389F0982BAD
:1057400090934709A081B1813C91CB01088002C0B0
:10575000880F991F0A94E2F7809583238C9310C0D9
:105760008095892380934709A081B1813C91CB0129
:10577000088002C0880F991F0A94E2F7382B3C93E7
:105780004F5F5F4FB396A3964430510531F6809139
:10579000F504882379F18091F2049091F304009745
:1057A00049F082599F4FFC018081869586958695A8
:1057B00080FD20C08091F6048823E1F48091EF04FD
:1057C0002091F0043091F104882339F08091490947
:1057D00090914A09820F931F06C0809149099091C8
:1057E0004A09821B930B90934A098093490981E0EF
:1057F0008093F6048091F2049091F304009711F4E1
:105800000C942636F090FB04A0900605B090070596
:10581000409008055090090560900A0570900B05AE
:105820007094609450944094411C511C611C711CF4
:10583000452C562C672C772467FC7A948824C1E089
:10584000D0E0CC24C39480C4E091F204F091F3043E
:10585000DF01A659BF4F8C918823D9F1A114B1045F
:1058600099F444A955A9662757FD6095762F809134
:10587000F7099091F809A091F909B091FA09840FFC
:10588000951FA61FB71F1DC002E0A016B10409F5A1
:1058900086A997A9909581959F4FAA2797FDA095D6
:1058A000BA2F4091F7095091F8096091F909709168
:1058B000FA09840F951FA61FB71F840D951DA61DFD
:1058C000B71D8093F7099093F809A093F909B09355
:1058D000FA0980917B09882309F400C18091840929
:1058E00090918509A0918609B091870900917C0962
:1058F00010917D0920917E0930917F09080F191FB1
:105900002A1F3B1F00937C0910937D0920937E0979
:1059100030937F0910161106120613060CF0DEC034
:1059200040918009509181096091820970918309A9
:10593000481759076A077B070CF0D0C0809174099B
:1059400090917509A0917609B0917709081B190B00
:105950002A0B3B0B00937C0910937D0920937E0951
:1059600030937F0980917809882351F18091430910
:105970009091440940917909242F332727FD3095D0
:10598000820F931F909344098093430980914F099C
:1059900090915009A0915109B0915209552747FDA6
:1059A0005095652F752F840F951FA61FB71F8093E5
:1059B0004F0990935009A0935109B09352097BC0AD
:1059C00090917A098091600981119C25E0912502CE
:1059D000F0912602809129022081992349F0AE019D
:1059E00002C0440F551F8A95E2F7242B20830AC07A
:1059F000BE0102C0660F771F8A95E2F7CB01809542
:105A00008223808380917A098823D9F4809133029C
:105A1000909134020097A9F0E0913502F09136029E
:105A2000808190E00090370202C0959587950A9496
:105A3000E2F78170907090915F09981711F00C94C3
:105A40002E36E0911E02F0911F022081CE010090BF
:105A5000220202C0880F991F0A94E2F7282B2083A4
:105A600080914F0990915009A0915109B09152092C
:105A700040917909552747FD5095652F752F840F63
:105A8000951FA61FB71F80934F0990935009A093AD
:105A90005109B0935209E0911E02F0911F0220813A
:105AA000CE010090220202C0880F991F0A94E2F7EB
:105AB0008095822380838091800990918109A091B3
:105AC0008209B09183090196A11DB11D80938009BF
:105AD00090938109A0938209B09383098091A409CE
